:100000000C94F9000C9418010C9418010C9418012C
:100010000C9418010C9418010C9418010C941801FC
:100020000C9418010C9418010C9418010C941801EC
:100030000C9418010C9418010C9418010C941801DC
:100040000C9418010C9418010C9418010C941801CC
:100050000C940C030C9418010C9418010C941801C6
:100060000C9418010C9444010C9474010C94180124
:100070000C9418010C9418010C9418010C9418019C
:100080000C9418010C9418010C9418010C9418018C
:100090000C9428020C9458020C9418010C9418012A
:1000A0000C9418010C9418010C9418010C9418016C
:1000B0000C9418010C9418010C9418010C9418015C
:1000C0000C9418010C9418010C9418010C9418014C
:1000D0000C9418010C9418010C9418010C9418013C
:1000E0000C9418016364696E6F7073757858006EB4
:1000F000616E00696E660000407A10F35A00A072CB
:100100004E18090010A5D4E80000E8764817000052
:10011000E40B54020000CA9A3B000000E1F5050020
:100120000080969800000040420F000000A0860169
:10013000000000102700000000E803000000006439
:1001400000000000000A00000000000100000000A4
:10015000002C76D888DC674F0823DFC1DFAE59E179
:10016000B1B796E5E3E453C63AE651997696E8E6E8
:10017000C28426EB898C9B62ED407C6FFCEFBC9CBB
:100180009F40F2BAA56FA5F490055A2AF75C936BCD
:100190006CF9676DC11BFCE0E40D47FEF520E6B588
:1001A00000D0ED902E0300943577050080841E0862
:1001B0000000204E0A000000C80C333333330F9880
:1001C0006E12831141EF8D2114893BE65516CFFE47
:1001D000E6DB18D1844B381BF77C1D901DA4BBE4D3
:1001E00024203284725E228100C9F124ECA1E53D15
:1001F000270011241FBECFEFD1E2DEBFCDBF12E03A
:10020000A0E0B2E0E8E4F8E100E00BBF02C0079034
:100210000D92A430B107D9F716E0A4E0B2E001C016
:100220001D92A238B107E1F70E941A010C94220C2A
:100230000C940000EF92FF920F931F93DF93CF93E4
:10024000CDB7DEB72E970FB6F894DEBF0FBECDBF89
:100250000E94A20178947E010894E11CF11C8E0199
:100260000B5F1F4FC7010E94350389819A81B80136
:100270004AE050E00E94F40AC8010E94ED0180E0CB
:1002800092E00E94ED01EECF1F920F920FB60F92F7
:100290000BB60F9211242F938F939F93EF93FF939D
:1002A0009091C0002091C600E0915306EF5FEF717E
:1002B00080915406E81711F482E008C0892F8871F4
:1002C000E0935306F0E0EB5AF94F208380937506D4
:1002D000FF91EF919F918F912F910F900BBE0F90F7
:1002E0000FBE0F901F9018951F920F920FB60F928E
:1002F0000BB60F9211248F939F93EF93FF939091DE
:10030000310680913206981769F0E0913206EF5F6E
:10031000EF71E0933206F0E0ED5CF94F808180935D
:10032000C60005C08091C1008F7D8093C100FF9100
:10033000EF919F918F910F900BBE0F900FBE0F907A
:100340001F901895109231061092320610925306A3
:10035000109254061092C50080E18093C400E1EC35
:10036000F0E0808188618083E2ECF0E0808186604B
:10037000808308959091530680915406981719F43C
:1003800020E031E012C0E0915406EF5FEF71E0939E
:100390005406F0E0EB5AF94F308120917506922F08
:1003A00080E0AC01430F511D9A01C9010895282F27
:1003B000909131069F5F9F71809132069817E1F30B
:1003C000E92FF0E0ED5CF94F2083909331068091A6
:1003D000C10080628093C1000895CF93DF93EC0148
:1003E00003C021960E94D70188818823D1F7DF912D
:1003F000CF910895CF93DF93EC0102C00E94D70103
:10040000FE01219684918823C9F7DF91CF91089549
:100410008091C00087FFFCCF8091C6000895A0E0C6
:10042000B0E08091C00087FFFCCF8091C6008D3086
:1004300049F0A336B10531F0FD01E75BFD4F808344
:100440001196EFCFA75BBD4F1C9289E492E008950F
:100450001F920F920FB60F920BB60F9211242F938B
:100460008F939F93EF93FF939091C8002091CE00BC
:10047000E0912602EF5FEF7180912702E81711F4F7
:1004800082E008C0892F8871E0932602F0E0E85DE1
:10049000FD4F208380934802FF91EF919F918F91B0
:1004A0002F910F900BBE0F900FBE0F901F901895BD
:1004B0001F920F920FB60F920BB60F9211248F93CB
:1004C0009F93EF93FF9390910402809105029817F8
:1004D00069F0E0910502EF5FEF71E0930502F0E053
:1004E000EA5FFD4F80818093CE0005C08091C900F6
:1004F0008F7D8093C900FF91EF919F918F910F9015
:100500000BBE0F900FBE0F901F9018959C0110927C
:10051000040210920502109226021092270297FF01
:1005200004C082E08093C8003F773093CD002093D1
:10053000CC0088E98093C90086E08093CA000895C2
:100540009091260280912702981719F420E031E05B
:1005500012C0E0912702EF5FEF71E0932702F0E015
:10056000E85DFD4F308120914802922F80E0AC0180
:10057000430F511D9A01C9010895282F909104023B
:100580009F5F9F71809105029817E1F3E92FF0E0DA
:10059000EA5FFD4F2083909304028091C90080623E
:1005A0008093C9000895CF93DF93EC0103C0219697
:1005B0000E94BD0288818823D1F7DF91CF910895F1
:1005C000CF93DF93EC0102C00E94BD02FE01219691
:1005D00084918823C9F7DF91CF910895E1E0F1E09C
:1005E00080818062808380818F7B80830895E2E0B8
:1005F000F1E080818F7D808395E0892F8A95F1F7E6
:1006000080818062808380E48A95F1F780818F7D8C
:1006100080839A95F1F708951F920F920FB60F926B
:1006200011248F939F93AF93BF93809176069091FF
:100630007706A0917806B09179060196A11DB11DAB
:100640008093760690937706A0937806B093790608
:100650001092850010928400BF91AF919F918F916D
:100660000F900FBE0F901F901895AF92BF92CF9230
:10067000DF92EF92FF920F931F93CF93DF93EC01E2
:1006800080910101806280930101809101018F7B43
:1006900080930101CE010E94F70280918100816068
:1006A000809381002FEF3FEF4FEF5FEF24C08091E9
:1006B0007A0690917B06A0917C06B0917D0601960A
:1006C000A11DB11D80937A0690937B06A0937C06B2
:1006D000B0937D0680917A0690917B06A0917C066E
:1006E000B0917D0689529E41A740B04020F02883FA
:1006F00039834A835B838091000186FFD8CF1092B3
:100700008500109284008091810081608093810037
:1007100080916F00816080936F0010927606109236
:100720007706109278061092790678948EEFA82EAC
:100730008FEFB82E8FEFC82E8FEFD82E25C0609187
:100740007606709177068091780690917906E09010
:100750008400F090850000E010E02FEF3FEF40E0D4
:1007600050E00E94B209E60EF71E081F191F89E229
:10077000E8168EE1F80687E0080780E0180720F009
:10078000A882B982CA82DB828091000186FDD7CF20
:1007900010928100F89460917606709177068091AE
:1007A000780690917906E0908400F090850000E052
:1007B00010E02FEF3FEF40E050E00E94B209E60E5C
:1007C000F71E081F191FE0927E06F0927F06009325
:1007D00080061093810660917E0670917F0680915D
:1007E00080069091810620EA33E040E050E00E94CC
:1007F000D109288339834A835B83DF91CF911F918D
:100800000F91FF90EF90DF90CF90BF90AF90089541
:10081000FC0120FD08C023FD05C022FF02C0738338
:100820006283518340830895EF92FF920F931F9349
:1008300044FF02C033E011C046FF02C034E00DC0E7
:10084000DB01FC01AA0FBB1FEE1FFF1F1094D1F7A5
:100850006A0F7B1F8E1F9F1F31E0660F771F881F57
:10086000991F3150D1F77B018C01E20EF11C011D63
:10087000111DA8019701B701CA011F910F91FF90A7
:10088000EF9008950F931F93CF93DF938C01C801CE
:100890000E94150BEC0197FD08C00E94CB0A892B22
:1008A000B1F7CE01B8010E94830BCE01DF91CF9149
:1008B0001F910F910895AF92BF92CF92DF92EF9266
:1008C000FF920F931F93CF93DF93EC01C62E5A0133
:1008D000122F0E94150BAC018B3219F08D3251F49E
:1008E0001068CA9409F46DC0CE010E94150BAC01CA
:1008F00097FD67C06DEFD62ED1228D2D807301F547
:100900004033F1F4CA9409F447C0CE010E94150B9C
:10091000AC0197FD41C082E0D82A483711F0483534
:1009200059F480E4D82ACA94B9F1CE010E94150B7B
:10093000AC0199232CF430C0D6FC02C080E1D82A47
:10094000EE24FF248701242F2053283088F0D4FC84
:1009500009C02A3068F0D6FE05C02F7D822F815154
:10096000863028F0CA01BE010E94830B12C02750B6
:10097000C801B7014D2D0E9414047B018C0182E057
:10098000D82ACA9461F0CE010E94150BAC0197FFE2
:10099000DACFD1FC04C015C0EE24FF248701D7FEB6
:1009A00008C010950095F094E094E11CF11C011D25
:1009B000111DC501B801A7012D2D0E94080481E079
:1009C00001C080E0DF91CF911F910F91FF90EF90D8
:1009D000DF90CF90BF90AF9008956F927F928F92EB
:1009E0009F92AF92BF92CF92DF92EF92FF920F93BE
:1009F0001F93CF93DF935C016B013A01FC011782D7
:100A000016828824DCC0812F90E00E94CB0A892BBB
:100A100021F0C5010E944204D2C0153249F4F6010A
:100A2000F3FC6591F3FE61916F01653269F415E2A3
:100A3000C5010E94150B97FDCEC0181709F4BFC061
:100A4000B5010E94830BCCC06A3219F0162F00E06A
:100A500006C0F3FC1591F3FE11916F0101E099249A
:100A60000FC00260692D70E080E090E040E20E94DB
:100A70001404962EF601F3FC1591F3FE11916F010B
:100A8000212F20532A3068F301FD03C099249A9442
:100A900003C0992009F4A4C0183621F01C3691F443
:100AA000F6010AC0F601F3FC6591F3FE6191683628
:100AB00011F0162F06C008600460F3FC1591F3FED8
:100AC00011916F01112309F48BC084EE90E0612F26
:100AD00070E00E94D30A892B09F482C0802F00FFA6
:100AE00003C0EE24FF2407C0F301E080F18022E080
:100AF00030E0620E731E1E3651F4F50146815781B7
:100B000060E070E0C701202F0E94080458C013362F
:100B100091F481FD02C099249394C5010E94150BA4
:100B200097FD59C0E114F10419F0F70181937F0199
:100B30009A9499F742C0C5010E94420497FD4BC0A8
:100B40001F3659F1103728F4143629F1193639F5C2
:100B500027C0133719F0153711F51DC0C5010E94C4
:100B6000150BEC0197FD11C00E94CB0A892B29F0CF
:100B7000CE01B5010E94830B08C0E114F10419F005
:100B8000F701C1937F019A9449F7E114F104A9F0A8
:100B9000F701108212C0006203C0006101C000644E
:100BA000C501692DA701202F0E945B04882329F429
:100BB000F5018381807379F413C000FF8394F501FC
:100BC000F380F601F3FC1591F3FE11916F011123EF
:100BD00009F019CF05C0882019F42FEF3FEF02C0AC
:100BE000282D30E0C901DF91CF911F910F91FF9027
:100BF000EF90DF90CF90BF90AF909F908F907F90BD
:100C00006F9008952F923F924F925F926F927F92D2
:100C10008F929F92AF92BF92CF92DF92EF92FF920C
:100C20000F931F93DF93CF93CDB7DEB761970FB6C6
:100C3000F894DEBF0FBECDBF3C017F876E876A018F
:100C4000FC0117821682838181FD03C06FEF7FEF65
:100C50006FC39E012F5F3F4F398B288BF301238198
:100C6000EE85FF8523FD859123FF8191FF87EE8728
:100C7000882309F45AC3853251F4EE85FF8523FD9C
:100C8000859123FF8191FF87EE87853229F490E0DB
:100C9000B3010E94570BE2CF982F10E088249924CB
:100CA0001032B0F49B3269F09C3228F4903251F04B
:100CB000933271F40BC09D3239F0903349F41160D6
:100CC00028C01260146025C0186023C0106121C0C4
:100CD00017FD2AC0892F80538A3078F416FF06C08A
:100CE000FAE09F9E902C1124980E13C03AE0839E48
:100CF000802C1124880E10620CC09E3221F416FD47
:100D000014C3106406C09C3611F4106802C09836F3
:100D100059F4EE85FF8523FD959123FF9191FF877F
:100D2000EE87992309F0BCCF892F8554833020F4B6
:100D3000812F8061905E07C0892F8556833008F02F
:100D40009FC1812F8F7E86FD02C076E0972E6FE3D4
:100D5000F62EF822953619F4F0E4FF2A07C09636ED
:100D600019F420E8F22A02C091109A94F7FE0AC002
:100D70003BE3391518F45CE3B52E02C0B92CB394EB
:100D800027E009C047E0491520F4BB2447E0942E32
:100D9000F7CF292DBB24C60104969D878C87F601C9
:100DA0006081718182819381AE014F5F5F4F0B2D16
:100DB0000E94F3096C010981202E332400FF04C036
:100DC00003FD02C01DE209C0F1FE02C01BE205C026
:100DD000F2FC02C010E001C010E2C1018C70907002
:100DE000892BB9F1112311F483E001C084E0881547
:100DF00010F088240AC0881AF3FC07C080E290E053
:100E0000B3010E94570B8A94C9F7112329F0812F4F
:100E100090E0B3010E94570B23FE03C00FEE10E0D9
:100E20000EC003EF10E00BC0E114F10409F0805292
:100E300090E0B3010E94570B0F5F1F4F05C0EF2CCE
:100E4000FF24F0E1EF22FF24F8018491882361F769
:100E500014C1F7FE12C0BC0C24FE04C08A81813389
:100E600009F4BA941B141CF0BB24B3942DC0F8E011
:100E7000FB1550F538E0B32E27C0F6FC25C0892DB0
:100E800090E08C159D054CF02CEFC2162FEFD2068A
:100E900024F030E8F32A01C09A94992049F0E2E066
:100EA000F0E0EC0FFD1FE90DF11D80818033A1F30F
:100EB000F7FE0AC0B92CB394892D90E0C816D90664
:100EC00014F0992401C09C18F7FC03C025E030E021
:100ED00009C01C141D041CF021E030E003C0960181
:100EE0002F5F3F4F112311F02F5F3F4F992029F0C3
:100EF000892D90E00196280F391F882D90E0281742
:100F0000390714F0882401C0821A4F2C5524C201DD
:100F100089709070892B39F008C080E290E0B301AD
:100F20000E94570B8A948820C1F7112329F0812F42
:100F300090E0B3010E94570B43FE07C008C080E356
:100F400090E0B3010E94570B8A948820C1F7F7FE06
:100F500046C08601D7FE02C000E010E0760108948A
:100F6000E11CF11CE01AF10A41E050E04C0F5D1F5A
:100F7000E40EF51E26014B185108892D90E0AA2495
:100F8000BB24A81AB90A5FEF0F3F150729F48EE2B8
:100F900090E0B3010E94570BC016D10634F0401602
:100FA00051061CF4F701808101C080E3015010401C
:100FB0000894E11CF11C0A151B052CF090E0B3010C
:100FC0000E94570BE0CF0C151D0539F49A8196331A
:100FD00018F4953311F424FE81E390E04BC08A812C
:100FE000813309F00F7E90E0B3010E94570B9920E6
:100FF000A1F08EE290E0B3010E94570B12E0E1E015
:10100000F0E0EC0FFD1FE10FF11D1F5F808190E00C
:10101000B3010E94570B9A9491F744FC03C085E6F4
:1010200090E002C085E490E0B3010E94570BD7FC2A
:1010300005C0C114D10441F404FF06C0D094C1948A
:10104000D108D3948DE201C08BE290E0B3010E94FD
:10105000570B80E305C08F5F26EF3FEFC20ED31E14
:101060003AE0C316D104BCF790E0B3010E94570BDD
:10107000C601C096B3010E94570BCC84DD8452C1D7
:10108000933631F0933799F0933509F059C023C066
:10109000F601808189835E010894A11CB11C22E0C5
:1010A00030E0C20ED31E21E0E22EF12C12C0F60178
:1010B000A080B18016FD03C06FEF7FEF02C0692DE5
:1010C00070E022E030E0C20ED31EC5010E94E90AA2
:1010D0007C011F7713C0F601A080B18016FD03C00C
:1010E0006FEF7FEF02C0692D70E022E030E0C20EAA
:1010F000D31EC5010E94DE0A7C01106813FF07C0E1
:101100001BC080E290E0B3010E94570B8A94882DA7
:1011100090E0E816F906A8F30FC0F50117FD8591D8
:1011200017FF81915F0190E0B3010E94570B81107E
:101130008A940894E108F108E114F10471F7F2C00F
:10114000943611F0993689F517FF08C0F601208111
:1011500031814281538184E090E00AC0F6018081B0
:1011600091819C01442737FD4095542F82E090E007
:10117000C80ED91E9FE6F92EF12257FF09C05095DF
:101180004095309521953F4F4F4F5F4F90E8F92A9A
:10119000CA01B901AE014F5F5F4F2AE030E00E9403
:1011A0009D0BE82EE889EE1A41C0953721F41F7E89
:1011B0002AE030E01CC0197F9F3661F0903720F4A0
:1011C000983509F0B2C00FC0903739F0983709F060
:1011D000ACC004C028E030E00AC0106114FD146007
:1011E00020E130E004C014FD166020E132E017FF7A
:1011F00008C0F601608171818281938144E050E0F2
:1012000008C0F60180819181BC0180E090E042E05D
:1012100050E0C40ED51EAE014F5F5F4F0E949D0B84
:10122000E82E5889E51A8FE7F82EF122F6FE0BC05A
:101230008EEFF822E91438F4F4FE07C0F2FC05C082
:101240009FEEF92202C01E2D01C0192DF4FE0DC023
:10125000FE01EE0DF11D8081803319F4E9EEFE22CE
:1012600008C01F5FF2FE05C003C08F2D867809F00D
:101270001F5F0F2DF3FC14C0F0FE0FC0181510F007
:101280009E2C0BC09E2C980C911A182D06C080E243
:1012900090E0B3010E94570B1F5F1815C0F304C004
:1012A000181510F4811A01C0882404FF0FC080E3D0
:1012B00090E0B3010E94570B02FF1DC001FD03C067
:1012C00088E790E00EC088E590E00BC0802F86781C
:1012D00091F001FF02C08BE201C080E2F7FC8DE2D9
:1012E00090E0B3010E94570B06C080E390E0B30189
:1012F0000E94570B9A94E914C0F3EA94E1E0F0E0FD
:10130000EC0FFD1FEE0DF11D808190E0B3010E94F6
:10131000570BEE2091F706C080E290E0B3010E94E7
:10132000570B8A948820C1F799CCF30166817781A5
:10133000CB0161960FB6F894DEBF0FBECDBFCF9143
:10134000DF911F910F91FF90EF90DF90CF90BF90B2
:10135000AF909F908F907F906F905F904F903F9055
:101360002F900895629FD001739FF001829FE00D3E
:10137000F11D649FE00DF11D929FF00D839FF00D14
:10138000749FF00D659FF00D9927729FB00DE11DC0
:10139000F91F639FB00DE11DF91FBD01CF0111249D
:1013A0000895A1E21A2EAA1BBB1BFD010DC0AA1FA6
:1013B000BB1FEE1FFF1FA217B307E407F50720F0BE
:1013C000A21BB30BE40BF50B661F771F881F991F39
:1013D0001A9469F760957095809590959B01AC0182
:1013E000BD01CF010895283008F027E03327DA0146
:1013F000990F311D87FD916000966105710539F4E3
:1014000032602E5F3D9330E32A95E1F708959F3FC8
:1014100030F080387105610509F03C5F3C5F3D9319
:10142000913008F08068911DDF93CF931F930F9345
:10143000FF92EF92192F987F9695E92F96959695A2
:10144000E90FFF27EF5AFE4F99273327EE24FF2499
:10145000A701E70105900894079428F4360FE71ECA
:10146000F81E491F511D660F771F881F991F06948C
:10147000A1F70590079428F4E70EF81E491F561FA0
:10148000C11D770F881F991F661F0694A1F705904D
:10149000079428F4F80E491F561FC71FD11D880F47
:1014A000991F661F771F0694A1F70590079420F4F3
:1014B000490F561FC71FD81F990F661F771F881F18
:1014C0000694A9F784911095177041F0D695C795A9
:1014D00057954795F794E7941A95C1F7E7EFF0E031
:1014E00068941590159135916591959105907FE2DD
:1014F0007395E118F10A430B560BC90BD009C0F7DD
:10150000E10CF11E431F561FC91FD01D7EF470331E
:1015100011F48A95E6CFE894015030F0080F0AF4F0
:101520000027021708F4202F2395022F7A3328F082
:1015300079E37D932A95E9F710C07D932A9589F682
:10154000069497956795379517951794E118F10AC2
:10155000430B560BC90BD00998F023957E917395D8
:101560007A3308F070E37C932013B8F77E917061B2
:101570007D9330F0839571E37D9370E32A95E1F7D5
:101580001124EF90FF900F911F91CF91DF91992738
:1015900087FD9095089591112EC1803219F08950E0
:1015A0008550D0F70895FC010590061621F0002023
:1015B000D9F7C00108953197CF010895FC01059036
:1015C000615070400110D8F7809590958E0F9F1F45
:1015D0000895FC016150704001900110D8F780958A
:1015E00090958E0F9F1F0895FB019F01E894423054
:1015F000C4F04532B4F44A3029F497FB1EF49095B8
:1016000081959F4F642F77270E940E0C805D8A334F
:101610000CF0895D8193CB010097A1F716F45DE290
:1016200051931082C9010C94FE0BCF93DF93EC0110
:101630004B8140FF1AC046FF0AC04F7B4B838E810F
:101640009F8101969F838E838A81282F2BC042FF22
:1016500013C0E881F9818081282F332727FD309539
:101660002115310529F440624B832FEF3FEF1BC05A
:101670003196F983E88311C0EA85FB85CE0109958F
:101680009C0197FF0AC09B812F5F3F4F11F080E2C2
:1016900001C080E1892B8B83E8CF8E819F810196E9
:1016A0009F838E8330E0C901DF91CF9108950F931E
:1016B0001F93CF93DF938C01EB018B8181FF1BC0C4
:1016C00082FF0DC02E813F818C819D8128173907B3
:1016D00064F4E881F9810193F983E88306C0E88521
:1016E000F985802F0995892B31F48E819F81019690
:1016F0009F838E8302C00FEF1FEFC801DF91CF9150
:101700001F910F9108959C01FB01838180FF11C0FF
:1017100086FD0FC09FEF2F3F390759F02283806469
:101720008F7D83838681978101979783868330E0BD
:1017300002C02FEF3FEFC9010895FA01AA27283010
:1017400051F1203181F1E8946F936E7F6E5F7F4F8E
:101750008F4F9F4FAF4FB1E03ED0B4E03CD0670F0A
:10176000781F891F9A1FA11D680F791F8A1F911D5D
:10177000A11D6A0F711D811D911DA11D20D009F4AD
:1017800068943F912AE0269F11243019305D3193EF
:10179000DEF6CF010895462F4770405D4193B3E0D8
:1017A0000FD0C9F7F6CF462F4F70405D4A3318F07F
:1017B000495D31FD4052419302D0A9F7EACFB4E030
:1017C000A6959795879577956795BA95C9F70097E8
:1017D0006105710508959B01AC010A2E0694579589
:1017E000479537952795BA95C9F7620F731F841FE0
:1017F000951FA01D0895992788270895DC01FC01F5
:10180000672F71917723E1F7329704C07C916D9334
:1018100070836291AE17BF07C8F30895AA1BBB1B64
:1018200051E107C0AA1FBB1FA617B70710F0A61BE0
:10183000B70B881F991F5A95A9F780959095BC0101
:08184000CD010895F894FFCFDB
:041848000D0A000085
:00000001FF
