:100000000C9416010C9435010C9435010C943501B7
:100010000C9435010C9435010C9435010C94350188
:100020000C9435010C9435010C9435010C94350178
:100030000C9435010C9435010C9435010C94350168
:100040000C9435010C9435010C9435010C94350158
:100050000C9435010C9435010C9435010C9442013B
:100060000C9435010C9435010C9435010C94350138
:100070000C9435010C9435010C9435010C94350128
:100080000C9435010C9435010C9435010C94A203A9
:100090000C9435010C9435010C9435010C94350108
:1000A0000C9435010C9435010C9435010C943501F8
:1000B0000C9435010C9435010C9435010C943501E8
:1000C0000C9435010C9435010C9435010C943501D8
:1000D0000C9435010C9435010C9435010C943501C8
:1000E0000C9435016364696E6F7073757858006E97
:1000F000616E00696E660000407A10F35A00A072CB
:100100004E18090010A5D4E80000E8764817000052
:10011000E40B54020000CA9A3B000000E1F5050020
:100120000080969800000040420F000000A0860169
:10013000000000102700000000E803000000006439
:1001400000000000000A00000000000100000000A4
:10015000002C76D888DC674F0823DFC1DFAE59E179
:10016000B1B796E5E3E453C63AE651997696E8E6E8
:10017000C28426EB898C9B62ED407C6FFCEFBC9CBB
:100180009F40F2BAA56FA5F490055A2AF75C936BCD
:100190006CF9676DC11BFCE0E40D47FEF520E6B588
:1001A00000D0ED902E0300943577050080841E0862
:1001B0000000204E0A000000C80C333333330F9880
:1001C0006E12831141EF8D2114893BE65516CFFE47
:1001D000E6DB18D1844B381BF77C1D901DA4BBE4D3
:1001E00024203284725E228100C9F124ECA1E53D15
:1001F00027494E46494E4954594E414ECDCCCC3DEF
:100200000AD7233C17B7D13877CC2B329595E62403
:100210001FB14F0A000020410000C84200401C46A8
:1002200020BCBE4CCA1B0E5AAEC59D7411241FBE05
:10023000CFEFD1E2DEBFCDBF13E0A0E0B2E0EEE051
:10024000F5E200E00BBF02C007900D92A636B107A1
:10025000D9F71BE0A6E6B3E001C01D92AF3BB107A2
:10026000E1F70E941B050C9485120C94000085B5E3
:10027000836085BDEEE6F0E08081816080837894C4
:1002800016BC08951F920F920FB60F9211242F9350
:100290003F938F939F93AF93BF93809178039091F7
:1002A0007903A0917A03B0917B0330917C0301968E
:1002B000A11DB11D232F2D5F2D3720F02D57019645
:1002C000A11DB11D20937C03809378039093790343
:1002D000A0937A03B0937B03809176039091770388
:1002E00001969093770380937603BF91AF919F918E
:1002F0008F913F912F910F900FBE0F901F901895E7
:100300008FB7F8948FBF60917803709179038091D3
:100310007A0390917B030895F894A89584B7877F1A
:1003200084BFE0E6F0E08081886180831082789469
:1003300008951092C50080E18093C400E1ECF0E0E4
:10034000808188618083E2ECF0E080818660808338
:100350000895982F8091C00085FFFCCF9093C60030
:1003600008958091C00087FFFCCF8091C60008955A
:1003700002C08091C6008091C00087FDFACF089529
:10038000FC0107C08091C00085FFFCCF9093C600A0
:10039000319690819923B1F78091C00085FFFCCF01
:1003A0008DE08093C6008091C00085FFFCCF8AE07D
:1003B0008093C60081E090E00895A0E0B0E08091D5
:1003C000C00087FFFCCF8091C6008D3049F0A33676
:1003D000B10531F0FD01E358FC4F80831196EFCF5A
:1003E000A358BC4F1C928DE793E008951092CD0066
:1003F00088E08093CC00E9ECF0E080818861808324
:10040000EAECF0E08081866080830895982F8091E7
:10041000C80085FFFCCF9093CE0008958091C8005E
:1004200087FFFCCF8091CE00089502C08091CE005E
:100430008091C80087FFFACF0895FC0107C0809122
:10044000C80085FFFCCF9093CE0031969081992310
:10045000B1F78091C80085FFFCCF8DE08093CE007E
:100460008091C80085FFFCCF8AE08093CE0081E0B8
:1004700090E00895E5ECF7E0A0E0B0E08091C800DE
:1004800087FFFCCF9091CE00948323812F3411F409
:100490009B3499F08081853451F48181823539F41F
:1004A0008281823521F42F3411F4923531F0119686
:1004B000319683E0A83EB80709F7A753B84F1196C5
:1004C0001C9289EC97E00895CF93DF9330E0C0E071
:1004D000D0E020E08091C80087FFFCCF9091CE0053
:1004E000933221F4213211F431E002C0332309F1B7
:1004F000FE01E753F84F908331972081233211F4A6
:100500009132E1F0DE01A753B84F14978C91149605
:10051000853471F4FD0133978081823549F4FD0102
:1005200032978081823521F42F3411F4923531F0E5
:100530002196292F83E0C83ED80764F2C753D84FCD
:10054000198289EC97E0DF91CF910895E1E2F1E023
:100550008081866080831092250110922401089585
:10056000AF92BF92CF92DF92EF92FF920F931F93C1
:10057000CF93DF9380919100856080939100E0900C
:100580003B03F0903C0300913D0310913E03C801F2
:10059000B7012FE335E346E850E40E94CA070E9402
:1005A0003208CB01EB01672B59F00F2EF0E0AF2E94
:1005B000F0E0BF2EF0E0CF2EF0E0DF2EF02D0AC0ED
:1005C0000F2EF0E0AF2EF0E0BF2EF0E8CF2EFFE3CD
:1005D000DF2EF02DBC0180E090E00E945E082FE34A
:1005E00035E346E850EC0E94EC089B01AC01C801E1
:1005F000B7010E94660720E034E244E75BE40E9412
:10060000EC0820E030E040E85AEB0E94EC0820E0E3
:100610003FEF4FE757E40E946607A60195010E944D
:10062000EC080E94320870939500609394008091CA
:10063000710081608093710078942197D093B20B00
:10064000C093B10BDF91CF911F910F91FF90EF906D
:10065000DF90CF90BF90AF9008950E948C01809161
:1006600021018660809321011092250110922401BE
:100670000E94B0020E9499010E94F60180E092E07F
:100680000E941D0280E29EE420E931E0F9013197E9
:10069000F1F70197D9F787E092E00E94C00180E16D
:1006A00092E00E941D0288EB9BE020E931E0F90115
:1006B0003197F1F70197D9F78CE192E00E94C001E0
:1006C00086E292E00E941D0288EB9BE020E931E087
:1006D000F9013197F1F70197D9F782E392E00E948F
:1006E000C0018CE392E00E941D0280E593EC20E9BA
:1006F00031E0F9013197F1F70197D9F780E00E94D5
:100700003A020E94C0018BE592E00E941D0288E837
:1007100093E120E931E0F9013197F1F70197D9F739
:1007200082E892E00E941D0288E893E120E931E02E
:10073000F9013197F1F70197D9F789EA92E00E9420
:10074000C00108951F920F920FB60F920BB60F9231
:100750001124AF92BF92CF92DF92EF92FF920F934C
:100760001F932F933F934F935F936F937F938F9339
:100770009F93AF93BF93CF93DF93EF93FF93E0905B
:100780003B03F0903C0300913D0310913E03C09168
:10079000B10BD091B20B209759F00F2EF0E0AF2E95
:1007A000F0E0BF2EF0E0CF2EF0E0DF2EF02D0AC0FB
:1007B0000F2EF0E0AF2EF0E0BF2EF0E8CF2EFFE3DB
:1007C000DF2EF02DC801B7012FE335E346E850E4F2
:1007D0000E94CA070E94320880E090E00E945E08F2
:1007E0002FE335E346E850EC0E94EC089B01AC0196
:1007F000C801B7010E94660720E034E244E75BE4E9
:100800000E94EC0820E030E040E85AEB0E94EC083F
:1008100020E03FEF4FE757E40E946607A6019501ED
:100820000E94EC080E943208709395006093940037
:10083000D7FF97C08FEA92E00E941D0202C080910C
:10084000CE008091C80087FFFACF6091240170919B
:10085000250180E090E00E945E0820913B033091EA
:100860003C0340913D0350913E030E94CA079B0107
:10087000AC012093B30B3093B40B4093B50B509362
:10088000B60B109225011092240146E023E007EBFD
:100890001BE00E94FF0C8091B80B80936003809155
:1008A000B90B809361038091BA0B809362038091AE
:1008B000BB0B809363031092640382EC92E00E946E
:1008C000C00180E493E00E94C00182EC92E00E94AB
:1008D000C0018DEC92E00E941D0280E00E943A026D
:1008E0000E94C00180E493E00E941D0280E00E940B
:1008F0003A020E94C0018091350390913603A09185
:100900003703B091380380933B0390933C03A0934B
:100910003D03B0933E038DED92E00E941D0280E006
:100920000E943A020E94C0018BE592E00E941D02E3
:1009300080E00E943A020E94C00160913B037091E6
:100940003C0380913D0390913E032FE335E346E85D
:1009500050E40E94CA070E9432087093B20B609361
:10096000B10B8091B10B9091B20B01979093B20BA8
:100970008093B10BFF91EF91DF91CF91BF91AF9138
:100980009F918F917F916F915F914F913F912F91A7
:100990001F910F91FF90EF90DF90CF90BF90AF909D
:1009A0000F900BBE0F900FBE0F901F901895FF92E7
:1009B0000F931F93DF93CF93CDB7DEB764970FB636
:1009C000F894DEBF0FBECDBFBC018E010F5F1F4F7D
:1009D000C8010E94330EC8016BEE72E00E941F0E28
:1009E00089EC97E06DEE72E00E941A0EF02E012F56
:1009F0000CC06F2D702F0E942A0E009741F080E0EE
:100A000090E06DEE72E00E941A0E009791F780E080
:100A100090E06DEE72E00E941A0E0E94200D649626
:100A20000FB6F894DEBF0FBECDBFCF91DF911F91FF
:100A30000F91FF900895CF93DF930E942D03C0E99B
:100A4000D1E08FEE92E00E941D0202C08091CE00A4
:100A50008091C80087FFFACF88EE93E0FE013197BE
:100A6000F1F70197D9F78FEF92E00E941D0280E025
:100A70000E9464020E94C00180E193E00E94C001D4
:100A800089EC97E00E94C00180E193E00E94C001E0
:100A900082E293E00E94D70460933503709336039B
:100AA000809337039093380387E293E00E941D02FE
:100AB00080E197E2FE013197F1F70197D9F782E8DB
:100AC00092E00E941D0288E893E1FE013197F1F760
:100AD0000197D9F7B6CFFC0120FD08C023FD05C062
:100AE00022FF02C073836283518340830895EF9293
:100AF000FF920F931F9344FF02C033E011C046FFE3
:100B000002C034E00DC0DB01FC01AA0FBB1FEE1FC9
:100B1000FF1F1094D1F76A0F7B1F8E1F9F1F31E0BC
:100B2000660F771F881F991F3150D1F77B018C0109
:100B3000E20EF11C011D111DA8019701B701CA01A8
:100B40001F910F91FF90EF9008950F931F93CF93F4
:100B5000DF938C01C8010E946C0EEC0197FD08C068
:100B60000E94FC0D892BB1F7CE01B8010E94DA0E6C
:100B7000CE01DF91CF911F910F910895AF92BF9257
:100B8000CF92DF92EF92FF920F931F93CF93DF9359
:100B9000EC01C62E5A01122F0E946C0EAC018B3252
:100BA00019F08D3251F41068CA9409F46DC0CE0169
:100BB0000E946C0EAC0197FD67C06DEFD62ED1225E
:100BC0008D2D807301F54033F1F4CA9409F447C0C8
:100BD000CE010E946C0EAC0197FD41C082E0D82A84
:100BE000483711F0483559F480E4D82ACA94B9F14D
:100BF000CE010E946C0EAC0199232CF430C0D6FCBF
:100C000002C080E1D82AEE24FF248701242F20533C
:100C1000283088F0D4FC09C02A3068F0D6FE05C020
:100C20002F7D822F8151863028F0CA01BE010E949B
:100C3000DA0E12C02750C801B7014D2D0E9477056A
:100C40007B018C0182E0D82ACA9461F0CE010E9417
:100C50006C0EAC0197FFDACFD1FC04C015C0EE24B6
:100C6000FF248701D7FE08C010950095F094E0940A
:100C7000E11CF11C011D111DC501B801A7012D2D9D
:100C80000E946B0581E001C080E0DF91CF911F9150
:100C90000F91FF90EF90DF90CF90BF90AF900895AD
:100CA0006F927F928F929F92AF92BF92CF92DF927C
:100CB000EF92FF920F931F93CF93DF935C016B0131
:100CC0003A01FC01178216828824DCC0812F90E053
:100CD0000E94FC0D892B21F0C5010E94A505D2C000
:100CE000153249F4F601F3FC6591F3FE61916F0151
:100CF000653269F415E2C5010E946C0E97FDCEC005
:100D0000181709F4BFC0B5010E94DA0ECCC06A32D0
:100D100019F0162F00E006C0F3FC1591F3FE1191B7
:100D20006F0101E099240FC00260692D70E080E03E
:100D300090E040E20E947705962EF601F3FC1591B3
:100D4000F3FE11916F01212F20532A3068F301FD2A
:100D500003C099249A9403C0992009F4A4C01836BA
:100D600021F01C3691F4F6010AC0F601F3FC6591FE
:100D7000F3FE6191683611F0162F06C0086004601A
:100D8000F3FC1591F3FE11916F01112309F48BC04F
:100D900084EE90E0612F70E00E94040E892B09F42C
:100DA00082C0802F00FF03C0EE24FF2407C0F301A0
:100DB000E080F18022E030E0620E731E1E3651F4B6
:100DC000F5014681578160E070E0C701202F0E9445
:100DD0006B0558C0133691F481FD02C09924939499
:100DE000C5010E946C0E97FD59C0E114F10419F081
:100DF000F70181937F019A9499F742C0C5010E943F
:100E0000A50597FD4BC01F3659F1103728F414364D
:100E100029F1193639F527C0133719F0153711F5AF
:100E20001DC0C5010E946C0EEC0197FD11C00E940F
:100E3000FC0D892B29F0CE01B5010E94DA0E08C005
:100E4000E114F10419F0F701C1937F019A9449F775
:100E5000E114F104A9F0F701108212C0006203C08E
:100E6000006101C00064C501692DA701202F0E9407
:100E7000BE05882329F4F5018381807379F413C0BA
:100E800000FF8394F501F380F601F3FC1591F3FE66
:100E900011916F01112309F019CF05C0882019F4B1
:100EA0002FEF3FEF02C0282D30E0C901DF91CF9135
:100EB0001F910F91FF90EF90DF90CF90BF90AF9078
:100EC0009F908F907F906F9008955058BB27AA27CE
:100ED0000ED048C139D130F03ED120F031F49F3FDF
:100EE00011F41EF42EC10EF4E095E7FB24C1E92FA6
:100EF0004AD180F3BA17620773078407950718F081
:100F000071F49EF562C10EF4E0950B2EBA2FA02D60
:100F10000B01B90190010C01CA01A0011124FF27A6
:100F2000591B99F0593F50F4503E68F11A16F040A1
:100F3000A22F232F342F4427585FF3CF46953795A0
:100F40002795A795F0405395C9F77EF41F16BA0B65
:100F5000620B730B840BBAF09150A1F0FF0FBB1F13
:100F6000661F771F881FC2F70EC0BA0F621F731F5C
:100F7000841F48F4879577956795B795F7959E3FB9
:100F800008F0B3CF9395880F08F09927EE0F979547
:100F9000879508950CD0E6C0DED040F0D5D030F073
:100FA00021F45F3F19F0C7C0511110C1CAC0EBD086
:100FB00098F39923C9F35523B1F3951B550BBB2720
:100FC000AA2762177307840738F09F5F5F4F220FCD
:100FD000331F441FAA1FA9F333D00E2E3AF0E0E8C6
:100FE00030D091505040E695001CCAF729D0FE2F12
:100FF00027D0660F771F881FBB1F261737074807A4
:10100000AB07B0E809F0BB0B802DBF01FF27935859
:101010005F4F2AF09E3F510568F08DC0D7C05F3FFB
:10102000ECF3983EDCF3869577956795B795F79541
:101030009F5FC9F7880F911D9695879597F9089539
:10104000E1E0660F771F881FBB1F621773078407D5
:10105000BA0720F0621B730B840BBA0BEE1F88F7E4
:10106000E095089598D088F09F5790F0B92F992770
:10107000B751A0F0D1F0660F771F881F991F1AF0A3
:10108000BA95C9F712C0B13081F09FD0B1E0089590
:101090009CC0672F782F8827B85F39F0B93FCCF311
:1010A000869577956795B395D9F73EF49095809599
:1010B000709561957F4F8F4F9F4F0895E89409C0B9
:1010C00097FB3EF490958095709561957F4F8F4F7B
:1010D0009F4F9923A9F0F92F96E9BB279395F69591
:1010E000879577956795B795F111F8CFFAF4BB0F0F
:1010F00011F460FF1BC06F5F7F4F8F4F9F4F16C073
:10110000882311F096E911C0772321F09EE8872FFC
:10111000762F05C0662371F096E8862F70E060E0B8
:101120002AF09A95660F771F881FDAF7880F969531
:10113000879597F9089597F99F6780E870E060E0D8
:1011400008959FEF80EC089500240A941616170660
:1011500018060906089500240A94121613061406A8
:1011600005060895092E0394000C11F4882352F00B
:10117000BB0F40F4BF2B11F460FF04C06F5F7F4FC3
:101180008F4F9F4F089557FD9058440F551F59F0AA
:101190005F3F71F04795880F97FB991F61F09F3F64
:1011A00079F087950895121613061406551FF2CF8D
:1011B0004695F1DF08C0161617061806991FF1CFDD
:1011C00086957105610508940895E894BB27662704
:1011D0007727CB0197F908950BD0C4CFB5DF28F05E
:1011E000BADF18F0952309F0A6CFABCF1124EECFCC
:1011F000CADFA0F3959FD1F3950F50E0551F629F72
:10120000F001729FBB27F00DB11D639FAA27F00D5F
:10121000B11DAA1F649F6627B00DA11D661F829F86
:101220002227B00DA11D621F739FB00DA11D621F6B
:10123000839FA00D611D221F749F3327A00D611D88
:10124000231F849F600D211D822F762F6A2F11246A
:101250009F5750408AF0E1F088234AF0EE0FFF1FBD
:10126000BB1F661F771F881F91505040A9F79E3FF4
:10127000510570F060CFAACF5F3FECF3983EDCF3EE
:10128000869577956795B795F795E7959F5FC1F731
:10129000FE2B880F911D9695879597F908952F92AB
:1012A0003F924F925F926F927F928F929F92AF92F6
:1012B000BF92CF92DF92EF92FF920F931F93DF9333
:1012C000CF93CDB7DEB761970FB6F894DEBF0FBEF0
:1012D000CDBF3C017F876E876A01FC0117821682B1
:1012E000838181FD03C06FEF7FEF6FC39E012F5F8E
:1012F0003F4F398B288BF3012381EE85FF8523FD3A
:10130000859123FF8191FF87EE87882309F45AC3D3
:10131000853251F4EE85FF8523FD859123FF819170
:10132000FF87EE87853229F490E0B3010E94AE0E6C
:10133000E2CF982F10E0882499241032B0F49B3229
:1013400069F09C3228F4903251F0933271F40BC062
:101350009D3239F0903349F4116028C01260146056
:1013600025C0186023C0106121C017FD2AC0892F35
:1013700080538A3078F416FF06C0FAE09F9E902CC6
:101380001124980E13C03AE0839E802C1124880EFD
:1013900010620CC09E3221F416FD14C3106406C006
:1013A0009C3611F4106802C0983659F4EE85FF851A
:1013B00023FD959123FF9191FF87EE87992309F0F3
:1013C000BCCF892F8554833020F4812F8061905EBB
:1013D00007C0892F8556833008F09FC1812F8F7EEB
:1013E00086FD02C076E0972E6FE3F62EF822953642
:1013F00019F4F0E4FF2A07C0963619F420E8F22A1F
:1014000002C091109A94F7FE0AC03BE3391518F414
:101410005CE3B52E02C0B92CB39427E009C047E0C5
:10142000491520F4BB2447E0942EF7CF292DBB2487
:10143000C60104969D878C87F60160817181828147
:101440009381AE014F5F5F4F0B2D0E94240D6C0105
:101450000981202E332400FF04C003FD02C01DE2D9
:1014600009C0F1FE02C01BE205C0F2FC02C010E0A0
:1014700001C010E2C1018C709070892BB9F1112369
:1014800011F483E001C084E0881510F088240AC0BC
:10149000881AF3FC07C080E290E0B3010E94AE0E10
:1014A0008A94C9F7112329F0812F90E0B3010E949B
:1014B000AE0E23FE03C00FEE10E00EC003EF10E0EF
:1014C0000BC0E114F10409F0805290E0B3010E94D6
:1014D000AE0E0F5F1F4F05C0EF2CFF24F0E1EF228F
:1014E000FF24F8018491882361F714C1F7FE12C02C
:1014F000BC0C24FE04C08A81813309F4BA941B1405
:101500001CF0BB24B3942DC0F8E0FB1550F538E077
:10151000B32E27C0F6FC25C0892D90E08C159D05C3
:101520004CF02CEFC2162FEFD20624F030E8F32A4D
:1015300001C09A94992049F0E2E0F0E0EC0FFD1F21
:10154000E90DF11D80818033A1F3F7FE0AC0B92CAB
:10155000B394892D90E0C816D90614F0992401C0DF
:101560009C18F7FC03C025E030E009C01C141D04E2
:101570001CF021E030E003C096012F5F3F4F1123A4
:1015800011F02F5F3F4F992029F0892D90E00196AF
:10159000280F391F882D90E02817390714F0882468
:1015A00001C0821A4F2C5524C20189709070892B7A
:1015B00039F008C080E290E0B3010E94AE0E8A9438
:1015C0008820C1F7112329F0812F90E0B3010E94F8
:1015D000AE0E43FE07C008C080E390E0B3010E9456
:1015E000AE0E8A948820C1F7F7FE46C08601D7FE6A
:1015F00002C000E010E076010894E11CF11CE01A42
:10160000F10A41E050E04C0F5D1FE40EF51E26018B
:101610004B185108892D90E0AA24BB24A81AB90AB6
:101620005FEF0F3F150729F48EE290E0B3010E94AF
:10163000AE0EC016D10634F0401651061CF4F70168
:10164000808101C080E3015010400894E11CF11C2E
:101650000A151B052CF090E0B3010E94AE0EE0CFFE
:101660000C151D0539F49A81963318F4953311F44D
:1016700024FE81E390E04BC08A81813309F00F7E24
:1016800090E0B3010E94AE0E9920A1F08EE290E0AE
:10169000B3010E94AE0E12E0E1E0F0E0EC0FFD1F9E
:1016A000E10FF11D1F5F808190E0B3010E94AE0E3B
:1016B0009A9491F744FC03C085E690E002C085E46B
:1016C00090E0B3010E94AE0ED7FC05C0C114D10456
:1016D00041F404FF06C0D094C194D108D3948DE2A4
:1016E00001C08BE290E0B3010E94AE0E80E305C022
:1016F0008F5F26EF3FEFC20ED31E3AE0C316D10430
:10170000BCF790E0B3010E94AE0EC601C096B301D3
:101710000E94AE0ECC84DD8452C1933631F09337F3
:1017200099F0933509F059C023C0F601808189836F
:101730005E010894A11CB11C22E030E0C20ED31E51
:1017400021E0E22EF12C12C0F601A080B18016FD3E
:1017500003C06FEF7FEF02C0692D70E022E030E040
:10176000C20ED31EC5010E943A0E7C011F7713C022
:10177000F601A080B18016FD03C06FEF7FEF02C0BD
:10178000692D70E022E030E0C20ED31EC5010E9438
:101790000F0E7C01106813FF07C01BC080E290E0B1
:1017A000B3010E94AE0E8A94882D90E0E816F906E7
:1017B000A8F30FC0F50117FD859117FF81915F0117
:1017C00090E0B3010E94AE0E81108A940894E10863
:1017D000F108E114F10471F7F2C0943611F0993672
:1017E00089F517FF08C0F6012081318142815381BC
:1017F00084E090E00AC0F601808191819C01442739
:1018000037FD4095542F82E090E0C80ED91E9FE628
:10181000F92EF12257FF09C050954095309521953A
:101820003F4F4F4F5F4F90E8F92ACA01B901AE010F
:101830004F5F5F4F2AE030E00E94F40EE82EE88907
:10184000EE1A41C0953721F41F7E2AE030E01CC01B
:10185000197F9F3661F0903720F4983509F0B2C0B7
:101860000FC0903739F0983709F0ACC004C028E0B9
:1018700030E00AC0106114FD146020E130E004C0C3
:1018800014FD166020E132E017FF08C0F601608108
:1018900071818281938144E050E008C0F60180812B
:1018A0009181BC0180E090E042E050E0C40ED51E82
:1018B000AE014F5F5F4F0E94F40EE82E5889E51A83
:1018C0008FE7F82EF122F6FE0BC08EEFF822E91416
:1018D00038F4F4FE07C0F2FC05C09FEEF92202C006
:1018E0001E2D01C0192DF4FE0DC0FE01EE0DF11DDF
:1018F0008081803319F4E9EEFE2208C01F5FF2FEFA
:1019000005C003C08F2D867809F01F5F0F2DF3FCF3
:1019100014C0F0FE0FC0181510F09E2C0BC09E2CAA
:10192000980C911A182D06C080E290E0B3010E9435
:10193000AE0E1F5F1815C0F304C0181510F4811AFD
:1019400001C0882404FF0FC080E390E0B3010E942F
:10195000AE0E02FF1DC001FD03C088E790E00EC07F
:1019600088E590E00BC0802F867891F001FF02C0DF
:101970008BE201C080E2F7FC8DE290E0B3010E94AF
:10198000AE0E06C080E390E0B3010E94AE0E9A94C2
:10199000E914C0F3EA94E1E0F0E0EC0FFD1FEE0D76
:1019A000F11D808190E0B3010E94AE0EEE2091F710
:1019B00006C080E290E0B3010E94AE0E8A948820B7
:1019C000C1F799CCF30166817781CB0161960FB69F
:1019D000F894DEBF0FBECDBFCF91DF911F910F9165
:1019E000FF90EF90DF90CF90BF90AF909F908F903F
:1019F0007F906F905F904F903F902F900895EF925F
:101A0000FF920F931F93F22FF02E47FD02C0E4E0E8
:101A100001C0E4E1242F332727FD309537FF03C0B1
:101A2000309521953F4F4F2D512F0F2FEE2E0E94B5
:101A3000520F8F2D912F1F910F91FF90EF900895CE
:101A4000662777270C94D410283008F027E0332736
:101A5000DA01990F311D87FD9160009661057105CE
:101A600039F432602E5F3D9330E32A95E1F7089513
:101A70009F3F30F080387105610509F03C5F3C5FA5
:101A80003D93913008F08068911DDF93CF931F93B1
:101A90000F93FF92EF92192F987F9695E92F9695C5
:101AA0009695E90FFF27EF5AFE4F99273327EE242B
:101AB000FF24A701E70105900894079428F4360F46
:101AC000E71EF81E491F511D660F771F881F991FBB
:101AD0000694A1F70590079428F4E70EF81E491F15
:101AE000561FC11D770F881F991F661F0694A1F707
:101AF0000590079428F4F80E491F561FC71FD11DE3
:101B0000880F991F661F771F0694A1F70590079409
:101B100020F4490F561FC71FD81F990F661F771F44
:101B2000881F0694A9F784911095177041F0D695F7
:101B3000C79557954795F794E7941A95C1F7E7EF3E
:101B4000F0E0689415901591359165919591059007
:101B50007FE27395E118F10A430B560BC90BD009CC
:101B6000C0F7E10CF11E431F561FC91FD01D7EF4A4
:101B7000703311F48A95E6CFE894015030F0080FE5
:101B80000AF40027021708F4202F2395022F7A3336
:101B900028F079E37D932A95E9F710C07D932A9583
:101BA00089F6069497956795379517951794E118D8
:101BB000F10A430B560BC90BD00998F023957E917F
:101BC00073957A3308F070E37C932013B8F77E9115
:101BD00070617D9330F0839571E37D9370E32A9576
:101BE000E1F71124EF90FF900F911F91CF91DF91BA
:101BF000992787FD90950895911144C4803219F07A
:101C000089508550D0F70895FC010590061621F003
:101C10000020D9F7C00108953197CF010895FC0144
:101C20000590615070400110D8F7809590958E0F07
:101C30009F1F08954BEB5BE00E94450E0895FB014A
:101C4000DC010D900020E9F7119701900D92002022
:101C5000E1F70895FB01DC018D91019080190110DD
:101C6000D9F3990B0895FB01DC0101900D9200203E
:101C7000E1F70895FC016150704001900110D8F720
:101C8000809590958E0F9F1F0895FA01A191B081C4
:101C9000009719F41097E1F0CD01DC01CD010D9012
:101CA000002011F4C00113C0FB012191222319F07F
:101CB0002015D9F7F3CFFB012191201519F41E92BD
:101CC000119606C02223C1F70D900020A1F7D00184
:101CD000FA01A193B0830895CF93DF93EC014B8178
:101CE00040FF1AC046FF0AC04F7B4B838E819F8105
:101CF00001969F838E838A81282F2BC042FF13C0B9
:101D0000E881F9818081282F332727FD309521151F
:101D1000310529F440624B832FEF3FEF1BC0319612
:101D2000F983E88311C0EA85FB85CE0109959C0102
:101D300097FF0AC09B812F5F3F4F11F080E201C0E7
:101D400080E1892B8B83E8CF8E819F8101969F83D1
:101D50008E8330E0C901DF91CF9108950F931F93D7
:101D6000CF93DF938C01EB018B8181FF1BC082FF3E
:101D70000DC02E813F818C819D812817390764F425
:101D8000E881F9810193F983E88306C0E885F98544
:101D9000802F0995892B31F48E819F8101969F8335
:101DA0008E8302C00FEF1FEFC801DF91CF911F910B
:101DB0000F9108959C01FB01838180FF11C086FD76
:101DC0000FC09FEF2F3F390759F0228380648F7D2A
:101DD00083838681978101979783868330E002C051
:101DE0002FEF3FEFC9010895FA01AA27283051F1DA
:101DF000203181F1E8946F936E7F6E5F7F4F8F4F3C
:101E00009F4FAF4FB1E03ED0B4E03CD0670F781F9A
:101E1000891F9A1FA11D680F791F8A1F911DA11D7F
:101E20006A0F711D811D911DA11D20D009F46894B8
:101E30003F912AE0269F11243019305D3193DEF660
:101E4000CF010895462F4770405D4193B3E00FD016
:101E5000C9F7F6CF462F4F70405D4A3318F0495D01
:101E600031FD4052419302D0A9F7EACFB4E0A695E4
:101E70009795879577956795BA95C9F70097610506
:101E8000710508959B01AC010A2E0694579547955C
:101E900037952795BA95C9F7620F731F841F951F51
:101EA000A01D08956F927F928F929F92AF92BF92E2
:101EB000CF92DF92EF92FF920F931F93DF93CF9316
:101EC000CDB7DEB729970FB6F894DEBF0FBECDBFF2
:101ED0006A01122FA02EBE2C2BE3201718F42CE33E
:101EE000922E02C0902E9394AE014F5F5F4F27E079
:101EF000092D0E94240DBC018981E82EFF24C70111
:101F000089709070019711F4ADE209C0B1FE02C072
:101F1000ABE205C0B0FC02C0A0E001C0A0E2E3FE5D
:101F20003BC0AA2311F423E001C024E0211710F0E4
:101F300020E002C0121B212FEB2CB4FE02C0322F76
:101F40000AC0F601322F80E202C081933150332360
:101F5000E1F7C20ED11CAA2319F0F601A1936F017B
:101F6000F6013196E2FE05C09EE4D6019C9381E421
:101F700004C09EE6D6019C9381E611968C939183D2
:101F80003296DF01832F90E202C09D938150882317
:101F9000E1F7E30FF11D40C0E2FE42C0AA2311F4B5
:101FA00023E001C024E0211710F020E002C0121B42
:101FB000212FEB2CB4FE02C0922F0AC0F601922F03
:101FC00080E202C0819391509923E1F7C20ED11CA7
:101FD000AA2319F0F601A1936F01F6013196E2FEF2
:101FE00008C089E4D6018C938EE411968C9386E424
:101FF00007C089E6D6018C938EE611968C9386E60F
:1020000081833296DF01892F20E202C02D93815017
:102010008823E1F7E90FF11D10822EEF3FEFAEC0EC
:10202000161617061CF041E050E003C0AB014F5FED
:102030005F4FAA2019F480E090E003C08A2D90E061
:10204000019620E030E0AA2311F021E030E0240FD7
:10205000351F280F391F812F90E02817390714F0FA
:1020600020E002C0121B212F4B2D50E0CA018071CD
:102070009070B4FC0DC0B3FC0BC0F601322F40E2EF
:1020800002C0419331503323E1F7C20ED11C01C08D
:10209000322FAA2319F0F601A1936F01892B11F0B9
:1020A000132F0AC0F601132F80E302C08193115051
:1020B0001123E1F7C30ED11C092D060FBA8090E160
:1020C000892E912C8E209F20E4FE04C0F1E3BF16E0
:1020D00009F40150101614F001E003C0093008F0B3
:1020E00008E09B0177FF02C020E030E0CB010196C1
:1020F000821B930BFE013196E80FF91F8EE2F82E3A
:102100003B01601A71088A2D90E044275527481B2F
:10211000590B8FEF2F3F380719F4D601FD926D014F
:10212000621773072CF06216730614F4808101C0E5
:1021300080E32150304031962417350724F0D60132
:102140008D936D01E6CF2617370741F4B5E3BB1534
:1021500020F0BB1619F4892809F481E3F601819374
:10216000D601812F90E202C09C9381501196882362
:10217000D9F7E10FF11D108220E030E0C901299666
:102180000FB6F894DEBF0FBECDBFCF91DF911F9188
:102190000F91FF90EF90DF90CF90BF90AF909F9006
:1021A0008F907F906F9008958F929F92AF92BF9281
:1021B000CF92DF92EF92FF920F931F93CF93DF9313
:1021C000EC015B016115710519F0FB0191838083BE
:1021D000F9908F2D90E00E94FC0D892BC9F7FDE24C
:1021E000FF1621F4F990EE24E39405C02BE2F216D9
:1021F00009F4F990EE248E0101501040C80161EFFE
:1022000071E043E050E00E944512892B01F58E01F8
:102210000E5F1F4FC80164EF71E045E050E00E947F
:102220004512892B19F48E01095F1F4FA114B104C7
:1022300019F0F50111830083E0FC04C070E090E028
:1022400080E814C070E090E080E86FEF08C1C8013A
:1022500069EF71E043E050E00E944512892B69F478
:10226000A114B10429F470E090E080EC6FE7F7C0AE
:102270002296F501D183C083F6CF8824992440E0CB
:1022800050E060E070E0EF2DE053EA30A0F5F2E0BE
:10229000EF2A8E2D90E09C0128703070E2FE06C07F
:1022A000232B79F50894811C911C2BC0232B19F04A
:1022B000089481089108DB01CA0112E0880F991F78
:1022C000AA1FBB1F1A95D1F7480F591F6A1F7B1F02
:1022D000440F551F661F771F4E0F511D611D711D45
:1022E000483929E9520729E9620729E1720748F0CC
:1022F00084E0E82A06C0EE3F31F4E3FC39C098E000
:10230000E92AF990C0CFE53311F0E53189F529913B
:102310002D3219F4E0E1EE2A05C02B3219F081E0EC
:1023200090E003C0299182E090E0E22FE053EA3090
:1023300018F0C81BD90B1CC020E030E0FCE02038AE
:102340003F075CF4C901880F991F880F991F280F58
:10235000391F220F331F2E0F311DE991E053EA3050
:1023600068F3E4FE03C0309521953F4F820E931E23
:10237000CE2CDD24E1FE07C0A114B10421F0219789
:10238000F501D183C083CB01BA010E945E087B01B5
:102390008C01F3E0CF22DD2423E0C216D10421F426
:1023A00017FB109517F9109557016801C801B7017F
:1023B00020E030E040E050E00E945D12882309F404
:1023C0004AC097FE0DC020E1E22E22E0F22E90944A
:1023D000819491089394C0E2D0E000E010E012C034
:1023E00098E2E92E92E0F92EF6CFF701259135918A
:1023F00045915491C601B5010E94EC085B016C0146
:102400008C1A9D0A8C169D0684F7D595C7950F5F8B
:102410001F4F0630110529F08CEF9FEFE80EF91ED3
:10242000F1CFC501D6017C018D018C2D880F8D2D3A
:10243000881F8F3F51F0C601B50120E030E040E039
:1024400050E00E945D12882331F482E290E0909384
:10245000BE0B8093BD0B7E2D9F2D802F612F272FCC
:10246000392F482F562FB901CA01DF91CF911F9103
:102470000F91FF90EF90DF90CF90BF90AF909F9023
:102480008F900895992788270895FB01DC0141501A
:10249000504088F08D9181341CF08B350CF4805EB7
:1024A000659161341CF06B350CF4605E861B611124
:1024B00071F3990B0895881BFCCF03D008F481E0D9
:1024C0000895990F0008550FAA0BE0E8FEEF1616C5
:1024D0001706E807F907C0F012161306E407F50718
:1024E00098F0621B730B840B950B39F40A2661F08C
:1024F000232B242B252B21F408950A2609F4A1402F
:0E250000A6958FEF811D811D0895F894FFCFE1
:10250E0041542B525354005245534554204F4B00C7
:10251E0041542B4349504D55583D31004349504D80
:10252E005558204F4B0041542B43574D4F44453D7A
:10253E00310043574D4F4445204F4B0041542B43E0
:10254E00574A41503D2261746C61736777222C2289
:10255E0053694C6162614C6953220041542B4349CB
:10256E005053544152543D342C22544350222C2269
:10257E003139322E3136382E312E323132222C383C
:10258E00300041542B43495053544152543D332C47
:10259E0022544350222C223139322E3136382E31EC
:1025AE002E323132222C383000726561647900B7D8
:1025BE00B7B7B7B7B7B7B7B7B7B7B7B7B7B7B7B79D
:1025CE00B7002D2D2D2D2D2D2D2D2D2D0041542BC4
:1025DE0043495053454E443D342C33380041542B1F
:1025EE00434950434C4F53453D34003A002000417F
:1025FE00542B43495053454E443D332C31380047FC
:10260E004554202F676574646174612E7068700084
:10261E002D2D2D2D2D2D2D2D2D2D2D2D2D2D2D2DDC
:10262E002D00676174650041542B434950434C4F54
:10263E0053453D33000000A041FFFF0000A04101C3
:10264E00474554202F73746F72652E7068703F6605
:10265E0069656C643D667265712676616C75653D63
:06266E0000000000000066
:00000001FF
