:100000000C94F9000C9418010C9418010C9418012C
:100010000C9418010C9418010C9418010C941801FC
:100020000C9418010C9418010C9418010C941801EC
:100030000C9418010C9418010C9418010C941801DC
:100040000C9418010C9418010C9418010C941801CC
:100050000C9418010C9418010C9418010C941801BC
:100060000C9418010C9482020C94B2020C941801A6
:100070000C9418010C9418010C9418010C9418019C
:100080000C9418010C9418010C9418010C9418018C
:100090000C9466030C9496030C9418010C941801AC
:1000A0000C9418010C9418010C9418010C9418016C
:1000B0000C9418010C9418010C9418010C9418015C
:1000C0000C9418010C9418010C9418010C9418014C
:1000D0000C9418010C9418010C9418010C9418013C
:1000E0000C9418016364696E6F7073757858006EB4
:1000F000616E00696E660000407A10F35A00A072CB
:100100004E18090010A5D4E80000E8764817000052
:10011000E40B54020000CA9A3B000000E1F5050020
:100120000080969800000040420F000000A0860169
:10013000000000102700000000E803000000006439
:1001400000000000000A00000000000100000000A4
:10015000002C76D888DC674F0823DFC1DFAE59E179
:10016000B1B796E5E3E453C63AE651997696E8E6E8
:10017000C28426EB898C9B62ED407C6FFCEFBC9CBB
:100180009F40F2BAA56FA5F490055A2AF75C936BCD
:100190006CF9676DC11BFCE0E40D47FEF520E6B588
:1001A00000D0ED902E0300943577050080841E0862
:1001B0000000204E0A000000C80C333333330F9880
:1001C0006E12831141EF8D2114893BE65516CFFE47
:1001D000E6DB18D1844B381BF77C1D901DA4BBE4D3
:1001E00024203284725E228100C9F124ECA1E53D15
:1001F000270011241FBECFEFD1E2DEBFCDBF12E03A
:10020000A0E0B2E0EEE0F5E200E00BBF02C0079034
:100210000D92A430B107D9F716E0A4E0B2E001C016
:100220001D92A538B107E1F70E941A010C948512BE
:100230000C9400002F923F924F925F926F927F92A8
:100240008F929F92AF92BF92CF92DF92EF92FF92E6
:100250000F931F93DF93CF93CDB7DEB7AE970FB653
:10026000F894DEBF0FBECDBF1A8219821C821B829A
:100270001E821D8218861F821A8619861C861B867E
:1002800080E090E0A0E0B0E08D879E87AF87B88BDC
:10029000898B9A8BAB8BBC8B8D8B9E8BAF8BB88FE6
:1002A000898F9A8FAB8FBC8F8D8F9E8FAF8FB8A3A6
:1002B00089A39AA3ABA3BCA30E94E00278940E94F6
:1002C0006C0684ED90E30197F1F785E1482E512CFF
:1002D0004C0E5D1E09E1202E312C2C0E3D1E1DE121
:1002E000612E712C6C0E7D1EB1E28B2E912C8C0E2A
:1002F0009D1EA5E2CA2ED12CCC0EDD1EF9E1AF2E3B
:10030000B12CCE010196BE016D5F7F4FAE014B5FF8
:100310005F4F9E01295F3F4F8E01075F1F4FEBE04C
:10032000EE2EF12CEC0EFD1E0E94A604CE010D96C1
:10033000BE016F5E7F4FA2019101830174010E9493
:10034000110569817A81882777FD8095982FA6010C
:100350002AE030E00E94B40F80E20E941503C6013B
:100360000E942B0380E20E9415036B817C81882709
:1003700077FD8095982FA6012AE030E00E94B40F07
:1003800080E20E941503C6010E942B0380E20E94B6
:1003900015036D817E81882777FD8095982FA601B2
:1003A0002AE030E00E94B40F80E20E941503C601EB
:1003B0000E942B0380E20E9415036F8178858827B5
:1003C00077FD8095982FA6012AE030E00E94B40FB7
:1003D00080E20E941503C6010E942B0380E20E9466
:1003E000150369857A85882777FD8095982FA60162
:1003F0002AE030E00E94B40F80E20E941503C6019B
:100400000E942B0380E20E9415036B857C85882760
:1004100077FD8095982FA6012AE030E00E94B40F66
:1004200080E20E941503C6010E942B0380E20E9415
:10043000150380E092E00E942B036D857E858F85F9
:10044000988943E025E086010E94920EC6010E9431
:100450002B0380E20E94150369897A898B899C8924
:1004600043E025E00E94920EC6010E942B0380E229
:100470000E9415036D897E898F89988D43E025E060
:100480000E94920EC6010E942B0380E20E94150377
:10049000698D7A8D8B8D9C8D43E025E00E94920EB4
:1004A000C6010E942B0380E20E9415036D8D7E8D94
:1004B0008F8D98A143E025E00E94920EC6010E9414
:1004C0002B0380E20E94150369A17AA18BA19CA154
:1004D00043E025E00E94920EC6010E942B0380E2B9
:1004E0000E94150380E092E00E942B0380E092E0DE
:1004F0000E942B0380E197E2F5013197F1F7019714
:10050000D9F7FFCE1F920F920FB60F920BB60F9234
:1005100011242F938F939F93EF93FF939091C0009B
:100520002091C600E0914602EF5FEF718091470293
:10053000E81711F482E008C0892F8871E093460221
:10054000F0E0EC5DFD4F208380934802FF91EF9136
:100550009F918F912F910F900BBE0F900FBE0F9018
:100560001F9018951F920F920FB60F920BB60F9215
:1005700011248F939F93EF93FF9390914402809166
:100580004502981769F0E0914502EF5FEF71E09343
:100590004502F0E0EC5FFD4F80818093C60005C00E
:1005A0008091C1008F7D8093C100FF91EF919F9159
:1005B0008F910F900BBE0F900FBE0F901F9018954C
:1005C0001092440210924502109246021092470285
:1005D0001092C50080E18093C400E1ECF0E08081DE
:1005E00088618083E2ECF0E08081866080830895FA
:1005F0009091460280914702981719F420E031E06B
:1006000012C0E0914702EF5FEF71E0934702F0E024
:10061000EC5DFD4F308120914802922F80E0AC01CB
:10062000430F511D9A01C9010895282F909144024A
:100630009F5F9F71809145029817E1F3E92FF0E0E9
:10064000EC5FFD4F2083909344028091C100806253
:100650008093C1000895CF93DF93EC0103C02196EE
:100660000E94150388818823D1F7DF91CF910895E7
:10067000CF93DF93EC0102C00E941503FE01219687
:1006800084918823C9F7DF91CF9108958091C000AC
:1006900087FFFCCF8091C6000895A0E0B0E005C0C0
:1006A000FD01E257FD4F808311968091C00087FFC6
:1006B000FCCF8091C6008D3019F0A336B10581F7CB
:1006C000A257BD4F1C928EE892E008951F920F92A0
:1006D0000FB60F920BB60F9211242F938F939F9307
:1006E000EF93FF939091C8002091CE00E0918B0290
:1006F000EF5FEF7180918C02E81711F482E008C07F
:10070000892F8871E0938B02F0E0E759FD4F208339
:1007100080938D02FF91EF919F918F912F910F9078
:100720000BBE0F900FBE0F901F9018951F920F9247
:100730000FB60F920BB60F9211248F939F93EF93E6
:10074000FF939091890280918A02981769F0E09155
:100750008A02EF5FEF71E0938A02F0E0E75BFD4F02
:1007600080818093CE0005C08091C9008F7D8093E9
:10077000C900FF91EF919F918F910F900BBE0F9049
:100780000FBE0F901F9018959C0110928902109235
:100790008A0210928B0210928C0297FF04C082E0B2
:1007A0008093C8003F773093CD002093CC0088E938
:1007B0008093C90086E08093CA00089590918B02CF
:1007C00080918C02981719F420E031E012C0E0917A
:1007D0008C02EF5FEF71E0938C02F0E0E759FD4F80
:1007E000308120918D02922F80E0AC01430F511D8A
:1007F0009A01C9010895282F909189029F5F9F71E6
:1008000080918A029817E1F3E92FF0E0E75BFD4F52
:100810002083909389028091C90080628093C900EF
:100820000895CF93DF93EC0103C021960E94FB0350
:1008300088818823D1F7DF91CF910895CF93DF93FB
:10084000EC0102C00E94FB03FE01219684918823E3
:10085000C9F7DF91CF9108950F931F93CF93DF9343
:10086000182F062FEA016623D1F080ED0E941007B1
:10087000812F0E946907109276060BC0FE01E80FD7
:10088000F11D80810E946907809176068F5F8093B9
:10089000760680917606801788F30E946107DF91C3
:1008A000CF911F910F910895DF93CF930F92CDB702
:1008B000DEB7698361E0AE014F5F5F4F0E942C0499
:1008C0000F90CF91DF910895DF92EF92FF920F93F7
:1008D0001F93CF93DF93182FD62E042FF52E662368
:1008E00011F410E02AC080ED0E941007812F0E94B1
:1008F000690783E08A95F1F781ED0E941007802F48
:100900009F2D9C018901C0E0D0E0ED2CFF240894CC
:10091000E108F1080DC0CE15DF0519F40E94850726
:1009200002C00E947B07F801808321960F5F1F4F52
:10093000CD1588F31D2D0E946107812FDF91CF9186
:100940001F910F91FF90EF90DF9008956F927F922B
:100950008F929F92AF92BF92CF92DF92EF92FF92CF
:100960000F931F936C015B014A0139018BE36EE029
:1009700047E756E00E94640440917706209178068C
:10098000942F80E030E0822B932BF60191838083BB
:100990004091790620917A06942F80E030E0822BF6
:1009A000932BF5019183808340917B0620917C06F7
:1009B000942F80E030E0822B932BF401918380838D
:1009C00040917F0620918006942F80E030E0822BBA
:1009D000932BF301918380834091810620918206BD
:1009E000942F80E030E0822B932BF8019183808359
:1009F0004091830620918406942F80E030E0822B82
:100A0000932BF701918380831F910F91FF90EF90BB
:100A1000DF90CF90BF90AF909F908F907F906F901E
:100A200008952F923F924F925F926F927F928F9292
:100A30009F92AF92BF92CF92DF92EF92FF920F936D
:100A40001F93DF93CF93CDB7DEB72C970FB6F894F3
:100A5000DEBF0FBECDBF6C015B014A013901280129
:100A600017011A8219821C821B821E821D8218861F
:100A70001F821A8619861C861B86CE010196BE012E
:100A80006D5F7F4FAE014B5F5F4F9E01295F3F4F10
:100A90008E01075F1F4FEBE0EE2EF12CEC0EFD1EDA
:100AA0000E94A60469817A81882777FD8095982F16
:100AB0000E94F30920E030E040E858E30E947F0AFA
:100AC000F60160837183828393836B817C818827A5
:100AD00077FD8095982F0E94F30920E030E040E8F0
:100AE00058E30E947F0AF5016083718382839383B8
:100AF0006D817E81882777FD8095982F0E94F3096C
:100B000020E030E040E858E30E947F0AF40160836F
:100B10007183828393836F817885665D7F4F882799
:100B200077FD8095982F0E94F30923E333E343E890
:100B300051E40E948909F301608371838283938366
:100B400069857A8569507040882777FD8095982F50
:100B50000E94F30923E333E343E851E40E94890947
:100B6000F20160837183828393836B857C85635EEE
:100B70007F4F882777FD8095982F0E94F30923E304
:100B800033E343E851E40E948909F10160837183F2
:100B9000828393832C960FB6F894DEBF0FBECDBF31
:100BA000CF91DF911F910F91FF90EF90DF90CF9049
:100BB000BF90AF909F908F907F906F905F904F907D
:100BC0003F902F900895AB0161E00E946404089566
:100BD000FF920F931F93DF93CF930F92CDB7DEB7A2
:100BE000F82E062F142FBE016F5F7F4F0E94E30582
:100BF0002981112351F081E090E002C0880F991FF4
:100C00000A95E2F7622F682B0AC081E090E002C0EB
:100C1000880F991F0A95E2F7682F60956223698310
:100C20008F2D0E9454040F90CF91DF911F910F914F
:100C3000FF9008958BE666E041E00E94E805089584
:100C40008BE666E040E00E94E8050895EF92FF928F
:100C50000F931F93DF93CF930F92CDB7DEB7E82E9C
:100C6000062F142FF22E442379F11982BE016F5FF3
:100C70007F4F0E94E305882339F1212F30E0402F78
:100C800050E04F5F5F4F421B530B81E090E002C08A
:100C9000880F991F1A95E2F70197042E02C0880F5A
:100CA000991F0A94E2F72F2D30E002C0220F331F64
:100CB0004A95E2F7682F6095498164238223682B67
:100CC00069838E2D0E9454040F90CF91DF911F9164
:100CD0000F91FF90EF9008950E940A0783E08A9594
:100CE000F1F788EA91E60197F1F70E94200684EC7B
:100CF00099E00197F1F78BE662E043E021E00E9482
:100D000026068AE162E043E023E00E94260689E1AC
:100D100064E00E9454048BE164E042E023E00E941E
:100D200026068CE164E042E020E00E942606089559
:100D3000FF920F931F93DF93CF930F92CDB7DEB740
:100D4000F62E8A01BE016F5F7F4F0E94E30521E00E
:100D500030E002C0220F331FFA94E2F79981922308
:100D6000F80190830F90CF91DF911F910F91FF9029
:100D70000895EF92FF920F931F93DF93CF930F92FB
:100D8000CDB7DEB7062F142F7901442311F460E0AC
:100D900029C0BE016F5F7F4F0E94E305682F882343
:100DA00009F1812F90E0402F50E04F5F5F4F481BCB
:100DB000590B21E030E002C0220F331F1A95E2F7F1
:100DC00021503040042E02C0220F331F0A94E2F754
:100DD0008981822390E002C0959587954A95E2F734
:100DE000F7018083862F0F90CF91DF911F910F9194
:100DF000FF90EF90089585E766E046E027E736E04C
:100E00000E94B9068091770690E0843309F491E05E
:100E1000892F08951092B90080EC8093B80008954E
:100E2000982F84EA8093BC008091BC0087FFFCCFA0
:100E30008091B900887F883021F0803111F081E005
:100E400008959093BB0084E88093BC008091BC001F
:100E500087FFFCCF9091B900987F983111F480E022
:100E6000089580E0903409F081E00895982F44EAD5
:100E700034E824E94093BC008091BC0087FFFCCF9C
:100E80008091B900887F883011F0803199F7909374
:100E9000BB003093BC008091BC0087FFFCCF8091E9
:100EA000B900887F803211F0883539F42093BC0076
:100EB0008091BC0084FDFCCFDDCF08950E94100717
:100EC000089584E98093BC008091BC0084FDFCCF30
:100ED00008958093BB0084E88093BC008091BC009F
:100EE00087FFFCCF8091B90090E0887F883209F0BD
:100EF00091E0892F089584EC8093BC008091BC0020
:100F000087FFFCCF8091BB00089584E88093BC00EC
:100F10008091BC0087FFFCCF8091BB000895FC014D
:100F200020FD08C023FD05C022FF02C07383628339
:100F3000518340830895EF92FF920F931F9344FFD4
:100F400002C033E011C046FF02C034E00DC0DB0137
:100F5000FC01AA0FBB1FEE1FFF1F1094D1F76A0FF1
:100F60007B1F8E1F9F1F31E0660F771F881F991F01
:100F70003150D1F77B018C01E20EF11C011D111DD6
:100F8000A8019701B701CA011F910F91FF90EF903F
:100F900008950F931F93CF93DF938C01C8010E9494
:100FA000E80FEC0197FD08C00E948B0F892BB1F769
:100FB000CE01B8010E945610CE01DF91CF911F9152
:100FC0000F910895AF92BF92CF92DF92EF92FF926E
:100FD0000F931F93CF93DF93EC01C62E5A01122F6C
:100FE0000E94E80FAC018B3219F08D3251F4106879
:100FF000CA9409F46DC0CE010E94E80FAC0197FDC0
:1010000067C06DEFD62ED1228D2D807301F5403350
:10101000F1F4CA9409F447C0CE010E94E80FAC0174
:1010200097FD41C082E0D82A483711F0483559F47D
:1010300080E4D82ACA94B9F1CE010E94E80FAC012D
:1010400099232CF430C0D6FC02C080E1D82AEE24CB
:10105000FF248701242F2053283088F0D4FC09C0B6
:101060002A3068F0D6FE05C02F7D822F8151863050
:1010700028F0CA01BE010E94561012C02750C801B4
:10108000B7014D2D0E949B077B018C0182E0D82A7D
:10109000CA9461F0CE010E94E80FAC0197FFDACF4D
:1010A000D1FC04C015C0EE24FF248701D7FE08C080
:1010B00010950095F094E094E11CF11C011D111DA8
:1010C000C501B801A7012D2D0E948F0781E001C045
:1010D00080E0DF91CF911F910F91FF90EF90DF9013
:1010E000CF90BF90AF9008956F927F928F929F9212
:1010F000AF92BF92CF92DF92EF92FF920F931F9326
:10110000CF93DF935C016B013A01FC0117821682D9
:101110008824DCC0812F90E00E948B0F892B21F066
:10112000C5010E94C907D2C0153249F4F601F3FC8B
:101130006591F3FE61916F01653269F415E2C501B5
:101140000E94E80F97FDCEC0181709F4BFC0B50183
:101150000E945610CCC06A3219F0162F00E006C06B
:10116000F3FC1591F3FE11916F0101E099240FC07A
:101170000260692D70E080E090E040E20E949B07F1
:10118000962EF601F3FC1591F3FE11916F01212FBC
:1011900020532A3068F301FD03C099249A9403C0B8
:1011A000992009F4A4C0183621F01C3691F4F601F8
:1011B0000AC0F601F3FC6591F3FE6191683611F007
:1011C000162F06C008600460F3FC1591F3FE119120
:1011D0006F01112309F48BC084EE90E0612F70E061
:1011E0000E94930F892B09F482C0802F00FF03C057
:1011F000EE24FF2407C0F301E080F18022E030E01C
:10120000620E731E1E3651F4F5014681578160E06F
:1012100070E0C701202F0E948F0758C0133691F449
:1012200081FD02C099249394C5010E94E80F97FDA7
:1012300059C0E114F10419F0F70181937F019A94E8
:1012400099F742C0C5010E94C90797FD4BC01F36E0
:1012500059F1103728F4143629F1193639F527C019
:10126000133719F0153711F51DC0C5010E94E80F9D
:10127000EC0197FD11C00E948B0F892B29F0CE0144
:10128000B5010E94561008C0E114F10419F0F701ED
:10129000C1937F019A9449F7E114F104A9F0F70191
:1012A000108212C0006203C0006101C00064C50169
:1012B000692DA701202F0E94E207882329F4F50158
:1012C0008381807379F413C000FF8394F501F38068
:1012D000F601F3FC1591F3FE11916F01112309F052
:1012E00019CF05C0882019F42FEF3FEF02C0282D39
:1012F00030E0C901DF91CF911F910F91FF90EF90E6
:10130000DF90CF90BF90AF909F908F907F906F9025
:1013100008950CD0BAC0B2D040F0A9D030F021F47A
:101320005F3F19F09BC05111E4C09EC0BFD098F33D
:101330009923C9F35523B1F3951B550BBB27AA2756
:1013400062177307840738F09F5F5F4F220F331FC8
:10135000441FAA1FA9F333D00E2E3AF0E0E830D094
:1013600091505040E695001CCAF729D0FE2F27D097
:10137000660F771F881FBB1F261737074807AB0765
:10138000B0E809F0BB0B802DBF01FF2793585F4FDA
:101390002AF09E3F510568F061C0ABC05F3FECF39F
:1013A000983EDCF3869577956795B795F7959F5F9F
:1013B000C9F7880F911D9695879597F90895E1E0F3
:1013C000660F771F881FBB1F621773078407BA0752
:1013D00020F0621B730B840BBA0BEE1F88F7E095AD
:1013E0000895E89409C097FB3EF490958095709518
:1013F00061957F4F8F4F9F4F9923A9F0F92F96E961
:10140000BB279395F695879577956795B795F111D5
:10141000F8CFFAF4BB0F11F460FF1BC06F5F7F4F72
:101420008F4F9F4F16C0882311F096E911C0772384
:1014300021F09EE8872F762F05C0662371F096E88D
:10144000862F70E060E02AF09A95660F771F881F5C
:10145000DAF7880F9695879597F9089597F99F671A
:1014600080E870E060E008959FEF80EC089500242C
:101470000A941616170618060906089500240A94F9
:1014800012161306140605060895092E0394000C7F
:1014900011F4882352F0BB0F40F4BF2B11F460FF0E
:1014A00004C06F5F7F4F8F4F9F4F089557FD905837
:1014B000440F551F59F05F3F71F04795880F97FB18
:1014C000991F61F09F3F79F08795089512161306D2
:1014D0001406551FF2CF4695F1DF08C01616170601
:1014E0001806991FF1CF8695710561050894089536
:1014F000E894BB2766277727CB0197F908950BD08F
:10150000C4CFB5DF28F0BADF18F0952309F0A6CFD5
:10151000ABCF1124EECFCADFA0F3959FD1F3950F87
:1015200050E0551F629FF001729FBB27F00DB11D67
:10153000639FAA27F00DB11DAA1F649F6627B00DF7
:10154000A11D661F829F2227B00DA11D621F739FE0
:10155000B00DA11D621F839FA00D611D221F749FEE
:101560003327A00D611D231F849F600D211D822F35
:10157000762F6A2F11249F5750408AF0E1F088237C
:101580004AF0EE0FFF1FBB1F661F771F881F915089
:101590005040A9F79E3F510570F060CFAACF5F3F42
:1015A000ECF3983EDCF3869577956795B795F795BC
:1015B000E7959F5FC1F7FE2B880F911D9695879544
:1015C00097F908952F923F924F925F926F927F9278
:1015D0008F929F92AF92BF92CF92DF92EF92FF9243
:1015E0000F931F93DF93CF93CDB7DEB761970FB6FD
:1015F000F894DEBF0FBECDBF3C017F876E876A01C6
:10160000FC0117821682838181FD03C06FEF7FEF9B
:101610006FC39E012F5F3F4F398B288BF3012381CE
:10162000EE85FF8523FD859123FF8191FF87EE875E
:10163000882309F45AC3853251F4EE85FF8523FDD2
:10164000859123FF8191FF87EE87853229F490E011
:10165000B3010E942A10E2CF982F10E08824992429
:101660001032B0F49B3269F09C3228F4903251F081
:10167000933271F40BC09D3239F0903349F411600C
:1016800028C01260146025C0186023C0106121C0FA
:1016900017FD2AC0892F80538A3078F416FF06C0C0
:1016A000FAE09F9E902C1124980E13C03AE0839E7E
:1016B000802C1124880E10620CC09E3221F416FD7D
:1016C00014C3106406C09C3611F4106802C098362A
:1016D00059F4EE85FF8523FD959123FF9191FF87B6
:1016E000EE87992309F0BCCF892F8554833020F4ED
:1016F000812F8061905E07C0892F8556833008F066
:101700009FC1812F8F7E86FD02C076E0972E6FE30A
:10171000F62EF822953619F4F0E4FF2A07C0963623
:1017200019F420E8F22A02C091109A94F7FE0AC038
:101730003BE3391518F45CE3B52E02C0B92CB39421
:1017400027E009C047E0491520F4BB2447E0942E68
:10175000F7CF292DBB24C60104969D878C87F601FF
:101760006081718182819381AE014F5F5F4F0B2D4C
:101770000E94B30E6C010981202E332400FF04C0A7
:1017800003FD02C01DE209C0F1FE02C01BE205C05C
:10179000F2FC02C010E001C010E2C1018C70907038
:1017A000892BB9F1112311F483E001C084E088157D
:1017B00010F088240AC0881AF3FC07C080E290E089
:1017C000B3010E942A108A94C9F7112329F0812FAE
:1017D00090E0B3010E942A1023FE03C00FEE10E038
:1017E0000EC003EF10E00BC0E114F10409F08052C9
:1017F00090E0B3010E942A100F5F1F4F05C0EF2C2D
:10180000FF24F0E1EF22FF24F8018491882361F79F
:1018100014C1F7FE12C0BC0C24FE04C08A818133BF
:1018200009F4BA941B141CF0BB24B3942DC0F8E047
:10183000FB1550F538E0B32E27C0F6FC25C0892DE6
:1018400090E08C159D054CF02CEFC2162FEFD206C0
:1018500024F030E8F32A01C09A94992049F0E2E09C
:10186000F0E0EC0FFD1FE90DF11D80818033A1F345
:10187000F7FE0AC0B92CB394892D90E0C816D9069A
:1018800014F0992401C09C18F7FC03C025E030E057
:1018900009C01C141D041CF021E030E003C09601B7
:1018A0002F5F3F4F112311F02F5F3F4F992029F0F9
:1018B000892D90E00196280F391F882D90E0281778
:1018C000390714F0882401C0821A4F2C5524C20114
:1018D00089709070892B39F008C080E290E0B301E4
:1018E0000E942A108A948820C1F7112329F0812FA1
:1018F00090E0B3010E942A1043FE07C008C080E3B5
:1019000090E0B3010E942A108A948820C1F7F7FE64
:1019100046C08601D7FE02C000E010E076010894C0
:10192000E11CF11CE01AF10A41E050E04C0F5D1F90
:10193000E40EF51E26014B185108892D90E0AA24CB
:10194000BB24A81AB90A5FEF0F3F150729F48EE2EE
:1019500090E0B3010E942A10C016D10634F0401660
:1019600051061CF4F701808101C080E30150104052
:101970000894E11CF11C0A151B052CF090E0B30142
:101980000E942A10E0CF0C151D0539F49A81963378
:1019900018F4953311F424FE81E390E04BC08A8162
:1019A000813309F00F7E90E0B3010E942A10992044
:1019B000A1F08EE290E0B3010E942A1012E0E1E073
:1019C000F0E0EC0FFD1FE10FF11D1F5F808190E043
:1019D000B3010E942A109A9491F744FC03C085E653
:1019E00090E002C085E490E0B3010E942A10D7FC89
:1019F00005C0C114D10441F404FF06C0D094C194C1
:101A0000D108D3948DE201C08BE290E0B3010E9433
:101A10002A1080E305C08F5F26EF3FEFC20ED31E72
:101A20003AE0C316D104BCF790E0B3010E942A103B
:101A3000C601C096B3010E942A10CC84DD8452C135
:101A4000933631F0933799F0933509F059C023C09C
:101A5000F601808189835E010894A11CB11C22E0FB
:101A600030E0C20ED31E21E0E22EF12C12C0F601AE
:101A7000A080B18016FD03C06FEF7FEF02C0692D1B
:101A800070E022E030E0C20ED31EC5010E94A90F13
:101A90007C011F7713C0F601A080B18016FD03C042
:101AA0006FEF7FEF02C0692D70E022E030E0C20EE0
:101AB000D31EC5010E949E0F7C01106813FF07C052
:101AC0001BC080E290E0B3010E942A108A94882D06
:101AD00090E0E816F906A8F30FC0F50117FD85910F
:101AE00017FF81915F0190E0B3010E942A108110DD
:101AF0008A940894E108F108E114F10471F7F2C046
:101B0000943611F0993689F517FF08C0F601208147
:101B100031814281538184E090E00AC0F6018081E6
:101B200091819C01442737FD4095542F82E090E03D
:101B3000C80ED91E9FE6F92EF12257FF09C0509515
:101B40004095309521953F4F4F4F5F4F90E8F92AD0
:101B5000CA01B901AE014F5F5F4F2AE030E00E9439
:101B60007010E82EE889EE1A41C0953721F41F7EE7
:101B70002AE030E01CC0197F9F3661F0903720F4D6
:101B8000983509F0B2C00FC0903739F0983709F096
:101B9000ACC004C028E030E00AC0106114FD14603D
:101BA00020E130E004C014FD166020E132E017FFB0
:101BB00008C0F601608171818281938144E050E028
:101BC00008C0F60180819181BC0180E090E042E094
:101BD00050E0C40ED51EAE014F5F5F4F0E947010E3
:101BE000E82E5889E51A8FE7F82EF122F6FE0BC091
:101BF0008EEFF822E91438F4F4FE07C0F2FC05C0B9
:101C00009FEEF92202C01E2D01C0192DF4FE0DC059
:101C1000FE01EE0DF11D8081803319F4E9EEFE2204
:101C200008C01F5FF2FE05C003C08F2D867809F043
:101C30001F5F0F2DF3FC14C0F0FE0FC0181510F03D
:101C40009E2C0BC09E2C980C911A182D06C080E279
:101C500090E0B3010E942A101F5F1815C0F304C062
:101C6000181510F4811A01C0882404FF0FC080E306
:101C700090E0B3010E942A1002FF1DC001FD03C0C5
:101C800088E790E00EC088E590E00BC0802F867852
:101C900091F001FF02C08BE201C080E2F7FC8DE20F
:101CA00090E0B3010E942A1006C080E390E0B301E7
:101CB0000E942A109A94E914C0F3EA94E1E0F0E05B
:101CC000EC0FFD1FEE0DF11D808190E0B3010E942D
:101CD0002A10EE2091F706C080E290E0B3010E9446
:101CE0002A108A948820C1F799CCF3016681778104
:101CF000CB0161960FB6F894DEBF0FBECDBFCF917A
:101D0000DF911F910F91FF90EF90DF90CF90BF90E8
:101D1000AF909F908F907F906F905F904F903F908B
:101D20002F900895EF92FF920F931F93F22FF02EB2
:101D300047FD02C0E4E001C0E4E1242F332727FD82
:101D4000309537FF03C0309521953F4F4F2D512FD0
:101D50000F2FEE2E0E94CE108F2D912F1F910F91DD
:101D6000FF90EF900895283008F027E03327DA013C
:101D7000990F311D87FD916000966105710539F459
:101D800032602E5F3D9330E32A95E1F708959F3F3F
:101D900030F080387105610509F03C5F3C5F3D9390
:101DA000913008F08068911DDF93CF931F930F93BC
:101DB000FF92EF92192F987F9695E92F9695969519
:101DC000E90FFF27EF5AFE4F99273327EE24FF2410
:101DD000A701E70105900894079428F4360FE71E41
:101DE000F81E491F511D660F771F881F991F069403
:101DF000A1F70590079428F4E70EF81E491F561F17
:101E0000C11D770F881F991F661F0694A1F70590C3
:101E1000079428F4F80E491F561FC71FD11D880FBD
:101E2000991F661F771F0694A1F70590079420F469
:101E3000490F561FC71FD81F990F661F771F881F8E
:101E40000694A9F784911095177041F0D695C7951F
:101E500057954795F794E7941A95C1F7E7EFF0E0A7
:101E600068941590159135916591959105907FE253
:101E70007395E118F10A430B560BC90BD009C0F753
:101E8000E10CF11E431F561FC91FD01D7EF4703395
:101E900011F48A95E6CFE894015030F0080F0AF467
:101EA0000027021708F4202F2395022F7A3328F0F9
:101EB00079E37D932A95E9F710C07D932A9589F6F9
:101EC000069497956795379517951794E118F10A39
:101ED000430B560BC90BD00998F023957E9173954F
:101EE0007A3308F070E37C932013B8F77E91706129
:101EF0007D9330F0839571E37D9370E32A95E1F74C
:101F00001124EF90FF900F911F91CF91DF919927AE
:101F100087FD909508959111C3C2803219F08950C0
:101F20008550D0F70895FC010590061621F0002099
:101F3000D9F7C00108953197CF010895FC010590AC
:101F4000615070400110D8F7809590958E0F9F1FBB
:101F50000895FC016150704001900110D8F7809500
:101F600090958E0F9F1F0895FA01CF93FF93EF93E3
:101F7000223044F1253234F5C22FE894CA3049F4B6
:101F800097FB3EF490958095709561957F4F8F4FAC
:101F90009F4F2C2F332744275527FF93EF930E9401
:101FA0006312EF91FF91605D6A330CF0695D61939C
:101FB000B901CA01605070408040904051F716F45A
:101FC000CDE2C19310828F919F91CF910C945312C7
:101FD000CF93DF93EC014B8140FF1AC046FF0AC04C
:101FE0004F7B4B838E819F8101969F838E838A8155
:101FF000282F2BC042FF13C0E881F9818081282F50
:10200000332727FD30952115310529F440624B8394
:102010002FEF3FEF1BC03196F983E88311C0EA85AB
:10202000FB85CE0109959C0197FF0AC09B812F5F1C
:102030003F4F11F080E201C080E1892B8B83E8CF14
:102040008E819F8101969F838E8330E0C901DF914D
:10205000CF9108950F931F93CF93DF938C01EB01E2
:102060008B8181FF1BC082FF0DC02E813F818C813F
:102070009D812817390764F4E881F9810193F98378
:10208000E88306C0E885F985802F0995892B31F40E
:102090008E819F8101969F838E8302C00FEF1FEF79
:1020A000C801DF91CF911F910F9108959C01FB0111
:1020B000838180FF11C086FD0FC09FEF2F3F39073E
:1020C00059F0228380648F7D838386819781019775
:1020D0009783868330E002C02FEF3FEFC901089558
:1020E000FA01AA27283051F1203181F1E8946F9349
:1020F0006E7F6E5F7F4F8F4F9F4FAF4FB1E03ED0EF
:10210000B4E03CD0670F781F891F9A1FA11D680F8C
:10211000791F8A1F911DA11D6A0F711D811D911DBF
:10212000A11D20D009F468943F912AE0269F112434
:102130003019305D3193DEF6CF010895462F477098
:10214000405D4193B3E00FD0C9F7F6CF462F4F70F3
:10215000405D4A3318F0495D31FD4052419302D051
:10216000A9F7EACFB4E0A6959795879577956795F7
:10217000BA95C9F700976105710508959B01AC01F7
:102180000A2E06945795479537952795BA95C9F71E
:10219000620F731F841F951FA01D08956F927F9279
:1021A0008F929F92AF92BF92CF92DF92EF92FF9267
:1021B0000F931F93DF93CF93CDB7DEB729970FB659
:1021C000F894DEBF0FBECDBF6A01122FA02EBE2C29
:1021D0002BE3201718F42CE3922E02C0902E939438
:1021E000AE014F5F5F4F27E0092D0E94B30EBC0187
:1021F0008981E82EFF24C70189709070019711F43E
:10220000ADE209C0B1FE02C0ABE205C0B0FC02C045
:10221000A0E001C0A0E2E3FE3BC0AA2311F423E04A
:1022200001C024E0211710F020E002C0121B212F72
:10223000EB2CB4FE02C0322F0AC0F601322F80E22E
:1022400002C0819331503323E1F7C20ED11CAA237F
:1022500019F0F601A1936F01F6013196E2FE05C077
:102260009EE4D6019C9381E404C09EE6D6019C9333
:1022700081E611968C9391833296DF01832F90E251
:1022800002C09D9381508823E1F7E30FF11D40C008
:10229000E2FE42C0AA2311F423E001C024E021178A
:1022A00010F020E002C0121B212FEB2CB4FE02C064
:1022B000922F0AC0F601922F80E202C081939150C2
:1022C0009923E1F7C20ED11CAA2319F0F601A193BC
:1022D0006F01F6013196E2FE08C089E4D6018C93C5
:1022E0008EE411968C9386E407C089E6D6018C9320
:1022F0008EE611968C9386E681833296DF01892FD4
:1023000020E202C02D9381508823E1F7E90FF11DEF
:1023100010822EEF3FEFAEC0161617061CF041E0FC
:1023200050E003C0AB014F5F5F4FAA2019F480E07B
:1023300090E003C08A2D90E0019620E030E0AA23CF
:1023400011F021E030E0240F351F280F391F812FB5
:1023500090E02817390714F020E002C0121B212F4B
:102360004B2D50E0CA0180719070B4FC0DC0B3FCDD
:102370000BC0F601322F40E202C0419331503323AB
:10238000E1F7C20ED11C01C0322FAA2319F0F601C9
:10239000A1936F01892B11F0132F0AC0F601132F9F
:1023A00080E302C0819311501123E1F7C30ED11CC9
:1023B000092D060FBA8090E1892E912C8E209F2046
:1023C000E4FE04C0F1E3BF1609F40150101614F046
:1023D00001E003C0093008F008E09B0177FF02C06C
:1023E00020E030E0CB010196821B930BFE01319679
:1023F000E80FF91F8EE2F82E3B01601A71088A2D52
:1024000090E044275527481B590B8FEF2F3F380783
:1024100019F4D601FD926D01621773072CF0621654
:10242000730614F4808101C080E32150304031965E
:102430002417350724F0D6018D936D01E6CF2617BA
:10244000370741F4B5E3BB1520F0BB1619F4892812
:1024500009F481E3F6018193D601812F90E202C055
:102460009C93815011968823D9F7E10FF11D1082BA
:1024700020E030E0C90129960FB6F894DEBF0FBE08
:10248000CDBFCF91DF911F910F91FF90EF90DF9023
:10249000CF90BF90AF909F908F907F906F90089556
:1024A000992788270895DC01FC01672F7191772314
:1024B000E1F7329704C07C916D9370836291AE17FF
:1024C000BF07C8F30895A1E21A2EAA1BBB1BFD018A
:1024D0000DC0AA1FBB1FEE1FFF1FA217B307E40703
:1024E000F50720F0A21BB30BE40BF50B661F771F5B
:1024F000881F991F1A9469F760957095809590953B
:0E2500009B01AC01BD01CF010895F894FFCFFF
:04250E000D0A0000B2
:00000001FF
