:100000000C94F9000C9410010C9410010C94100144
:100010000C9410010C9410010C9410010C9410011C
:100020000C9410010C9410010C9410010C9410010C
:100030000C9410010C9410010C9410010C941001FC
:100040000C9410010C9410010C9410010C941001EC
:100050000C9410010C9410010C9410010C941001DC
:100060000C9410010C9410010C9410010C941001CC
:100070000C9410010C9410010C9410010C941001BC
:100080000C9410010C9410010C9410010C943B0280
:100090000C9410010C9410010C9410010C9410019C
:1000A0000C9410010C9410010C9410010C9410018C
:1000B0000C9410010C9410010C9410010C9410017C
:1000C0000C9410010C9410010C9410010C9410016C
:1000D0000C9410010C9410010C9410010C9410015C
:1000E0000C9410016364696E6F7073757858006EBC
:1000F000616E00696E660000407A10F35A00A072CB
:100100004E18090010A5D4E80000E8764817000052
:10011000E40B54020000CA9A3B000000E1F5050020
:100120000080969800000040420F000000A0860169
:10013000000000102700000000E803000000006439
:1001400000000000000A00000000000100000000A4
:10015000002C76D888DC674F0823DFC1DFAE59E179
:10016000B1B796E5E3E453C63AE651997696E8E6E8
:10017000C28426EB898C9B62ED407C6FFCEFBC9CBB
:100180009F40F2BAA56FA5F490055A2AF75C936BCD
:100190006CF9676DC11BFCE0E40D47FEF520E6B588
:1001A00000D0ED902E0300943577050080841E0862
:1001B0000000204E0A000000C80C333333330F9880
:1001C0006E12831141EF8D2114893BE65516CFFE47
:1001D000E6DB18D1844B381BF77C1D901DA4BBE4D3
:1001E00024203284725E228100C9F124ECA1E53D15
:1001F000270011241FBECFEFD1E2DEBFCDBF12E03A
:10020000A0E0B2E0EEE0FBE100E00BBF02C007902F
:100210000D92A630B107D9F70E949D020C94850D6E
:100220000C940000E1E8F0E0808183608083239AF1
:10023000089549E5469F9001479F300D11242058AD
:10024000314C3093890020938800FC0171836083D6
:100250001382128208951092CD0088E08093CC0022
:10026000E9ECF0E0808188618083EAECF0E0808155
:10027000866080830895CF92DF92EF92FF920F9372
:100280001F93CF93DF93EC01809191008560809361
:100290009100C884D984EA84FB842FE335E346E8DF
:1002A00050E4C701B6010E9471060E94D9068B0175
:1002B0007B836A8380E090E00E9405072FE335E3AB
:1002C00046E850E40E9493079B01AC01C701B601C8
:1002D0000E940C0620E034E244E75BE40E949307AE
:1002E00020E030E040E85AE30E9493079B01AC0114
:1002F00060E07FEF8FE797E40E940C06012B29F462
:1003000020E030E040E85FE303C020E030E0A901F6
:100310000E9493070E94D906709395006093940001
:100320008091710081608093710078948A819B81B3
:1003300001979B838A83DF91CF911F910F91FF904B
:10034000EF90DF90CF9008959091C80095FFFCCF7B
:100350008093CE000895CF93DF93EB01899188239A
:1003600019F00E94A401FACF8DE00E94A4018AE056
:100370000E94A40181E090E0DF91CF9108958091E7
:10038000C80087FFFCCF8091CE0008950F931F9384
:10039000CF93DF938C01C0E0D0E00E94BF01F80151
:1003A000EC0FFD1F808B97859F3411F48B3491F0F7
:1003B0002485253451F42585223539F426852235C6
:1003C00021F49F3411F4823529F02196C83E83E050
:1003D000D80719F7C00FD11F198AC8014096DF91BD
:1003E000CF911F910F910895EF92FF920F931F935A
:1003F000CF93DF938C01F12CC0E0D0E0E12C0E9480
:10040000BF01833219F491E2F91611F0EE20C9F020
:10041000F801EC0FFD1F808B9785933211F4813228
:10042000B1F02485253451F42585223539F426850B
:10043000223521F49F3411F4823549F02196EE24BF
:10044000E394C83E93E0D90714F4F82ED8CFC00F38
:10045000D11F198AC8014096DF91CF911F910F914A
:10046000FF90EF9008958091C80087FD03C08091B0
:10047000CE00F9CF08951F920F920FB60F9211245C
:100480000F900FBE0F901F9018951092C50080E13D
:100490008093C400E1ECF0E0808188618083E2EC2D
:1004A000F0E080818660808308959091C00095FF80
:1004B000FCCF8093C6000895CF93DF93EB01899121
:1004C000882319F00E945502FACF8DE00E94550250
:1004D0008AE00E94550281E090E0DF91CF9108957B
:1004E0008091C00087FFFCCF8091C60008950F93D4
:1004F0001F93CF93DF938C01C0E0D0E00E94700285
:100500008D3051F4C00FD11F1A82C8010296DF91BD
:10051000CF911F910F910895C336D10599F321967C
:10052000F801EC0FFD1F8183E9CF8091C00087FFA8
:1005300003C08091C600F9CF0895CF93DF93CDB764
:10054000DEB7C753D4400FB6F894DEBF0FBECDBFA1
:10055000CC5CDB4F19821882C453D440CA5CDB4F99
:1005600019821882C653D4406EE170E0CE018C5CD3
:100570009B4F0E94190188EE93E09A838983FE01C4
:10058000E750FC4F2BE3DF011D922A95E9F727E4A2
:10059000208325E4C650DC4F2883CA5FD34024E57E
:1005A000C550DC4F2883CB5FD34020E2C450DC4FE2
:1005B0002883CC5FD3405FE2C350DC4F5883CD5FCC
:1005C000D3404FE6C250DC4F4883CE5FD34032E782
:1005D000C150DC4F3883CF5FD34023E7C050DC4F9E
:1005E0002883C050D440CF5FDB4F4883C150D440F4
:1005F000CE5FDB4F2883C250D44061E6CD5FDB4F36
:100600006883C350D440CC5FDB4F5883C450D44080
:10061000CB5FDB4F2883C550D44054E7CA5FDB4F24
:100620005883C650D440C95FDB4F4883C750D4407D
:10063000C85FDB4F3883C850D44025E6C75FDB4F27
:100640002883C950D4407EE2C65FDB4F7883CA500E
:10065000D44070E7C55FDB4F7883CB50D440E8E6E9
:10066000C45FDB4FE883CC50D440C35FDB4F78835B
:10067000CD50D4407FE3C25FDB4F7883CE50D4406F
:1006800077E7C15FDB4F7883CF50D440C05FDB4F4B
:100690004883C051D440CF5EDB4F3883C151D44032
:1006A000F4E6CE5EDB4FF883C251D4404DE3CD5E1D
:1006B000DB4F4883C351D4407CE4CC5EDB4F78836E
:1006C000C451D440CB5EDB4F2883C551D440CA5EB1
:1006D000DB4F5883C651D4405DE4C95EDB4F58837D
:1006E000C751D440C85EDB4F2883C851D44059E479
:1006F000C75EDB4F5883C951D4405EE6C65EDB4F10
:100700005883CA51D44051E2C55EDB4F5883CB5168
:10071000D44076E2C45EDB4F7883CC51D440E6E629
:10072000C35EDB4FE883CD51D44059E6C25EDB4F58
:100730005883CE51D440C15EDB4F2883CF51D44083
:100740005CE6C05EDB4F5883C052D440CF5DDB4FC8
:10075000F883C152D440CE5DDB4F4883C252D440AF
:10076000CD5DDB4FE883C352D440CC5DDB4F388393
:10077000C452D440CB5DDB4F2883C552D44031E70F
:10078000CA5DDB4F3883C652D440C95DDB4F7883E6
:10079000C752D44036E7C85DDB4F3883C852D440D7
:1007A000C75DDB4F6883C952D440C65DDB4F5883B9
:1007B000CA52D44035E7C55DDB4F3883CB52D440B5
:1007C000C45DDB4F2883CC52D440C35DDB4F4883EC
:1007D000CD52D440FE017196DF019C011D92215043
:1007E0003040E1F780E090E0A0EAB1E489879A87A1
:1007F000AB87BC8760E072E0CE0101960E94AB013E
:1008000080E090E0C95CDB4F0FB6F894DEBF0FBE0E
:10081000CDBFDF91CF91089520FD09C0FC0123FDDC
:1008200005C022FF02C07383628351834083089511
:1008300044FD10C046FD10C0DB01FC01AA0FBB1F28
:10084000EE1FFF1F1094D1F76A0F7B1F8E1F9F1F93
:1008500031E003C033E001C034E0660F771F881F2A
:10086000991F3150D1F7620F711D811D911D08959F
:100870000F931F93CF93DF938C01C8010E949B0CB1
:10088000EC0197FD08C00E94720C892BB1F7B801EA
:10089000CE010E940B0DCE01DF91CF911F910F91E0
:1008A00008958F929F92AF92CF92DF92EF92FF9234
:1008B0000F931F93CF93DF93EC01A62E4A01022FD3
:1008C0000E949B0CAC0155274B32510521F04D3253
:1008D000510551F40068AA9411F480E067C0CE017C
:1008E0000E949B0C97FDF9CF102F1D7F302F307386
:1008F00001F58033F1F4FF24FA94FA0C09F442C0B4
:10090000CE010E949B0C97FD3DC0382F3F7D3835AE
:1009100051F41264AA94AA94A9F1CE010E949B0CEE
:1009200097FF07C02FC006FF02C0126001C012610E
:10093000AF2CC12CD12C760120ED280F283080F06F
:1009400014FF04C0BE010E940B0D19C02A3040F0F4
:1009500016FFF8CF2F7D3FEE320F363098F7275035
:10096000412FC701B6010E9418046B017C0112607F
:10097000AA9459F0CE010E949B0C97FFDDCF11FD88
:1009800004C0ABCFC12CD12C760117FF08C0F09466
:10099000E094D094C094C11CD11CE11CF11C212F07
:1009A000B701A601C4010E940C0481E0DF91CF9140
:1009B0001F910F91FF90EF90DF90CF90AF909F909D
:1009C0008F9008954F925F927F928F929F92AF92F5
:1009D000BF92CF92DF92EF92FF920F931F93CF932C
:1009E000DF931F92CDB7DEB78C012B017A01FC019A
:1009F00017821682A12CF801D380F201D3FC8591D5
:100A0000D3FE8191382F2F01882309F4EFC090E0A5
:100A100039830E94720C3981892B21F0C8010E9410
:100A20003804E9CF353241F4F201D3FC3591D3FEDD
:100A300031912F01353269F4C80139830E949B0C32
:100A4000398197FDD1C03817B1F2B8010E940B0D62
:100A5000CDC03A3241F4D3FC3591D3FE31912F0110
:100A6000BB24B39401C0B12C712C20ED230F2A308C
:100A700090F4FB2DF260BF2E672D70E080E090E0D7
:100A800040E20E941804762EF201D3FC3591D3FE89
:100A900031912F01EACFB1FE03C0711003C0A6C08F
:100AA00077247A94383619F03C3661F014C0F2019C
:100AB000D3FC3591D3FE31912F01383661F4FB2DF3
:100AC000F860BF2E8B2D8460B82EF201D3FC3591D7
:100AD000D3FE31912F01332309F488C0632F70E0D6
:100AE00084EE90E039830E947A0C3981892B09F4D5
:100AF0007DC0B0FC07C0F701C080D180C70102965D
:100B00007C0102C0C12CD12C3E3651F4F801468143
:100B1000578160E070E02B2DC6010E940C046BCF62
:100B20003336A1F4B1FC02C077247394C8010E944B
:100B30009B0C97FD59C0C114D10429F0F6018083A4
:100B4000C60101966C017A9489F74AC0C8013983BD
:100B50000E943804398197FD47C03F3669F128F477
:100B6000343631F1393679F12BC0333769F0353706
:100B7000F9F026C0C114D10429F0F6018082C60123
:100B800001966C017A9471F0C8010E949B0C4C0193
:100B900097FD08C00E94720C892B61F3B801C40153
:100BA0000E940B0DC114D104D9F0F601108218C0B7
:100BB000FB2DF062BF2E07C08B2D8061B82E03C0C5
:100BC0009B2D9064B92E2B2DA601672DC8010E9484
:100BD0005104811105C0F8018381807329F406C096
:100BE000B0FC09CFA39407CFAA2019F08A2D90E07A
:100BF00002C08FEF9FEF0F90DF91CF911F910F9168
:100C0000FF90EF90DF90CF90BF90AF909F908F902C
:100C10007F905F904F9008955058BB27AA270ED021
:100C200048C139D130F03ED120F031F49F3F11F46A
:100C30001EF42EC10EF4E095E7FB24C1E92F4AD142
:100C400080F3BA17620773078407950718F071F4E9
:100C50009EF562C10EF4E0950B2EBA2FA02D0B016C
:100C6000B90190010C01CA01A0011124FF27591BF1
:100C700099F0593F50F4503E68F11A16F040A22FF7
:100C8000232F342F4427585FF3CF46953795279568
:100C9000A795F0405395C9F77EF41F16BA0B620B67
:100CA000730B840BBAF09150A1F0FF0FBB1F661FAE
:100CB000771F881FC2F70EC0BA0F621F731F841FF1
:100CC00048F4879577956795B795F7959E3F08F017
:100CD000B3CF9395880F08F09927EE0F97958795D6
:100CE00008950CD0E6C0DED040F0D5D030F021F42D
:100CF0005F3F19F0C7C0511110C1CAC0EBD098F3C3
:100D00009923C9F35523B1F3951B550BBB27AA278C
:100D100062177307840738F09F5F5F4F220F331FFE
:100D2000441FAA1FA9F333D00E2E3AF0E0E830D0CA
:100D300091505040E695001CCAF729D0FE2F27D0CD
:100D4000660F771F881FBB1F261737074807AB079B
:100D5000B0E809F0BB0B802DBF01FF2793585F4F10
:100D60002AF09E3F510568F08DC0D7C05F3FECF37D
:100D7000983EDCF3869577956795B795F7959F5FD5
:100D8000C9F7880F911D9695879597F90895E1E029
:100D9000660F771F881FBB1F621773078407BA0788
:100DA00020F0621B730B840BBA0BEE1F88F7E095E3
:100DB000089598D088F09F5790F0B92F9927B75190
:100DC000A0F0D1F0660F771F881F991F1AF0BA950F
:100DD000C9F712C0B13081F09FD0B1E008959CC036
:100DE000672F782F8827B85F39F0B93FCCF3869505
:100DF00077956795B395D9F73EF490958095709562
:100E000061957F4F8F4F9F4F0895E89409C097FBDE
:100E10003EF490958095709561957F4F8F4F9F4FD1
:100E20009923A9F0F92F96E9BB279395F695879515
:100E300077956795B795F111F8CFFAF4BB0F11F4D8
:100E400060FF1BC06F5F7F4F8F4F9F4F16C088237F
:100E500011F096E911C0772321F09EE8872F762FB5
:100E600005C0662371F096E8862F70E060E02AF0F6
:100E70009A95660F771F881FDAF7880F96958795E2
:100E800097F9089597F99F6780E870E060E008950A
:100E90009FEF80EC089500240A9416161706180692
:100EA0000906089500240A9412161306140605066E
:100EB0000895092E0394000C11F4882352F0BB0FFF
:100EC00040F4BF2B11F460FF04C06F5F7F4F8F4F62
:100ED0009F4F089557FD9058440F551F59F05F3F9D
:100EE00071F04795880F97FB991F61F09F3F79F04C
:100EF00087950895121613061406551FF2CF4695CE
:100F0000F1DF08C0161617061806991FF1CF86954F
:100F10007105610508940895E894BB276627772733
:100F2000CB0197F908950BD0C4CFB5DF28F0BADF15
:100F300018F0952309F0A6CFABCF1124EECFCADF6E
:100F4000A0F3959FD1F3950F50E0551F629FF001DC
:100F5000729FBB27F00DB11D639FAA27F00DB11D35
:100F6000AA1F649F6627B00DA11D661F829F2227BE
:100F7000B00DA11D621F739FB00DA11D621F839F45
:100F8000A00D611D221F749F3327A00D611D231F1B
:100F9000849F600D211D822F762F6A2F11249F5769
:100FA00050408AF0E1F088234AF0EE0FFF1FBB1F8C
:100FB000661F771F881F91505040A9F79E3F51052B
:100FC00070F060CFAACF5F3FECF3983EDCF38695DC
:100FD00077956795B795F795E7959F5FC1F7FE2BD6
:100FE000880F911D9695879597F908952F923F92B6
:100FF0004F925F926F927F928F929F92AF92BF9229
:10100000CF92DF92EF92FF920F931F93CF93DF93D4
:10101000CDB7DEB763970FB6F894DEBF0FBECDBF76
:101020007C011B016A01FC0117821682838181FF0A
:1010300066C3BE016F5F7F4F4B01F7019381F101E2
:1010400093FD859193FF81911F01882309F453C378
:10105000853239F493FD859193FF81911F0185328B
:1010600039F4B70190E00E94D90C56016501E5CF33
:1010700010E0512C20E02032A0F48B3269F030F4E3
:10108000803259F0833269F420612CC08D3239F0FE
:10109000803339F4216026C02260246023C0286098
:1010A00021C027FD27C030ED380F3A3078F426FFF5
:1010B00006C0FAE01F9F300D1124132F13C06AE001
:1010C000569E300D1124532E20620CC08E3221F416
:1010D00026FD11C3206406C08C3611F4206802C0BE
:1010E000883641F4F10193FD859193FF81911F01B1
:1010F0008111C1CF9BEB980F933018F42061805E73
:1011000006C09BE9980F933008F0AAC12F7E26FFF6
:1011100016E02F73722E853621F4F22FF0647F2EA5
:1011200008C0863621F4622F6068762E02C0111145
:10113000115077FE07C01C3348F444244394410EF9
:1011400027E00BC0183030F4212F06C027E04CE315
:10115000442E03C027E017E0412C560174E0A70E8F
:10116000B11CF6016081718182819381042DA401FB
:101170000E949A0B6C01098100FF02C003FF06C0A8
:1011800071FC07C072FC08C0612C08C03DE2632EF0
:1011900005C02BE2622E02C090E2692E802F8C7077
:1011A00099F1662011F084E001C083E0851510F00C
:1011B000512C0BC0581A73FC08C0B70180E290E0B4
:1011C0000E94D90C5A94C9F7F3CF662029F0B701D1
:1011D000862D90E00E94D90C03FD03C003EF10E0C0
:1011E00002C00FEE10E0F72DF0717F2EF801849110
:1011F000882309F476C271108052B70190E00E94F2
:10120000D90C0F5F1F4FF2CF77FE0FC04C0C04FFBD
:1012100004C08A81813309F44A94141474F5F8E007
:10122000F41578F588E0482E2CC076FC2AC0812F72
:1012300090E08C159D059CF06CEFC6166FEFD606FE
:1012400074F0772D7068772E0AC0E2E0F0E0EC0FC2
:10125000FD1FE10FF11D8081803319F41150111130
:10126000F4CF77FE0EC044244394410E812F90E0CA
:10127000C816D9062CF41C1904C04424439401C098
:1012800010E077FE07C01C141D043CF496012F5F8C
:101290003F4F05C025E030E002C021E030E066208D
:1012A00011F02F5F3F4F112331F0412F50E04F5F7E
:1012B0005F4F240F351F452D50E02417350714F4D8
:1012C000521A01C0512C872D897049F4552039F0EC
:1012D000B70180E290E00E94D90C5A94F7CF6620C3
:1012E00029F0B701862D90E00E94D90C73FC09C04B
:1012F000552039F0B70180E390E00E94D90C5A9450
:10130000F7CF77FE5FC09C2D8D2DD7FE02C090E0F9
:1013100080E0692E782E40E050E0C60184199109E2
:101320009D878C87960126193709280D391D812F35
:1013300090E0EE27FF27E81BF90BFF87EE87FFEF12
:101340006F167F0669F4B7018EE290E02B8B3A8B23
:10135000488B598B0E94D90C598948893A892B8925
:10136000C614D70454F06C857D85661577052CF47A
:10137000F901E40FF51F818101C080E371E0671A74
:1013800071084F5F5F4FEE85FF856E167F066CF02C
:10139000B70190E02B8B3A8B488B598B0E94D90C6C
:1013A0002B893A8948895989CACF6C147D0439F44C
:1013B0009A81963318F4953311F404FF81E3B70151
:1013C00090E04BC08A81813309F00F7EB70190E035
:1013D0000E94D90C111105C074FE18C085E490E07C
:1013E00017C0B7018EE290E00E94D90C82E066241B
:1013F0006394680EF401E80FF11D8081B70190E05D
:101400000E94D90C115041F3862DF1CF85E690E072
:10141000B7010E94D90CD7FC05C0C114D10439F41E
:1014200004FF05C0D194C194D1088DE201C08BE2C4
:10143000B70190E00E94D90C80E36AE0C616D1049F
:101440002CF08F5FFAE0CF1AD108F7CFB70190E008
:101450000E94D90CB701C601C0960E94D90C41C1A7
:10146000833631F0833779F0833509F058C021C0D5
:10147000560172E0A70EB11CF6018081898301E05C
:1014800010E0640114C05601F2E0AF0EB11CF60189
:10149000C080D18026FF03C0612F70E002C06FEFD3
:1014A0007FEFC6012B8B0E94900C8C012B892F772C
:1014B00015C05601F2E0AF0EB11CF601C080D1801C
:1014C00026FF03C0612F70E002C06FEF7FEFC601FF
:1014D0002B8B0E94850C8C012B892068722E23FD9A
:1014E0001AC0852D90E008171907A8F4B70180E20B
:1014F00090E00E94D90C5A94F4CFF60177FC8591C4
:1015000077FE81916F01B70190E00E94D90C5110D4
:101510005A94015011090115110579F7E2C084367A
:1015200011F0893651F5560127FF09C0F4E0AF0EDE
:10153000B11CF60160817181828193810AC0F2E061
:10154000AF0EB11CF60160817181882777FD80950F
:10155000982F022F0F7697FF08C090958095709571
:1015600061957F4F8F4F9F4F00682AE030E0A401C4
:101570000E94240DC82EC8183EC0022F853721F4C2
:101580000F7E2AE030E01DC0097F8F3691F018F4FD
:10159000883559F0B0C0803719F0883711F0ABC0EA
:1015A000006104FF09C0046007C024FF08C0066092
:1015B00006C028E030E005C020E130E002C020E1B4
:1015C00032E0560107FF09C0F4E0AF0EB11CF6018E
:1015D000608171818281938108C0F2E0AF0EB11CFD
:1015E000F6016081718180E090E0A4010E94240DE9
:1015F000C82EC8180F7706FF0BC0202F2E7FC116EC
:1016000050F404FF0AC002FD08C0202F2E7E05C042
:10161000DC2C202F03C0DC2C01C0D12E24FF0DC0F8
:10162000FE01EC0DF11D8081803311F4297E09C08B
:1016300022FF06C0D394D39404C0822F867809F089
:10164000D39423FD13C020FF06C01C2DD51418F41D
:10165000150D1D19D52CD51468F4B70180E290E062
:101660002B8B0E94D90CD3942B89F5CFD51410F471
:101670005D1801C0512C24FF12C0B70180E390E037
:101680002B8B0E94D90C2B8922FF17C021FF03C08E
:1016900088E590E002C088E790E0B7010CC0822F97
:1016A000867859F021FD02C080E201C08BE227FD5F
:1016B0008DE2B70190E00E94D90CC11638F4B70151
:1016C00080E390E00E94D90C1150F7CFCA94F40146
:1016D000EC0DF11D8081B70190E00E94D90CC11082
:1016E000F5CF552009F4C2CCB70180E290E00E940A
:1016F000D90C5A94F6CFF7018681978102C08FEFFB
:101700009FEF63960FB6F894DEBF0FBECDBFDF919B
:10171000CF911F910F91FF90EF90DF90CF90BF90EE
:10172000AF909F908F907F906F905F904F903F9081
:101730002F900895283008F027E03327DA01990F19
:10174000311D87FD916000966105710539F43260A5
:101750002E5F3D9330E32A95E1F708959F3F30F0E7
:1017600080387105610509F03C5F3C5F3D93913025
:1017700008F08068911DDF93CF931F930F93FF9222
:10178000EF92192F987F9695E92F96959695E90FE8
:10179000FF27EF5AFE4F99273327EE24FF24A70196
:1017A000E70105900894079428F4360FE71EF81E09
:1017B000491F511D660F771F881F991F0694A1F7B7
:1017C0000590079428F4E70EF81E491F561FC11D07
:1017D000770F881F991F661F0694A1F7059007943D
:1017E00028F4F80E491F561FC71FD11D880F991FD7
:1017F000661F771F0694A1F70590079420F4490F00
:10180000561FC71FD81F990F661F771F881F069482
:10181000A9F784911095177041F0D695C795579503
:101820004795F794E7941A95C1F7E7EFF0E06894CD
:101830001590159135916591959105907FE273957D
:10184000E118F10A430B560BC90BD009C0F7E10CA4
:10185000F11E431F561FC91FD01D7EF4703311F4B3
:101860008A95E6CFE894015030F0080F0AF400277B
:10187000021708F4202F2395022F7A3328F079E3FA
:101880007D932A95E9F710C07D932A9589F60694F1
:1018900097956795379517951794E118F10A430BBB
:1018A000560BC90BD00998F023957E9173957A3326
:1018B00008F070E37C932013B8F77E9170617D93FC
:1018C00030F0839571E37D9370E32A95E1F711245D
:1018D000EF90FF900F911F91CF91DF91992787FD96
:1018E0009095089591110EC1803219F0895085505C
:1018F000D0F70895FC010590061621F00020D9F7D5
:10190000C00108953197CF010895FC010590615001
:1019100070400110D8F7809590958E0F9F1F089505
:10192000FC016150704001900110D8F780959095AE
:101930008E0F9F1F0895CF93DF93EC012B8120FF23
:1019400033C026FF0AC02F7B2B838E819F81019697
:101950009F838E838A8190E029C022FF0FC0E88197
:10196000F9818081992787FD9095009719F420626D
:101970002B831AC03196F983E8830EC0EA85FB8574
:10198000099597FF09C02B81019611F480E101C0F0
:1019900080E2822B8B8308C02E813F812F5F3F4FD7
:1019A0003F832E83992702C08FEF9FEFDF91CF9166
:1019B00008950F931F93CF93DF93182F092FEB01F7
:1019C0008B8181FD03C08FEF9FEF20C082FF10C08D
:1019D0004E815F812C813D81421753077CF4E88161
:1019E000F9819F012F5F3F4F39832883108306C001
:1019F000E885F985812F0995892B29F72E813F816B
:101A00002F5F3F4F3F832E83812F902FDF91CF9108
:101A10001F910F910895FB01238120FF12C026FD25
:101A200010C08F3F3FEF930761F082832F7D2064CA
:101A300023832681378121503109378326839927D3
:101A400008958FEF9FEF0895FA01AA27283051F1EA
:101A5000203181F1E8946F936E7F6E5F7F4F8F4FDF
:101A60009F4FAF4FB1E03ED0B4E03CD0670F781F3E
:101A7000891F9A1FA11D680F791F8A1F911DA11D23
:101A80006A0F711D811D911DA11D20D009F468945C
:101A90003F912AE0269F11243019305D3193DEF604
:101AA000CF010895462F4770405D4193B3E00FD0BA
:101AB000C9F7F6CF462F4F70405D4A3318F0495DA5
:101AC00031FD4052419302D0A9F7EACFB4E0A69588
:101AD0009795879577956795BA95C9F700976105AA
:101AE000710508959B01AC010A2E06945795479500
:101AF00037952795BA95C9F7620F731F841F951FF5
:0E1B0000A01D0895992788270895F894FFCF17
:061B0E00486F6C6100004D
:00000001FF
