:100000000C94F9000C9410010C9410010C94100144
:100010000C9410010C9410010C9410010C9410011C
:100020000C9410010C9410010C9410010C9410010C
:100030000C9410010C9410010C9410010C941001FC
:100040000C9410010C9410010C9410010C941001EC
:100050000C9410010C9410010C9410010C941001DC
:100060000C9410010C9410010C9410010C941001CC
:100070000C9410010C9410010C9410010C941001BC
:100080000C9410010C9410010C9410010C941001AC
:100090000C9410010C9410010C9410010C9410019C
:1000A0000C9410010C9410010C9410010C9410018C
:1000B0000C9410010C9410010C9410010C9410017C
:1000C0000C9410010C9410010C9410010C9410016C
:1000D0000C9410010C9410010C9410010C9410015C
:1000E0000C9410016364696E6F7073757858006EBC
:1000F000616E00696E660000407A10F35A00A072CB
:100100004E18090010A5D4E80000E8764817000052
:10011000E40B54020000CA9A3B000000E1F5050020
:100120000080969800000040420F000000A0860169
:10013000000000102700000000E803000000006439
:1001400000000000000A00000000000100000000A4
:10015000002C76D888DC674F0823DFC1DFAE59E179
:10016000B1B796E5E3E453C63AE651997696E8E6E8
:10017000C28426EB898C9B62ED407C6FFCEFBC9CBB
:100180009F40F2BAA56FA5F490055A2AF75C936BCD
:100190006CF9676DC11BFCE0E40D47FEF520E6B588
:1001A00000D0ED902E0300943577050080841E0862
:1001B0000000204E0A000000C80C333333330F9880
:1001C0006E12831141EF8D2114893BE65516CFFE47
:1001D000E6DB18D1844B381BF77C1D901DA4BBE4D3
:1001E00024203284725E228100C9F124ECA1E53D15
:1001F000270011241FBECFEFD1E2DEBFCDBF12E03A
:10020000A0E0B2E0EAE0F4E100E00BBF02C007903A
:100210000D92A630B107D9F70E9412010C94030A7F
:100220000C940000DF93CF93CDB7DEB7CE5ED34002
:100230000FB6F894DEBF0FBECDBF1A8219821C82A2
:100240001B82CE0101966EE170E00E944C0188EEA7
:1002500093E09E838D83FE013796DF019C011D9202
:1002600021503040E1F7CE01059660E072E00E9437
:10027000720180E090E0C251DC4F0FB6F894DEBF0F
:100280000FBECDBFCF91DF910895E1E8F0E080810E
:1002900083608083239A0895FC0189E590E09C01A6
:1002A000629FC001639F900D729F900D1124805832
:1002B000914C9093890080938800718360831382AE
:1002C000128208951092CD0088E08093CC00E9EC72
:1002D000F0E0808188618083EAECF0E080818660D4
:1002E00080830895FB0107C08091C80085FFFCCF83
:1002F0009093CE00319690819923B1F78091C800F8
:1003000085FFFCCF8DE08093CE008091C80085FFF3
:10031000FCCF8AE08093CE0081E090E008959C01BC
:10032000FC013297A0E0B0E08091C80087FFFCCFCD
:100330009091CE00948343814F3411F49B3499F013
:100340008081853451F48181823539F4828182350E
:1003500021F44F3411F4923531F01196319683E047
:10036000A83EB80709F7A20FB31F13961C922E5F81
:100370003F4FC90108959C0150E0A0E0B0E040E08B
:100380008091C80087FFFCCF9091CE00933221F47A
:10039000413211F451E002C05523E9F0F901EA0FAE
:1003A000FB1F92834181433211F49132C9F0F9016C
:1003B000EA0FFB1F329780813296853459F482917F
:1003C0003196823539F48081823521F44F3411F42D
:1003D000923531F01196492F83E0A83EB80784F298
:1003E000A20FB31F13961C922E5F3F4FC9010895B1
:1003F000982F8091C80085FFFCCF9093CE00089580
:100400008091C80087FFFCCF8091CE00089502C084
:100410008091CE008091C80087FFFACF0895109296
:10042000C50080E18093C400E1ECF0E08081886148
:100430008083E2ECF0E08081866080830895FB0198
:1004400007C08091C00085FFFCCF9093C600319615
:1004500090819923B1F78091C00085FFFCCF8DE09A
:100460008093C6008091C00085FFFCCF8AE0809316
:10047000C60081E090E008959C01DC01E0E0F0E03E
:100480008091C00087FFFCCF8091C6008D3049F07D
:100490001196E336F10529F011968C931197319658
:1004A000EFCFE20FF31F12822E5F3F4FC901089575
:1004B000982F8091C00085FFFCCF9093C6000895CF
:1004C0008091C00087FFFCCF8091C600089502C0D4
:1004D0008091C6008091C00087FDFACF0895FC018D
:1004E00020FD08C023FD05C022FF02C07383628384
:1004F000518340830895EF92FF920F931F9344FF1F
:1005000002C033E011C046FF02C034E00DC0DB0181
:10051000FC01AA0FBB1FEE1FFF1F1094D1F76A0F3B
:100520007B1F8E1F9F1F31E0660F771F881F991F4B
:100530003150D1F77B018C01E20EF11C011D111D20
:10054000A8019701B701CA011F910F91FF90EF9089
:1005500008950F931F93CF93DF938C01C8010E94DE
:100560001A09EC0197FD08C00E94F108892BB1F728
:10057000CE01B8010E948809CE01DF91CF911F9171
:100580000F910895AF92BF92CF92DF92EF92FF92B8
:100590000F931F93CF93DF93EC01C62E5A01122FB6
:1005A0000E941A09AC018B3219F08D3251F4106897
:1005B000CA9409F46DC0CE010E941A09AC0197FDDE
:1005C00067C06DEFD62ED1228D2D807301F540339B
:1005D000F1F4CA9409F447C0CE010E941A09AC0193
:1005E00097FD41C082E0D82A483711F0483559F4C8
:1005F00080E4D82ACA94B9F1CE010E941A09AC014C
:1006000099232CF430C0D6FC02C080E1D82AEE2415
:10061000FF248701242F2053283088F0D4FC09C000
:100620002A3068F0D6FE05C02F7D822F815186309A
:1006300028F0CA01BE010E94880912C02750C801D3
:10064000B7014D2D0E947B027B018C0182E0D82AEC
:10065000CA9461F0CE010E941A09AC0197FFDACF6B
:10066000D1FC04C015C0EE24FF248701D7FE08C0CA
:1006700010950095F094E094E11CF11C011D111DF2
:10068000C501B801A7012D2D0E946F0281E001C0B4
:1006900080E0DF91CF911F910F91FF90EF90DF905D
:1006A000CF90BF90AF9008956F927F928F929F925C
:1006B000AF92BF92CF92DF92EF92FF920F931F9370
:1006C000CF93DF935C016B013A01FC011782168224
:1006D0008824DCC0812F90E00E94F108892B21F052
:1006E000C5010E94A902D2C0153249F4F601F3FCFB
:1006F0006591F3FE61916F01653269F415E2C50100
:100700000E941A0997FDCEC0181709F4BFC0B501A1
:100710000E948809CCC06A3219F0162F00E006C08A
:10072000F3FC1591F3FE11916F0101E099240FC0C4
:100730000260692D70E080E090E040E20E947B0260
:10074000962EF601F3FC1591F3FE11916F01212F06
:1007500020532A3068F301FD03C099249A9403C002
:10076000992009F4A4C0183621F01C3691F4F60142
:100770000AC0F601F3FC6591F3FE6191683611F051
:10078000162F06C008600460F3FC1591F3FE11916A
:100790006F01112309F48BC084EE90E0612F70E0AB
:1007A0000E94F908892B09F482C0802F00FF03C042
:1007B000EE24FF2407C0F301E080F18022E030E066
:1007C000620E731E1E3651F4F5014681578160E0BA
:1007D00070E0C701202F0E946F0258C0133691F4B9
:1007E00081FD02C099249394C5010E941A0997FDC6
:1007F00059C0E114F10419F0F70181937F019A9433
:1008000099F742C0C5010E94A90297FD4BC01F364F
:1008100059F1103728F4143629F1193639F527C063
:10082000133719F0153711F51DC0C5010E941A09BB
:10083000EC0197FD11C00E94F108892B29F0CE012F
:10084000B5010E94880908C0E114F10419F0F7010C
:10085000C1937F019A9449F7E114F104A9F0F701DB
:10086000108212C0006203C0006101C00064C501B3
:10087000692DA701202F0E94C202882329F4F501C7
:100880008381807379F413C000FF8394F501F380B2
:10089000F601F3FC1591F3FE11916F01112309F09C
:1008A00019CF05C0882019F42FEF3FEF02C0282D83
:1008B00030E0C901DF91CF911F910F91FF90EF9030
:1008C000DF90CF90BF90AF909F908F907F906F9070
:1008D00008952F923F924F925F926F927F928F92E4
:1008E0009F92AF92BF92CF92DF92EF92FF920F93BF
:1008F0001F93DF93CF93CDB7DEB761970FB6F89410
:10090000DEBF0FBECDBF3C017F876E876A01FC0151
:1009100017821682838181FD03C06FEF7FEF6FC363
:100920009E012F5F3F4F398B288BF3012381EE858A
:10093000FF8523FD859123FF8191FF87EE87882323
:1009400009F45AC3853251F4EE85FF8523FD859164
:1009500023FF8191FF87EE87853229F490E0B30170
:100960000E945C09E2CF982F10E08824992410326D
:10097000B0F49B3269F09C3228F4903251F09332FB
:1009800071F40BC09D3239F0903349F4116028C0E6
:100990001260146025C0186023C0106121C017FDCB
:1009A0002AC0892F80538A3078F416FF06C0FAE0F7
:1009B0009F9E902C1124980E13C03AE0839E802CA9
:1009C0001124880E10620CC09E3221F416FD14C34F
:1009D000106406C09C3611F4106802C0983659F4B1
:1009E000EE85FF8523FD959123FF9191FF87EE878B
:1009F000992309F0BCCF892F8554833020F4812FAF
:100A00008061905E07C0892F8556833008F09FC1B2
:100A1000812F8F7E86FD02C076E0972E6FE3F62E43
:100A2000F822953619F4F0E4FF2A07C0963619F437
:100A300020E8F22A02C091109A94F7FE0AC03BE324
:100A4000391518F45CE3B52E02C0B92CB39427E035
:100A500009C047E0491520F4BB2447E0942EF7CFA6
:100A6000292DBB24C60104969D878C87F6016081E1
:100A7000718182819381AE014F5F5F4F0B2D0E9488
:100A800019086C010981202E332400FF04C003FDE6
:100A900002C01DE209C0F1FE02C01BE205C0F2FC6B
:100AA00002C010E001C010E2C1018C709070892B6F
:100AB000B9F1112311F483E001C084E0881510F02E
:100AC00088240AC0881AF3FC07C080E290E0B301D2
:100AD0000E945C098A94C9F7112329F0812F90E0C4
:100AE000B3010E945C0923FE03C00FEE10E00EC0AC
:100AF00003EF10E00BC0E114F10409F0805290E024
:100B0000B3010E945C090F5F1F4F05C0EF2CFF244B
:100B1000F0E1EF22FF24F8018491882361F714C1EA
:100B2000F7FE12C0BC0C24FE04C08A81813309F494
:100B3000BA941B141CF0BB24B3942DC0F8E0FB1531
:100B400050F538E0B32E27C0F6FC25C0892D90E083
:100B50008C159D054CF02CEFC2162FEFD20624F019
:100B600030E8F32A01C09A94992049F0E2E0F0E0DD
:100B7000EC0FFD1FE90DF11D80818033A1F3F7FE1D
:100B80000AC0B92CB394892D90E0C816D90614F088
:100B9000992401C09C18F7FC03C025E030E009C08F
:100BA0001C141D041CF021E030E003C096012F5FEF
:100BB0003F4F112311F02F5F3F4F992029F0892DCE
:100BC00090E00196280F391F882D90E028173907EB
:100BD00014F0882401C0821A4F2C5524C201897058
:100BE0009070892B39F008C080E290E0B3010E9438
:100BF0005C098A948820C1F7112329F0812F90E0A5
:100C0000B3010E945C0943FE07C008C080E390E086
:100C1000B3010E945C098A948820C1F7F7FE46C0A0
:100C20008601D7FE02C000E010E076010894E11CC6
:100C3000F11CE01AF10A41E050E04C0F5D1FE40E98
:100C4000F51E26014B185108892D90E0AA24BB24DB
:100C5000A81AB90A5FEF0F3F150729F48EE290E05A
:100C6000B3010E945C09C016D10634F0401651064B
:100C70001CF4F701808101C080E30150104008940A
:100C8000E11CF11C0A151B052CF090E0B3010E9439
:100C90005C09E0CF0C151D0539F49A81963318F4E0
:100CA000953311F424FE81E390E04BC08A818133B7
:100CB00009F00F7E90E0B3010E945C099920A1F039
:100CC0008EE290E0B3010E945C0912E0E1E0F0E006
:100CD000EC0FFD1FE10FF11D1F5F808190E0B3015C
:100CE0000E945C099A9491F744FC03C085E690E069
:100CF00002C085E490E0B3010E945C09D7FC05C006
:100D0000C114D10441F404FF06C0D094C194D108A9
:100D1000D3948DE201C08BE290E0B3010E945C09A4
:100D200080E305C08F5F26EF3FEFC20ED31E3AE08F
:100D3000C316D104BCF790E0B3010E945C09C60160
:100D4000C096B3010E945C09CC84DD8452C1933605
:100D500031F0933799F0933509F059C023C0F6016B
:100D6000808189835E010894A11CB11C22E030E0DF
:100D7000C20ED31E21E0E22EF12C12C0F601A0809B
:100D8000B18016FD03C06FEF7FEF02C0692D70E0E8
:100D900022E030E0C20ED31EC5010E940F097C0183
:100DA0001F7713C0F601A080B18016FD03C06FEF5E
:100DB0007FEF02C0692D70E022E030E0C20ED31E4A
:100DC000C5010E9404097C01106813FF07C01BC005
:100DD00080E290E0B3010E945C098A94882D90E043
:100DE000E816F906A8F30FC0F50117FD859117FF66
:100DF00081915F0190E0B3010E945C0981108A94A7
:100E00000894E108F108E114F10471F7F2C0943696
:100E100011F0993689F517FF08C0F601208131815C
:100E20004281538184E090E00AC0F6018081918183
:100E30009C01442737FD4095542F82E090E0C80E76
:100E4000D91E9FE6F92EF12257FF09C05095409513
:100E5000309521953F4F4F4F5F4F90E8F92ACA01D7
:100E6000B901AE014F5F5F4F2AE030E00E94A20956
:100E7000E82EE889EE1A41C0953721F41F7E2AE05A
:100E800030E01CC0197F9F3661F0903720F4983510
:100E900009F0B2C00FC0903739F0983709F0ACC0F4
:100EA00004C028E030E00AC0106114FD146020E1A5
:100EB00030E004C014FD166020E132E017FF08C0E6
:100EC000F601608171818281938144E050E008C025
:100ED000F60180819181BC0180E090E042E050E029
:100EE000C40ED51EAE014F5F5F4F0E94A209E82ECF
:100EF0005889E51A8FE7F82EF122F6FE0BC08EEF27
:100F0000F822E91438F4F4FE07C0F2FC05C09FEEA5
:100F1000F92202C01E2D01C0192DF4FE0DC0FE01E4
:100F2000EE0DF11D8081803319F4E9EEFE2208C038
:100F30001F5FF2FE05C003C08F2D867809F01F5F8A
:100F40000F2DF3FC14C0F0FE0FC0181510F09E2CEE
:100F50000BC09E2C980C911A182D06C080E290E0D0
:100F6000B3010E945C091F5F1815C0F304C0181577
:100F700010F4811A01C0882404FF0FC080E390E0C0
:100F8000B3010E945C0902FF1DC001FD03C088E798
:100F900090E00EC088E590E00BC0802F867891F03D
:100FA00001FF02C08BE201C080E2F7FC8DE290E01D
:100FB000B3010E945C0906C080E390E0B3010E9487
:100FC0005C099A94E914C0F3EA94E1E0F0E0EC0FD4
:100FD000FD1FEE0DF11D808190E0B3010E945C09C0
:100FE000EE2091F706C080E290E0B3010E945C0918
:100FF0008A948820C1F799CCF30166817781CB016F
:1010000061960FB6F894DEBF0FBECDBFCF91DF91D2
:101010001F910F91FF90EF90DF90CF90BF90AF9016
:101020009F908F907F906F905F904F903F902F9008
:101030000895283008F027E03327DA01990F311D91
:1010400087FD916000966105710539F432602E5F6D
:101050003D9330E32A95E1F708959F3F30F08038C3
:101060007105610509F03C5F3C5F3D93913008F0EC
:101070008068911DDF93CF931F930F93FF92EF92A0
:10108000192F987F9695E92F96959695E90FFF274A
:10109000EF5AFE4F99273327EE24FF24A701E701DB
:1010A00005900894079428F4360FE71EF81E491F90
:1010B000511D660F771F881F991F0694A1F7059091
:1010C000079428F4E70EF81E491F561FC11D770F1D
:1010D000881F991F661F0694A1F70590079428F4AE
:1010E000F80E491F561FC71FD11D880F991F661F75
:1010F000771F0694A1F70590079420F4490F561F17
:10110000C71FD81F990F661F771F881F0694A9F75E
:1011100084911095177041F0D695C79557954795CE
:10112000F794E7941A95C1F7E7EFF0E0689415900B
:10113000159135916591959105907FE27395E11830
:10114000F10A430B560BC90BD009C0F7E10CF11E95
:10115000431F561FC91FD01D7EF4703311F48A95AA
:10116000E6CFE894015030F0080F0AF40027021788
:1011700008F4202F2395022F7A3328F079E37D930A
:101180002A95E9F710C07D932A9589F606949795DC
:101190006795379517951794E118F10A430B560B8D
:1011A000C90BD00998F023957E9173957A3308F096
:1011B00070E37C932013B8F77E9170617D9330F0DB
:1011C000839571E37D9370E32A95E1F71124EF9005
:1011D000FF900F911F91CF91DF91992787FD9095F7
:1011E000089591110DC1803219F089508550D0F7C2
:1011F0000895FC010590061621F00020D9F7C001E2
:1012000008953197CF010895FC0105906150704019
:101210000110D8F7809590958E0F9F1F0895FC01BF
:101220006150704001900110D8F7809590958E0F15
:101230009F1F0895CF93DF93EC014B8140FF1AC0AD
:1012400046FF0AC04F7B4B838E819F8101969F830F
:101250008E838A81282F2BC042FF13C0E881F98139
:101260008081282F332727FD30952115310529F45A
:1012700040624B832FEF3FEF1BC03196F983E88329
:1012800011C0EA85FB85CE0109959C0197FF0AC034
:101290009B812F5F3F4F11F080E201C080E1892BDD
:1012A0008B83E8CF8E819F8101969F838E8330E070
:1012B000C901DF91CF9108950F931F93CF93DF93CF
:1012C0008C01EB018B8181FF1BC082FF0DC02E8141
:1012D0003F818C819D812817390764F4E881F98169
:1012E0000193F983E88306C0E885F985802F099585
:1012F000892B31F48E819F8101969F838E8302C05A
:101300000FEF1FEFC801DF91CF911F910F9108954B
:101310009C01FB01838180FF11C086FD0FC09FEF00
:101320002F3F390759F0228380648F7D8383868124
:10133000978101979783868330E002C02FEF3FEFBC
:10134000C9010895FA01AA27283051F1203181F10D
:10135000E8946F936E7F6E5F7F4F8F4F9F4FAF4FBD
:10136000B1E03ED0B4E03CD0670F781F891F9A1FD0
:10137000A11D680F791F8A1F911DA11D6A0F711D84
:10138000811D911DA11D20D009F468943F912AE090
:10139000269F11243019305D3193DEF6CF01089578
:1013A000462F4770405D4193B3E00FD0C9F7F6CFA9
:1013B000462F4F70405D4A3318F0495D31FD405271
:1013C000419302D0A9F7EACFB4E0A6959795879507
:1013D00077956795BA95C9F70097610571050895E6
:1013E0009B01AC010A2E0694579547953795279592
:1013F000BA95C9F7620F731F841F951FA01D08952A
:0A140000992788270895F894FFCF7C
:06140A00486F6C61000058
:00000001FF
