:100000000C94F9000C9418010C9418010C9418012C
:100010000C9418010C9418010C9418010C941801FC
:100020000C9418010C9418010C9418010C941801EC
:100030000C9418010C9418010C9418010C941801DC
:100040000C9418010C9418010C9418010C941801CC
:100050000C9418010C9418010C9418010C941801BC
:100060000C9418010C9418010C9418010C941801AC
:100070000C9418010C9418010C9418010C9418019C
:100080000C9418010C9418010C9418010C9418018C
:100090000C9418010C9418010C9418010C9418017C
:1000A0000C9418010C9418010C9418010C9418016C
:1000B0000C9418010C9418010C9418010C9418015C
:1000C0000C9418010C9418010C9418010C9418014C
:1000D0000C9418010C9418010C9418010C9418013C
:1000E0000C9418016364696E6F7073757858006EB4
:1000F000616E00696E660000407A10F35A00A072CB
:100100004E18090010A5D4E80000E8764817000052
:10011000E40B54020000CA9A3B000000E1F5050020
:100120000080969800000040420F000000A0860169
:10013000000000102700000000E803000000006439
:1001400000000000000A00000000000100000000A4
:10015000002C76D888DC674F0823DFC1DFAE59E179
:10016000B1B796E5E3E453C63AE651997696E8E6E8
:10017000C28426EB898C9B62ED407C6FFCEFBC9CBB
:100180009F40F2BAA56FA5F490055A2AF75C936BCD
:100190006CF9676DC11BFCE0E40D47FEF520E6B588
:1001A00000D0ED902E0300943577050080841E0862
:1001B0000000204E0A000000C80C333333330F9880
:1001C0006E12831141EF8D2114893BE65516CFFE47
:1001D000E6DB18D1844B381BF77C1D901DA4BBE4D3
:1001E00024203284725E228100C9F124ECA1E53D15
:1001F000270011241FBECFEFD1E2DEBFCDBF12E03A
:10020000A0E0B2E0E8E4F3E200E00BBF02C0079038
:100210000D92A433B107D9F722E0A4E3B2E001C004
:100220001D92A933B207E1F70E9411050C94A211A7
:100230000C940000615071099B0140E050E060E4C3
:1002400072E48FE090E00E94CF0C832F9927809377
:10025000C5002093C400E1ECF0E0808188618083D8
:10026000E2ECF0E080818660808308959091C00088
:1002700095FFFCCF8093C6000895CF93DF93EB01E9
:100280008991882319F00E943601FACFDF91CF912E
:1002900008958091C00087FFFCCF8091C60008952B
:1002A0000F931F93CF93DF938C01C0E0D0E00E94A7
:1002B00049018D3051F4C00FD11F1A82C801029636
:1002C000DF91CF911F910F910895C336D10599F316
:1002D0002196F801EC0FFD1F8183E9CF8091C000CA
:1002E00087FF03C08091C600F9CF08959FB788E4C7
:1002F0008093B800E9EBF0E080818C7F808388B147
:10030000806388B985E48093BC001092BA009FBFD7
:1003100008951092BC0094EA9093BC009091BC00A8
:1003200097FFFCCF9091B900987F983099F4809313
:10033000BB0084E88093BC008091BC0087FFFCCFA9
:100340009091B900987F983119F081E0903419F4B8
:1003500080E0089581E008958093BB0084E8809355
:10036000BC008091BC0087FFFCCF9091B900987FC2
:1003700081E0983209F480E0089584EC8093BC0019
:100380008091BC0087FFFCCF8091BB00089584E87A
:100390008093BC008091BC0087FFFCCF8091BB00A4
:1003A0000895EF92FF920F931F93CF93DF9300D0A6
:1003B000CDB7DEB78A0169837A830E94890169819A
:1003C0007A8181110DC07B010E0D1F1DE016F10613
:1003D00049F0F70181917F010E94AC018823B1F3BC
:1003E00081E004C084E98093BC0080E00F900F900E
:1003F000DF91CF911F910F91FF90EF900895EF92B1
:10040000FF920F931F93CF93DF93EB017A018160EB
:100410000E94890181111AC08E0181E0E81AF10859
:10042000C8018C1B9D0B8E159F0530F40E94BD01E9
:10043000F80181938F01F4CFCE0DDF1D0E94C7011B
:10044000888384E98093BC0080E001C081E0DF9173
:10045000CF911F910F91FF90EF900895CF92DF926F
:10046000EF92FF920F931F93CF93DF931F92CDB71D
:10047000DEB78A01790169830E9489016981882335
:1004800011F081E015C0862F0E94AC0167010E0DAE
:100490001F1DC016D10641F0F60181916F010E9427
:1004A000AC018823B1F3EDCF84E98093BC0080E0F8
:1004B0000F90DF91CF911F910F91FF90EF90DF9000
:1004C000CF900895CF93DF931F92CDB7DEB74983C6
:1004D0009E012F5F3F4F41E050E00E942E020F909F
:1004E000DF91CF910895CF92DF92EF92FF920F9319
:1004F0001F93CF93DF931F92CDB7DEB7182F7A01EA
:10050000690169830E9489016981882311F081E072
:1005100020C0862F0E94AC01812F81600E9489013A
:100520008111F5CF860181E0E81AF108C8018C1924
:100530009D098E159F0530F40E94BD01F80181933D
:100540008F01F4CFEC0CFD1C0E94C701F7018083E2
:1005500080E00F90DF91CF911F910F91FF90EF906E
:10056000DF90CF9008959A0141E050E00C9473021F
:10057000FF920F931F93CF93DF931F92CDB7DEB7F8
:10058000F42E8901AE014F5F5F4F0E94B30261E01C
:1005900070E001C0660FFA94EAF799819623F8019A
:1005A000908394E99093BC000F90DF91CF911F91BD
:1005B0000F91FF900895FF920F931F93CF93DF93B6
:1005C00000D0CDB7DEB7F42EAE014F5F5F4F2A8368
:1005D0000E94B3022A818823F1F04F2D50E0421B84
:1005E00051094F5F5F4F61E070E002C0660F771FF7
:1005F0002A95E2F761507109042E01C0660F0A9432
:10060000EAF72981262330E002C0359527954A95DF
:10061000E2F7F801208394E99093BC000F900F90CB
:10062000DF91CF911F910F91FF900895FF920F934B
:100630001F93CF93DF9300D0CDB7DEB7182F062FCF
:10064000F42EAE014F5F5F4F2A830E94B30289816F
:100650002A81222351F021E030E00F2C01C0220F2B
:100660000A94EAF7482F422B09C021E030E001C08C
:10067000220FFA94EAF7422F409548234983602FCE
:10068000812F0E9462020F900F90DF91CF911F91F6
:100690000F91FF900895EF92FF920F931F93CF93C6
:1006A000DF9300D0CDB7DEB7F82EE62E142FAE01C3
:1006B0004F5F5F4F2A830E94B3022A81882319F17A
:1006C000412F50E0421B51094F5F5F4FE1E0F0E0E6
:1006D00002C0EE0FFF1F2A95E2F73197042E01C0EA
:1006E000EE0F0A94EAF701C0000F4A95EAF74E2F81
:1006F000409589814823E0234E2B49836E2D8F2D11
:100700000E94620201C080E00F900F90DF91CF91B4
:100710001F910F91FF90EF90089584E98093BC00A2
:1007200008950E9476012FEF81EE94E021508040E1
:100730009040E1F700C0000008950895CF93DF9343
:10074000EC01AC0165E780ED0E94B302888181373E
:1007500049F4AE0160E08CE00E94B30288818834E5
:1007600019F003C080E001C081E0DF91CF910895CE
:10077000CF92DF92EF92FF920F931F93CF93DF936D
:100780001F92CDB7DEB7182F43E46AE680ED998358
:100790000E94620240E06AE180ED0E94620241E84C
:1007A0006BE680ED0E9462024FEF63E280ED0E94F3
:1007B000620240E06BE180ED0E94620240E06CE189
:1007C00080ED0E9462024CE865E280ED0E946202C8
:1007D00043E066E280ED0E94620246EA67E280ED55
:1007E0000E94620240E866E380ED0E946202C12E30
:1007F0009981D92E03E010E088E090E00E94120D6C
:100800007C01D60191969C938E93909788E090E01E
:100810000E94120DF60191AF80AF88E090E00E9437
:10082000120DF601E05BFF4F91838083D70117968D
:100830001C92D601D8968D919C91D997DC01179680
:100840001C920190F081E02D178201501109B2E055
:10085000CB0ED11C0115110579F60F90DF91CF91C8
:100860001F910F91FF90EF90DF90CF900895CF925E
:10087000DF92EF92FF920F931F93CF93DF93EC01E0
:100880009C014EE050E06BE380ED0E947302888192
:1008900090E0982F88272981822B9F878E878A81D5
:1008A00090E0982F88272B81822B998B888B8C81C5
:1008B00090E0982F88272D81822B9B8B8A8B8885AF
:1008C00090E0982F88272985822B9FA38EA38A8565
:1008D00090E0982F88272B85822B99A788A78C8555
:1008E00090E0982F88272D85822B9BA78AA79E01B1
:1008F00042E050E069E48CE00E947302898190E05C
:10090000982F88272881822B9FAF8EAFFE01E05C55
:10091000FF4F8B8190E0982F88272A81822B91832B
:10092000808332968D8190E0982F88272E81822BAC
:10093000918380837E01C12CD12C8E859F8597FF6A
:1009400002C08150904CBC01770F660B770F762F59
:10095000661F882777FD8095982F0E943C0820E02D
:1009600030E044EB52E40E94C808F701648B758BB9
:10097000868B978B6EAD7FAD882777FD8095982FFE
:100980000E943C0820E030EF4FEF56E40E94A107A0
:1009900020E030E849E955E40E94C8080E940908AF
:1009A0007FAF6EAF08A119A16E857F85882777FD7F
:1009B0008095982F0E943C0823E047E00E94F10CAC
:1009C00008AD19ADF70164A575A586A597A523E027
:1009D00047E00E94F10CFE01E05BFF4F00811181B6
:1009E0006EAD7FAD882777FD8095982F0E943C08DB
:1009F00023E047E00E94F10CFFEFCF1ADF0A2296B6
:100A000084E0E80EF11CE3E0CE16D10409F095CFA6
:100A1000DF91CF911F910F91FF90EF90DF90CF90DA
:100A20000895CF93DF93CDB7DEB7C054D4400FB64F
:100A3000F894DEBF0FBECDBF88EE93E09A83898322
:100A4000FE013396DF019C011D9221503040E1F7F9
:100A5000CE0185519C4F0E94910360E071EECE0162
:100A600001960E941A01CE0185519C4F0E94B80345
:100A7000CE0185519C4F0E949E03882319F064E0AB
:100A800072E002C060E072E0CE0101960E943D017A
:100A90003FEF85EA9EE0315080409040E1F700C092
:100AA0000000CE0185519C4F0E94370464E172E042
:100AB000CE0101960E943D0163E272E0CE010196F3
:100AC0000E943D0165E272E0CE0101960E943D0167
:100AD000C55FDB4F68817981CB50D440CE01019650
:100AE0000E943D0169E272E0CE0101960E943D0143
:100AF0006BE272E0CE0101960E943D01C35FDB4FC5
:100B000068817981CD50D440CE0101960E943D018B
:100B100069E272E0CE0101960E943D016FE272E04F
:100B2000CE0101960E943D01C15FDB4F6881798152
:100B3000CF50D440CE0101960E943D0163E272E0A5
:100B4000A3CF20FD09C0FC0123FD05C022FF02C088
:100B50007383628351834083089544FD10C046FD32
:100B600010C0DB01FC01AA0FBB1FEE1FFF1F10947A
:100B7000D1F76A0F7B1F8E1F9F1F31E003C033E048
:100B800001C034E0660F771F881F991F3150D1F7DD
:100B9000620F711D811D911D08950F931F93CF93B7
:100BA000DF938C01C8010E943A0FEC0197FD08C049
:100BB0000E94110F892BB1F7B801CE010E94AA0F34
:100BC000CE01DF91CF911F910F9108958F929F9247
:100BD000AF92CF92DF92EF92FF920F931F93CF933A
:100BE000DF93EC01A62E4A01022F0E943A0FAC01BE
:100BF00055274B32510521F04D32510551F4006813
:100C0000AA9411F480E067C0CE010E943A0F97FDCC
:100C1000F9CF102F1D7F302F307301F58033F1F4A1
:100C2000FF24FA94FA0C09F442C0CE010E943A0F54
:100C300097FD3DC0382F3F7D383551F41264AA949A
:100C4000AA94A9F1CE010E943A0F97FF07C02FC0C6
:100C500006FF02C0126001C01261AF2CC12CD12C62
:100C6000760120ED280F283080F014FF04C0BE016B
:100C70000E94AA0F19C02A3040F016FFF8CF2F7D2E
:100C80003FEE320F363098F72750412FC701B6019B
:100C90000E94AD056B017C011260AA9459F0CE014F
:100CA0000E943A0F97FFDDCF11FD04C0ABCFC12CDE
:100CB000D12C760117FF08C0F094E094D094C09432
:100CC000C11CD11CE11CF11C212FB701A601C401DC
:100CD0000E94A10581E0DF91CF911F910F91FF90BC
:100CE000EF90DF90CF90AF909F908F9008954F92AC
:100CF0005F927F928F929F92AF92BF92CF92DF923C
:100D0000EF92FF920F931F93CF93DF931F92CDB774
:100D1000DEB78C012B017A01FC0117821682A12C0F
:100D2000F801D380F201D3FC8591D3FE8191382F55
:100D30002F01882309F4EFC090E039830E94110F3E
:100D40003981892B21F0C8010E94CD05E9CF3532C8
:100D500041F4F201D3FC3591D3FE31912F013532AC
:100D600069F4C80139830E943A0F398197FDD1C0D7
:100D70003817B1F2B8010E94AA0FCDC03A3241F43F
:100D8000D3FC3591D3FE31912F01BB24B39401C024
:100D9000B12C712C20ED230F2A3090F4FB2DF26042
:100DA000BF2E672D70E080E090E040E20E94AD052C
:100DB000762EF201D3FC3591D3FE31912F01EACF8B
:100DC000B1FE03C0711003C0A6C077247A943836F0
:100DD00019F03C3661F014C0F201D3FC3591D3FE1A
:100DE00031912F01383661F4FB2DF860BF2E8B2D29
:100DF0008460B82EF201D3FC3591D3FE31912F01DE
:100E0000332309F488C0632F70E084EE90E03983C7
:100E10000E94190F3981892B09F47DC0B0FC07C0ED
:100E2000F701C080D180C70102967C0102C0C12CAD
:100E3000D12C3E3651F4F8014681578160E070E0D4
:100E40002B2DC6010E94A1056BCF3336A1F4B1FC56
:100E500002C077247394C8010E943A0F97FD59C0CD
:100E6000C114D10429F0F6018083C60101966C01FA
:100E70007A9489F74AC0C80139830E94CD05398127
:100E800097FD47C03F3669F128F4343631F13936E1
:100E900079F12BC0333769F03537F9F026C0C1142A
:100EA000D10429F0F6018082C60101966C017A9482
:100EB00071F0C8010E943A0F4C0197FD08C00E94D2
:100EC000110F892B61F3B801C4010E94AA0FC1144C
:100ED000D104D9F0F601108218C0FB2DF062BF2EAC
:100EE00007C08B2D8061B82E03C09B2D9064B92E56
:100EF0002B2DA601672DC8010E94E605811105C0B2
:100F0000F8018381807329F406C0B0FC09CFA39453
:100F100007CFAA2019F08A2D90E002C08FEF9FEF33
:100F20000F90DF91CF911F910F91FF90EF90DF9085
:100F3000CF90BF90AF909F908F907F905F904F9099
:100F400008950CD0EBC0E3D040F0DAD030F021F4BB
:100F50005F3F19F0CCC0511115C1CFC0F0D098F34C
:100F60009923C9F35523B1F3951B550BBB27AA272A
:100F700062177307840738F09F5F5F4F220F331F9C
:100F8000441FAA1FA9F333D00E2E3AF0E0E830D068
:100F900091505040E695001CCAF729D0FE2F27D06B
:100FA000660F771F881FBB1F261737074807AB0739
:100FB000B0E809F0BB0B802DBF01FF2793585F4FAE
:100FC0002AF09E3F510568F092C0DCC05F3FECF311
:100FD000983EDCF3869577956795B795F7959F5F73
:100FE000C9F7880F911D9695879597F90895E1E0C7
:100FF000660F771F881FBB1F621773078407BA0726
:1010000020F0621B730B840BBA0BEE1F88F7E09580
:10101000089504D06894B111B5C0089598D088F0AF
:101020009F5790F0B92F9927B751A0F0D1F0660FD4
:10103000771F881F991F1AF0BA95C9F712C0B130EF
:1010400081F09FD0B1E008959CC0672F782F88274A
:10105000B85F39F0B93FCCF3869577956795B3952E
:10106000D9F73EF490958095709561957F4F8F4F9D
:101070009F4F0895E89409C097FB3EF490958095A2
:10108000709561957F4F8F4F9F4F9923A9F0F92F4E
:1010900096E9BB279395F695879577956795B795CC
:1010A000F111F8CFFAF4BB0F11F460FF1BC06F5FB2
:1010B0007F4F8F4F9F4F16C0882311F096E911C0C4
:1010C000772321F09EE8872F762F05C0662371F0E5
:1010D00096E8862F70E060E02AF09A95660F771FF9
:1010E000881FDAF7880F9695879597F9089597F9ED
:1010F0009F6780E870E060E008959FEF80EC0895BE
:1011000000240A94161617061806090608950024E6
:101110000A9412161306140605060895092E039460
:10112000000C11F4882352F0BB0F40F4BF2B11F4D4
:1011300060FF04C06F5F7F4F8F4F9F4F089557FD33
:101140009058440F551F59F05F3F71F04795880F35
:1011500097FB991F61F09F3F79F0879508951216CC
:1011600013061406551FF2CF4695F1DF08C0161678
:1011700017061806991FF1CF869571056105089429
:101180000895E894BB2766277727CB0197F9089540
:101190000BD0C4CFB5DF28F0BADF18F0952309F0E3
:1011A000A6CFABCF1124EECFCADFA0F3959FD1F32A
:1011B000950F50E0551F629FF001729FBB27F00D05
:1011C000B11D639FAA27F00DB11DAA1F649F66275A
:1011D000B00DA11D661F829F2227B00DA11D621FA9
:1011E000739FB00DA11D621F839FA00D611D221F63
:1011F000749F3327A00D611D231F849F600D211D47
:10120000822F762F6A2F11249F5750408AF0E1F0E9
:1012100088234AF0EE0FFF1FBB1F661F771F881F32
:1012200091505040A9F79E3F510570F060CFAACF72
:101230005F3FECF3983EDCF3869577956795B7951D
:10124000F795E7959F5FC1F7FE2B880F911D969547
:10125000879597F908952F923F924F925F926F92E0
:101260007F928F929F92AF92BF92CF92DF92EF9236
:10127000FF920F931F93CF93DF93CDB7DEB76397A2
:101280000FB6F894DEBF0FBECDBF7C011B016A0113
:10129000FC0117821682838181FF66C3BE016F5FE6
:1012A0007F4F4B01F7019381F10193FD859193FFEE
:1012B00081911F01882309F453C3853239F493FDCA
:1012C000859193FF81911F01853239F4B70190E038
:1012D0000E94780F56016501E5CF10E0512C20E007
:1012E0002032A0F48B3269F030F4803259F083322E
:1012F00069F420612CC08D3239F0803339F42160DB
:1013000026C02260246023C0286021C027FD27C09A
:1013100030ED380F3A3078F426FF06C0FAE01F9F10
:10132000300D1124132F13C06AE0569E300D112486
:10133000532E20620CC08E3221F426FD11C320648E
:1013400006C08C3611F4206802C0883641F4F101E1
:1013500093FD859193FF81911F018111C1CF9BEB7B
:10136000980F933018F42061805E06C09BE9980FB7
:10137000933008F0AAC12F7E26FF16E02F73722E3D
:10138000853621F4F22FF0647F2E08C0863621F4D2
:10139000622F6068762E02C01111115077FE07C0CF
:1013A0001C3348F444244394410E27E00BC018300A
:1013B00030F4212F06C027E04CE3442E03C027E081
:1013C00017E0412C560174E0A70EB11CF6016081B4
:1013D000718182819381042DA4010E94390E6C01D8
:1013E000098100FF02C003FF06C071FC07C072FC48
:1013F00008C0612C08C03DE2632E05C02BE2622EBE
:1014000002C090E2692E802F8C7099F1662011F055
:1014100084E001C083E0851510F0512C0BC0581AF0
:1014200073FC08C0B70180E290E00E94780F5A94E4
:10143000C9F7F3CF662029F0B701862D90E00E940E
:10144000780F03FD03C003EF10E002C00FEE10E0C1
:10145000F72DF0717F2EF8018491882309F476C26C
:1014600071108052B70190E00E94780F0F5F1F4FFC
:10147000F2CF77FE0FC04C0C04FF04C08A81813389
:1014800009F44A94141474F5F8E0F41578F588E03A
:10149000482E2CC076FC2AC0812F90E08C159D052B
:1014A0009CF06CEFC6166FEFD60674F0772D70685F
:1014B000772E0AC0E2E0F0E0EC0FFD1FE10FF11D16
:1014C0008081803319F411501111F4CF77FE0EC0D2
:1014D00044244394410E812F90E0C816D9062CF481
:1014E0001C1904C04424439401C010E077FE07C0D7
:1014F0001C141D043CF496012F5F3F4F05C025E0EE
:1015000030E002C021E030E0662011F02F5F3F4F55
:10151000112331F0412F50E04F5F5F4F240F351FF3
:10152000452D50E02417350714F4521A01C0512CF0
:10153000872D897049F4552039F0B70180E290E099
:101540000E94780F5A94F7CF662029F0B701862DB4
:1015500090E00E94780F73FC09C0552039F0B70164
:1015600080E390E00E94780F5A94F7CF77FE5FC037
:101570009C2D8D2DD7FE02C090E080E0692E782E44
:1015800040E050E0C601841991099D878C8796013F
:1015900026193709280D391D812F90E0EE27FF27E6
:1015A000E81BF90BFF87EE87FFEF6F167F0669F4E4
:1015B000B7018EE290E02B8B3A8B488B598B0E94BF
:1015C000780F598948893A892B89C614D70454F071
:1015D0006C857D85661577052CF4F901E40FF51F00
:1015E000818101C080E371E0671A71084F5F5F4F2E
:1015F000EE85FF856E167F066CF0B70190E02B8BB1
:101600003A8B488B598B0E94780F2B893A894889ED
:101610005989CACF6C147D0439F49A81963318F431
:10162000953311F404FF81E3B70190E04BC08A8148
:10163000813309F00F7EB70190E00E94780F1111FD
:1016400005C074FE18C085E490E017C0B7018EE2B3
:1016500090E00E94780F82E066246394680EF401A3
:10166000E80FF11D8081B70190E00E94780F1150C2
:1016700041F3862DF1CF85E690E0B7010E94780F07
:10168000D7FC05C0C114D10439F404FF05C0D194BE
:10169000C194D1088DE201C08BE2B70190E00E94B5
:1016A000780F80E36AE0C616D1042CF08F5FFAE071
:1016B000CF1AD108F7CFB70190E00E94780FB70199
:1016C000C601C0960E94780F41C1833631F083373E
:1016D00079F0833509F058C021C0560172E0A70E99
:1016E000B11CF6018081898301E010E0640114C01F
:1016F0005601F2E0AF0EB11CF601C080D18026FF8A
:1017000003C0612F70E002C06FEF7FEFC6012B8B2B
:101710000E942F0F8C012B892F7715C05601F2E004
:10172000AF0EB11CF601C080D18026FF03C0612F2F
:1017300070E002C06FEF7FEFC6012B8B0E94240F79
:101740008C012B892068722E23FD1AC0852D90E014
:1017500008171907A8F4B70180E290E00E94780FFB
:101760005A94F4CFF60177FC859177FE81916F0151
:10177000B70190E00E94780F51105A94015011095E
:101780000115110579F7E2C0843611F0893651F55B
:10179000560127FF09C0F4E0AF0EB11CF6016081CD
:1017A0007181828193810AC0F2E0AF0EB11CF60113
:1017B00060817181882777FD8095982F022F0F76A1
:1017C00097FF08C090958095709561957F4F8F4FDA
:1017D0009F4F00682AE030E0A4010E94C30FC82E8A
:1017E000C8183EC0022F853721F40F7E2AE030E072
:1017F0001DC0097F8F3691F018F4883559F0B0C0BC
:10180000803719F0883711F0ABC0006104FF09C0C0
:10181000046007C024FF08C0066006C028E030E06E
:1018200005C020E130E002C020E132E0560107FFB0
:1018300009C0F4E0AF0EB11CF601608171818281B4
:10184000938108C0F2E0AF0EB11CF6016081718196
:1018500080E090E0A4010E94C30FC82EC8180F7743
:1018600006FF0BC0202F2E7FC11650F404FF0AC0C4
:1018700002FD08C0202F2E7E05C0DC2C202F03C0C7
:10188000DC2C01C0D12E24FF0DC0FE01EC0DF11D9A
:101890008081803311F4297E09C022FF06C0D394D1
:1018A000D39404C0822F867809F0D39423FD13C00B
:1018B00020FF06C01C2DD51418F4150D1D19D52CAC
:1018C000D51468F4B70180E290E02B8B0E94780F6A
:1018D000D3942B89F5CFD51410F45D1801C0512C89
:1018E00024FF12C0B70180E390E02B8B0E94780F99
:1018F0002B8922FF17C021FF03C088E590E002C0BA
:1019000088E790E0B7010CC0822F867859F021FD5E
:1019100002C080E201C08BE227FD8DE2B70190E0BA
:101920000E94780FC11638F4B70180E390E00E945E
:10193000780F1150F7CFCA94F401EC0DF11D80819E
:10194000B70190E00E94780FC110F5CF552009F43F
:10195000C2CCB70180E290E00E94780F5A94F6CF93
:10196000F7018681978102C08FEF9FEF63960FB6D4
:10197000F894DEBF0FBECDBFDF91CF911F910F91C5
:10198000FF90EF90DF90CF90BF90AF909F908F909F
:101990007F906F905F904F903F902F900895A1E2BD
:1019A0001A2EAA1BBB1BFD010DC0AA1FBB1FEE1FD9
:1019B000FF1FA217B307E407F50720F0A21BB30B24
:1019C000E40BF50B661F771F881F991F1A9469F7A0
:1019D00060957095809590959B01AC01BD01CF01FC
:1019E0000895EF920F931F93CF93DF93E80147FF82
:1019F00002C034E101C034E0E42FFF27E7FDF09599
:101A0000F7FF03C0F195E195F109E32E022F2E2F88
:101A1000AE010E942110CE01DF91CF911F910F9155
:101A2000EF900895CF93DF938230910510F482E018
:101A300090E0E0913702F091380220E030E0A0E041
:101A4000B0E0309739F14081518148175907B8F01B
:101A50004817590771F482819381109729F01396E2
:101A60009C938E9312972CC09093380280933702E8
:101A700027C02115310531F04217530718F0A9018D
:101A8000DB0101C0EF019A01BD01DF010280F3819A
:101A9000E02DD7CF21153105F9F0281B390B243063
:101AA000310580F48A819B816115710521F0FB016C
:101AB0009383828304C09093380280933702FE019F
:101AC000329644C0FE01E20FF31F8193919322509E
:101AD0003109398328833AC020913502309136028A
:101AE000232B41F4209110023091110230933602E1
:101AF0002093350220910E0230910F0221153105FD
:101B000041F42DB73EB74091120250911302241BAD
:101B1000350BE0913502F0913602E217F307A0F49D
:101B20002E1B3F0B2817390778F0AC014E5F5F4F33
:101B30002417350748F04E0F5F1F5093360240932D
:101B400035028193919302C0E0E0F0E0CF01DF9194
:101B5000CF910895CF93DF93009709F487C0FC01DC
:101B6000329713821282C0913702D09138022097A7
:101B700081F420813181280F391F809135029091A5
:101B800036028217930779F5F0933602E093350217
:101B90006DC0DE0120E030E0AE17BF0750F41296B2
:101BA0004D915C9113979D014115510509F1DA01A1
:101BB000F3CFB383A28340815181840F951F8A178D
:101BC0009B0771F48D919C911197840F951F02963C
:101BD0009183808312968D919C9113979383828336
:101BE0002115310529F4F0933802E09337023EC005
:101BF000D9011396FC93EE9312974D915D91A40F2A
:101C0000B51FEA17FB0779F480819181840F951F36
:101C10000296D90111969C938E938281938113969B
:101C20009C938E931297E0E0F0E08A819B8100976D
:101C300019F0FE01EC01F9CFCE010296288139811D
:101C4000820F931F209135023091360228173907F1
:101C500069F4309729F4109238021092370202C0CA
:101C600013821282D0933602C0933502DF91CF9156
:101C70000895283008F027E03327DA01990F311D45
:101C800087FD916000966105710539F432602E5F21
:101C90003D9330E32A95E1F708959F3F30F0803877
:101CA0007105610509F03C5F3C5F3D93913008F0A0
:101CB0008068911DDF93CF931F930F93FF92EF9254
:101CC000192F987F9695E92F96959695E90FFF27FE
:101CD000EF5AFE4F99273327EE24FF24A701E7018F
:101CE00005900894079428F4360FE71EF81E491F44
:101CF000511D660F771F881F991F0694A1F7059045
:101D0000079428F4E70EF81E491F561FC11D770FD0
:101D1000881F991F661F0694A1F70590079428F461
:101D2000F80E491F561FC71FD11D880F991F661F28
:101D3000771F0694A1F70590079420F4490F561FCA
:101D4000C71FD81F990F661F771F881F0694A9F712
:101D500084911095177041F0D695C7955795479582
:101D6000F794E7941A95C1F7E7EFF0E068941590BF
:101D7000159135916591959105907FE27395E118E4
:101D8000F10A430B560BC90BD009C0F7E10CF11E49
:101D9000431F561FC91FD01D7EF4703311F48A955E
:101DA000E6CFE894015030F0080F0AF4002702173C
:101DB00008F4202F2395022F7A3328F079E37D93BE
:101DC0002A95E9F710C07D932A9589F60694979590
:101DD0006795379517951794E118F10A430B560B41
:101DE000C90BD00998F023957E9173957A3308F04A
:101DF00070E37C932013B8F77E9170617D9330F08F
:101E0000839571E37D9370E32A95E1F71124EF90B8
:101E1000FF900F911F91CF91DF91992787FD9095AA
:101E2000089591118CC2803219F089508550D0F7F5
:101E30000895FC010590061621F00020D9F7C00195
:101E400008953197CF010895FC01059061507040CD
:101E50000110D8F7809590958E0F9F1F0895FC0173
:101E60006150704001900110D8F7809590958E0FC9
:101E70009F1F0895CF93DF93EC012B8120FF33C088
:101E800026FF0AC02F7B2B838E819F8101969F8323
:101E90008E838A8190E029C022FF0FC0E881F981FA
:101EA0008081992787FD9095009719F420622B83F4
:101EB0001AC03196F983E8830EC0EA85FB8509953F
:101EC00097FF09C02B81019611F480E101C080E2E7
:101ED000822B8B8308C02E813F812F5F3F4F3F8332
:101EE0002E83992702C08FEF9FEFDF91CF91089546
:101EF0000F931F93CF93DF93182F092FEB018B8143
:101F000081FD03C08FEF9FEF20C082FF10C04E8184
:101F10005F812C813D81421753077CF4E881F98170
:101F20009F012F5F3F4F39832883108306C0E885C8
:101F3000F985812F0995892B29F72E813F812F5F04
:101F40003F4F3F832E83812F902FDF91CF911F91A1
:101F50000F910895FB01238120FF12C026FD10C0C0
:101F60008F3F3FEF930761F082832F7D20642383AF
:101F70002681378121503109378326839927089597
:101F80008FEF9FEF0895FA01AA27283051F12031F1
:101F900081F1E8946F936E7F6E5F7F4F8F4F9F4FFD
:101FA000AF4FB1E03ED0B4E03CD0670F781F891F3F
:101FB0009A1FA11D680F791F8A1F911DA11D6A0F0D
:101FC000711D811D911DA11D20D009F468943F91C0
:101FD0002AE0269F11243019305D3193DEF6CF01BF
:101FE0000895462F4770405D4193B3E00FD0C9F785
:101FF000F6CF462F4F70405D4A3318F0495D31FDF2
:102000004052419302D0A9F7EACFB4E0A695979544
:10201000879577956795BA95C9F70097610571051A
:1020200008959B01AC010A2E069457954795379564
:102030002795BA95C9F7620F731F841F951FA01DBE
:1020400008956F927F929F92AF92BF92CF92DF924C
:10205000EF92FF920F931F93CF93DF93CDB7DEB72D
:1020600029970FB6F894DEBF0FBECDBF6A01B22E1E
:10207000102F0C3320F4FF24F394F00E02C04CE335
:10208000F42E0F2D27E0AE014F5F5F4F0E94390EF7
:102090007981272F2970213031F0E1FC06C0E0FC66
:1020A00006C060E005C06DE203C06BE201C060E203
:1020B000AE2DA07173FF36C0662311F084E001C01D
:1020C00083E08B1510F4B81A01C0B12CA1110BC01C
:1020D000F6018B2D90E2882319F091938150FBCF6C
:1020E000CB0CD11CB12C662331F0F6016083960134
:1020F0002F5F3F4F6901C6010396E2FE05C02EE443
:10210000F601208331E404C02EE6F601208331E697
:1021100031832283FC012B2D30E22223F1F1319314
:102120002150FBCF72FF40C0662311F084E001C054
:1021300083E08B1510F4B81A01C0B12CA1110BC0AB
:10214000F6018B2D90E2882319F091938150FBCFFB
:10215000CB0CD11CB12C662331F0F60160839601C3
:102160002F5F3F4F6901C6010396E2FE07C029E4D5
:10217000F60120832EE4218326E406C029E6F60139
:1021800020832EE6218326E62283FC012B2D30E2DC
:10219000222319F031932150FBCFFC01EB0DF11DEF
:1021A00010828EEF9FEFB7C0B1E0611101C0B0E0C7
:1021B0004B2F50E01816190624F49C012F5F3F4F57
:1021C00002C021E030E0240F351F112329F0412FF8
:1021D00050E04F5F5F4F02C040E050E0420F531F9E
:1021E0002B2D30E04217530714F4B41A01C0B12C60
:1021F0002E2D287159F4F6012B2D30E2222319F0EF
:1022000031932150FBCFCB0CD11CB12CBB2331F02F
:10221000F601608396012F5F3F4F6901A1110BC04A
:10222000F6012B2D30E3222319F031932150FBCFFF
:10223000CB0CD11CB12CF80E0A81372F3071A32E94
:1022400074FF03C0013309F4FA941F142CF42F2DEA
:10225000293018F028E001C021E0682F392F97FFBE
:1022600002C060E030E0462F532F612C712C3EE21B
:10227000932EBC01621B71099B01DC01A41BB50BF1
:10228000E1E0F0E0EC0FFD1FAE0FBF1FE12EF12CDF
:10229000F194E194F1084F3FFFEF5F0731F4F6014D
:1022A0009082B6016F5F7F4F6B01841795074CF0EA
:1022B0002417350734F4BD01660D771DFB0111812C
:1022C00001C010E341505109FFEF6F1A7F0AB601B8
:1022D0006F5F7F4F4E155F0524F0F60110836B0191
:1022E000DACF4817590739F4063320F4053319F4C7
:1022F000A11001C011E3F6011083FB018B2D90E2C8
:10230000882319F091938150FBCFFB01EB0DF11D58
:10231000108280E090E029960FB6F894DEBF0FBEE1
:10232000CDBFDF91CF911F910F91FF90EF90DF9084
:10233000CF90BF90AF909F907F906F900895992716
:0823400088270895F894FFCFEF
:102348003A280000546F646F206F6B210A00000068
:10235800390220004163656C65726F6D6574726F38
:102368003A20000A00783A20000900793A20007AD9
:042378003A20000007
:00000001FF
