:100000000C94F9000C9418010C9418010C9418012C
:100010000C9418010C9418010C9418010C941801FC
:100020000C9418010C9418010C9418010C941801EC
:100030000C9418010C9418010C9418010C941801DC
:100040000C9418010C9418010C9418010C941801CC
:100050000C9418010C9418010C9418010C941801BC
:100060000C9418010C9418010C9418010C941801AC
:100070000C9418010C9418010C9418010C9418019C
:100080000C9418010C9418010C9418010C9418018C
:100090000C9418010C9418010C9418010C9418017C
:1000A0000C9418010C9418010C9418010C9418016C
:1000B0000C9418010C9418010C9418010C9418015C
:1000C0000C9418010C9418010C9418010C9418014C
:1000D0000C9418010C9418010C9418010C9418013C
:1000E0000C9418016364696E6F7073757858006EB4
:1000F000616E00696E660000407A10F35A00A072CB
:100100004E18090010A5D4E80000E8764817000052
:10011000E40B54020000CA9A3B000000E1F5050020
:100120000080969800000040420F000000A0860169
:10013000000000102700000000E803000000006439
:1001400000000000000A00000000000100000000A4
:10015000002C76D888DC674F0823DFC1DFAE59E179
:10016000B1B796E5E3E453C63AE651997696E8E6E8
:10017000C28426EB898C9B62ED407C6FFCEFBC9CBB
:100180009F40F2BAA56FA5F490055A2AF75C936BCD
:100190006CF9676DC11BFCE0E40D47FEF520E6B588
:1001A00000D0ED902E0300943577050080841E0862
:1001B0000000204E0A000000C80C333333330F9880
:1001C0006E12831141EF8D2114893BE65516CFFE47
:1001D000E6DB18D1844B381BF77C1D901DA4BBE4D3
:1001E00024203284725E228100C9F124ECA1E53D15
:1001F000270011241FBECFEFD1E2DEBFCDBF12E03A
:10020000A0E0B2E0ECE8FFE200E00BBF02C0079024
:100210000D92A238B107D9F723E0A2E8B2E001C0FD
:100220001D92A531B207E1F70E948E0A0C94C41703
:100230000C9400000F931F9302E812E023E047E0C4
:100240000E9413138091820280938902809183021D
:1002500080938A028091840280938B028091850230
:1002600080938C028091860280938D028091870218
:1002700080938E028091880280938F021092900268
:1002800089E892E01F910F9108959FB788E48093C9
:10029000B800E9EBF0E080818C7F808388B18063D7
:1002A00088B985E48093BC001092BA009FBF08957E
:1002B0001092BC0094EA9093BC009091BC0097FF10
:1002C000FCCF9091B900987F983099F48093BB004F
:1002D00084E88093BC008091BC0087FFFCCF9091A4
:1002E000B900987F983119F081E0903419F480E0DA
:1002F000089581E008958093BB0084E88093BC005A
:100300008091BC0087FFFCCF9091B900987F81E07D
:10031000983209F480E0089584EC8093BC008091C9
:10032000BC0087FFFCCF8091BB00089584E88093D8
:10033000BC008091BC0087FFFCCF8091BB0008957A
:10034000EF92FF920F931F93CF93DF9300D0CDB71F
:10035000DEB78A0169837A830E94580169817A81B4
:1003600081110DC07B010E0D1F1DE016F10649F035
:10037000F70181917F010E947B018823B1F381E025
:1003800004C084E98093BC0080E00F900F90DF915F
:10039000CF911F910F91FF90EF900895EF92FF92F0
:1003A0000F931F93CF93DF93EB017A0181600E943B
:1003B000580181111AC08E0181E0E81AF108C801C4
:1003C0008C1B9D0B8E159F0530F40E948C01F8014B
:1003D00081938F01F4CFCE0DDF1D0E94960188839B
:1003E00084E98093BC0080E001C081E0DF91CF917F
:1003F0001F910F91FF90EF900895CF92DF92EF92AF
:10040000FF920F931F93CF93DF931F92CDB7DEB769
:100410008A01790169830E9458016981882311F05A
:1004200081E015C0862F0E947B0167010E0D1F1D04
:10043000C016D10641F0F60181916F010E947B0147
:100440008823B1F3EDCF84E98093BC0080E00F9066
:10045000DF91CF911F910F91FF90EF90DF90CF90A0
:100460000895CF93DF931F92CDB7DEB749839E01E6
:100470002F5F3F4F41E050E00E94FD010F90DF9160
:10048000CF910895CF92DF92EF92FF920F931F9337
:10049000CF93DF931F92CDB7DEB7182F7A01690192
:1004A00069830E9458016981882311F081E020C08E
:1004B000862F0E947B01812F81600E94580181114B
:1004C000F5CF860181E0E81AF108C8018C199D0971
:1004D0008E159F0530F40E948C01F80181938F01E5
:1004E000F4CFEC0CFD1C0E949601F701808380E0A4
:1004F0000F90DF91CF911F910F91FF90EF90DF90C0
:10050000CF9008959A0141E050E00C944202FF928E
:100510000F931F93CF93DF931F92CDB7DEB7F42EC7
:100520008901AE014F5F5F4F0E94820261E070E07F
:1005300001C0660FFA94EAF799819623F801908337
:1005400094E99093BC000F90DF91CF911F910F9190
:10055000FF900895FF920F931F93CF93DF9300D0E6
:10056000CDB7DEB7F42EAE014F5F5F4F2A830E94F6
:1005700082022A818823F1F04F2D50E0421B51095D
:100580004F5F5F4F61E070E002C0660F771F2A95F2
:10059000E2F761507109042E01C0660F0A94EAF770
:1005A0002981262330E002C0359527954A95E2F748
:1005B000F801208394E99093BC000F900F90DF9195
:1005C000CF911F910F91FF900895FF920F931F936A
:1005D000CF93DF9300D0CDB7DEB7182F062FF42EC0
:1005E000AE014F5F5F4F2A830E94820289812A8178
:1005F000222351F021E030E00F2C01C0220F0A9499
:10060000EAF7482F422B09C021E030E001C0220F59
:10061000FA94EAF7422F409548234983602F812FAF
:100620000E9431020F900F90DF91CF911F910F9197
:10063000FF900895EF92FF920F931F93CF93DF9354
:1006400000D0CDB7DEB7F82EE62E142FAE014F5FE7
:100650005F4F2A830E9482022A81882319F1412F49
:1006600050E0421B51094F5F5F4FE1E0F0E002C0F4
:10067000EE0FFF1F2A95E2F73197042E01C0EE0F0F
:100680000A94EAF701C0000F4A95EAF74E2F409509
:1006900089814823E0234E2B49836E2D8F2D0E94A4
:1006A000310201C080E00F900F90DF91CF911F9138
:1006B0000F91FF90EF90089584E98093BC00089516
:1006C000FC01E158FF4F108211821282138234968E
:1006D0001082118212821382349610821182128249
:1006E0001382349610821182128213823496108201
:1006F0001182128213823496108211821282138226
:100700003C961082118212821382349610821182DA
:1007100012821382349610821182128213820E94F6
:1007200045012FEF81EE94E0215080409040E1F7A9
:1007300000C000000895CF92DF92EF92FF920F93D6
:100740001F93CF93DF931F92CDB7DEB7182F01E031
:1007500023E042E06BE680ED99830E941A0300E0FB
:1007600022E044E06BE180ED0E941A0322E044E0C5
:100770006CE180ED0E941A0320E046E06BE680ED1C
:100780000E94E502C12E9981D92E03E010E088E095
:1007900090E00E9434137C01F60194AB83AB88E0B7
:1007A00090E00E943413F601E55AFF4F9183808355
:1007B000F7011782FC01178201501109F2E0CF0EF8
:1007C000D11C0115110519F70F90DF91CF911F91E1
:1007D0000F91FF90EF90DF90CF900895CF93DF932C
:1007E000EC01AC014F5F5F4F65E780ED0E94820234
:1007F00081E09981913709F080E0DF91CF910895F0
:10080000CF93DF93EC0142E067E380ED0E94310279
:100810008FE39CE90197F1F700C0000041E06AE036
:1008200088E10E943102EFE3FCE93197F1F700C063
:1008300000009E012F5F3F4F46E050E063E088E1FB
:100840000E944202CE0183599F4F298130E0322F0E
:1008500022274A81242BFC013183208332962B816D
:1008600030E0322F22274C81242B31832083329693
:100870002D8130E0322F22274E81242B318320839B
:10088000DF91CF910895CF92DF92EF92FF920F9375
:100890001F93CF93DF938C010E9400047C01E80139
:1008A000CF59DF4FFC0160817181882777FD8095EA
:1008B000982F0E94360E20E030E046E954E40E9472
:1008C000EA0E20E030E040E858E30E94EA0E688338
:1008D00079838A839B836801F5E6CF0ED11CF701EB
:1008E00062817381882777FD8095982F0E94360E4C
:1008F00020E030E046E954E40E94EA0E20E030E0D7
:1009000040E858E30E94EA0EF60160837183828317
:10091000938307591F4FF70164817581882777FDFD
:100920008095982F0E94360E20E030E046E954E48E
:100930000E94EA0E20E030E040E858E30E94EA0E10
:10094000F8016083718382839383CE01DF91CF911D
:100950001F910F91FF90EF90DF90CF9008952F920D
:100960003F924F925F926F927F928F929F92AF923F
:10097000BF92CF92DF92EF92FF920F931F93CF938C
:10098000DF93CDB7DEB7A0970FB6F894DEBF0FBEEA
:10099000CDBF98A38F8F0E944304FC0140815181F9
:1009A000628173812F8D38A121583F4F3E832D8363
:1009B000D9014D935D936D937C9313974081518141
:1009C000628173812F8D38A12D573F4F38872F8338
:1009D000D9014D935D936D937C9313974481558119
:1009E000668177812F8D38A129573F4F3C872B8710
:1009F000D9014D935D936D937C93139744815581F9
:100A0000668177812F8C38A0BBE82B0E311CD10179
:100A10004D935D936D937C931397408551856285CB
:100A200073852F8D38A121573F4F3E872D87D901E0
:100A30004D935D936D937C93139780859185A285EB
:100A4000B385EF8DF8A1ED56FF4FFA87E9878083D4
:100A50009183A283B38308EE13E02F8D38A12D5824
:100A60003F4F388B2F878F8D98A189589F4F9A8B36
:100A7000898BAF8DB8A1A558BF4FBC8BAB8BEF81D5
:100A8000F885FE8BED8B388E2F8A2B853C853A8F2F
:100A9000298F89859A859C8F8B8FAD85BE85BE8F6A
:100AA000AD8F8F8D98A10E944304FC0180809180BE
:100AB000A280B380AF85B8898D929D92AD92BC9291
:100AC0001397C480D580E680F780E989FA89C082CF
:100AD000D182E282F382DC0118968D919D910D9076
:100AE000BC91A02D89839A83AB83BC83EB89FC895D
:100AF00080839183A283B383AD89BE894D905D903D
:100B00006D907C9020E030E040E251E4C301B201FE
:100B10000E949B0D9B01AC01C501B4010E94FF0D19
:100B200087FF0EC0A3019201C501B4010E94E60E29
:100B3000181634F4EF81F88580829182A282B38204
:100B4000AD81BE814D905D906D907C9020E030E055
:100B500040E251E4C301B2010E949A0D9B01AC0135
:100B6000C501B4010E94E60E181674F4A3019201A7
:100B7000C501B4010E94FF0D87FF06C0ED81FE8113
:100B800080829182A282B382AF89B88D8D909D9030
:100B9000AD90BC9020E030E040E251E4C501B401EA
:100BA0000E949B0D9B01AC01C701B6010E94FF0D85
:100BB00087FF0DC0A5019401C701B6010E94E60E92
:100BC00018162CF4F101C082D182E282F382D101A5
:100BD0008D909D90AD90BC9020E030E040E251E4DB
:100BE000C501B4010E949A0D9B01AC01C701B60179
:100BF0000E94E60E18169CF4E98DFA8D2081318151
:100C000042815381C701B6010E94FF0D87FF07C0D3
:100C1000AB85BC85CD92DD92ED92FC921397EB8D66
:100C2000FC8DC080D180E280F38020E030E040E2A3
:100C300051E4C701B6010E949B0D9B01AC01698183
:100C40007A818B819C810E94FF0D87FF14C0A701D0
:100C5000960169817A818B819C810E94E60E18162B
:100C600054F489819A81AB81BC81E985FA858083BE
:100C70009183A283B383A985BA854D905D906D90D1
:100C80007C9020E030E040E251E4C301B2010E94D8
:100C90009A0D9B01AC0169817A818B819C810E94B4
:100CA000E60E1816C4F4ED8DFE8D2081318142814F
:100CB000538169817A818B819C810E94FF0D87FF1E
:100CC0000AC089819A81AB81BC81ED85FE858083D4
:100CD0009183A283B383015011090115110509F015
:100CE000E0CEEF8CF8A0FFE9EF0EF11CAD81BE81E4
:100CF0002D913D914D915C91EF81F88560817181DD
:100D0000828193810E949B0D20E030E040E05FE310
:100D10000E94EA0ED7016D937D938D939C93139758
:100D2000EF8CF8A0B3EAEB0EF11CEF8DF8A1E957B8
:100D3000FF4F2081318142815381C501B4010E945E
:100D40009B0D20E030E040E05FE30E94EA0EF701F7
:100D500060837183828393830F8D18A109551F4F80
:100D6000EF8DF8A1E157FF4F2081318142815381FE
:100D7000C301B2010E949B0D20E030E040E05FE340
:100D80000E94EA0ED8016D937D938D939C931397E7
:100D9000A0960FB6F894DEBF0FBECDBFDF91CF9106
:100DA0001F910F91FF90EF90DF90CF90BF90AF9089
:100DB0009F908F907F906F905F904F903F902F907B
:100DC0000895EF92FF920F931F93CF93DF938C01BF
:100DD0000E944304E801CF59DF4FF801E156FF4F6D
:100DE00020E030E046E954E46081718182819381A2
:100DF0000E94EA0E20E030E040E858E30E94EA0E4C
:100E00009B01AC01688179818A819B810E949A0D46
:100E1000688379838A839B83780185E6E80EF11CD9
:100E2000F801ED55FF4F20E030E046E954E46081E1
:100E30007181828193810E94EA0E20E030E040E8D7
:100E400058E30E94EA0E9B01AC01F70160817181B9
:100E5000828193810E949B0DF7016083718382835D
:100E600093837801F9E6EF0EF11CEE5BFF4F20E073
:100E700030E046E954E460817181828193810E946F
:100E8000EA0E20E030E040E858E30E94EA0E9B01C1
:100E9000AC01F70160817181828193810E949A0D7A
:100EA000F7016083718382839383CE01DF91CF91B9
:100EB0001F910F91FF90EF90089521E030E0FC0129
:100EC000E20FF31F10822F5F3F4F2F303105B9F72C
:100ED00008954F925F926F927F92AF92BF92CF929E
:100EE000DF92EF92FF920F931F93CF93DF93EC016A
:100EF0000E945D079E012F5F3F4F4EE050E06BE385
:100F000080ED0E944202898190E0982F88272A81F3
:100F1000822B9AA389A38B8190E0982F88272C811C
:100F2000822B9CA38BA38D8190E0982F88272E8104
:100F3000822B9EA38DA3FE01E75BFF4F898590E086
:100F4000982F88272A85822B9183808332968B85E0
:100F500090E0982F88272C85822B9183808332966E
:100F60008D8590E0982F88272E85822B9183808312
:100F70007E01C12CD12C69A17AA1882777FD8095AB
:100F8000982F0E94360E20E030E040E858E30E949F
:100F9000EA0E2B013C01F70167A370A781A792A776
:100FA0005701FFE4AF0EB11CFE01E75BFF4F60810C
:100FB0007181882777FD8095982F0E94360E20E05A
:100FC00030E04AE753E40E94EA0E20E030E040E0DF
:100FD00058E30E94EA0EF501608371838283938354
:100FE0000BA91CA923E047E0C301B2010E9413131F
:100FF000FE01E55AFF4F00811181F5016081718189
:101000008281938123E047E00E941313FFEFCF1A00
:10101000DF0A229684E0E80EF11CE3E0CE16D1044C
:1010200009F0A9CFDF91CF911F910F91FF90EF9021
:10103000DF90CF90BF90AF907F906F905F904F9078
:1010400008956F927F928F929F92AF92BF92CF92AC
:10105000DF92EF92FF920F931F93CF93DF93EC01F8
:101060003B014A0159010E945D079E012F5F3F4FDE
:101070004EE050E06BE380ED0E944202898190E0F7
:10108000982F88272A81822BF301918380838B817B
:1010900090E0982F88272C81822BF4019183808304
:1010A0008D8190E0982F88272E81822BF5019183E6
:1010B0008083898590E0982F88272A85822BF801E4
:1010C000918380838B8590E0982F88272C85822BB5
:1010D000F701918380838D8590E0982F88272E8556
:1010E000822BF60191838083DF91CF911F910F9125
:1010F000FF90EF90DF90CF90BF90AF909F908F9038
:101100007F906F9008956F927F928F929F92AF928F
:10111000BF92CF92DF92EF92FF920F931F93CF93E4
:10112000DF93EC013B014A0159010E942108F301C0
:1011300060817181882777FD8095982F0E94360EF7
:1011400020E030E040E858E30E94EA0E6D8B7E8B91
:101150008F8B988FF40160817181882777FD80954E
:10116000982F0E94360E20E030E040E858E30E94BD
:10117000EA0E698F7A8F8B8F9C8FF5016081718168
:10118000882777FD8095982F0E94360E20E030E06A
:1011900040E858E30E94EA0E6D8F7E8F8F8F98A3F0
:1011A000CE014596DF91CF911F910F91FF90EF9067
:1011B000DF90CF90BF90AF909F908F907F906F9077
:1011C00008956F927F928F929F92AF92BF92CF922B
:1011D000DF92EF92FF920F931F93CF93DF93EC0177
:1011E0003801470156010E9421088E01035C1F4F00
:1011F000F30160817181882777FD8095982F0E9487
:10120000360E20E030E04AE753E40E94EA0E20E088
:1012100030E040E058E30E94EA0EF80160837183F9
:10122000828393833E01F1E46F0E711CF4016081AF
:101230007181882777FD8095982F0E94360E20E0D7
:1012400030E04AE753E40E94EA0E20E030E040E05C
:1012500058E30E94EA0EF3016083718382839383D3
:10126000CB5BDF4FF50160817181882777FD809529
:10127000982F0E94360E20E030E04AE753E40E94A7
:10128000EA0E20E030E040E058E30E94EA0E688376
:1012900079838A839B83C801DF91CF911F910F913E
:1012A000FF90EF90DF90CF90BF90AF909F908F9086
:1012B0007F906F900895615071099B0140E050E06C
:1012C00060E472E48FE090E00E94F112832F99278E
:1012D0008093C5002093C400E1ECF0E08081886138
:1012E0008083E2ECF0E080818660808308959091B5
:1012F000C00095FFFCCF8093C6000895CF93DF9385
:10130000EB018991882319F00E947709FACFDF91C8
:10131000CF9108958091C00087FFFCCF8091C600D7
:1013200008950F931F93CF93DF938C01C0E0D0E01B
:101330000E948A098D3051F4C00FD11F1A82C80152
:101340000296DF91CF911F910F910895C336D10579
:1013500099F32196F801EC0FFD1F8183E9CF80916D
:10136000C00087FF03C08091C600F9CF0895209187
:101370008000226A20938000209181002B612093BD
:10138000810027E833E13093870020938600259A77
:10139000FC01208131812136310584F030938900B0
:1013A00020938800FFEF41EE54E0F1504040504060
:1013B000E1F700C0000021503109EDCF21E630E017
:1013C000FC013183208381E690E0089521E630E03E
:1013D00030938900209388004FEF51EE64E0415034
:1013E00050406040E1F700C00000FC0131832083E1
:1013F0002F5F3F4F2831F2E03F0751F727E132E0FE
:1014000030938900209388004FEF51EE64E0415003
:1014100050406040E1F700C00000FC0131832083B0
:1014200021503109EDCFCF92DF92EF92FF920F93CF
:101430001F93CF93DF93EC01882777FD8095982F3A
:101440000E94360E20E33BEB4BE150E40E94EA0E93
:1014500020E030E042EC52E40E949B0D6B017C01E5
:1014600008811981B801882777FD8095982F0E94FF
:10147000360E9B01AC01C701B6010E94FF0D87FF2C
:1014800019C0C701B6010E94030E6017710794F4DA
:1014900010938900009388002FEF81EE94E0215093
:1014A00080409040E1F700C000001983088301509C
:1014B0001109E7CF68817981882777FD8095982F7A
:1014C0000E94360E9B01AC01C701B6010E94E60ED8
:1014D00018165CF088819981DF91CF911F910F914F
:1014E000FF90EF90DF90CF900895C701B6010E9462
:1014F000030E0617170774F71093890000938800EE
:101500002FEF81EE94E0215080409040E1F700C041
:101510000000198308830F5F1F4FE7CFCF93DF933E
:10152000CDB7DEB7C759D4400FB6F894DEBF0FBEB3
:10153000CDBF84E690E0CA56DB4F99838883C659B5
:10154000D44088EE93E09A838983FE013396DF01CD
:101550009C011D9221503040E1F7CE0185519C4FF6
:101560000E946003CE0185519C4F0E949B03CE01D7
:101570008A569B4F0E94B70960E071EECE0101963A
:101580000E945B09CE0185519C4F0E94EE03882387
:1015900019F060E272E002C06CE272E0CE010196E6
:1015A0000E947E0962E372E0CE0101960E947E09EC
:1015B0006AE272E0CE0101960E947E098BEEE82E6F
:1015C00083E0F82EEC0EFD1E33E3E30EF11C9BEEE0
:1015D000C92E93E0D92ECC0EDD1E89E3C80ED11C96
:1015E0002BEEA22E23E0B22EAC0EBD1E91E6A90E6C
:1015F000B11CAFEFB3EDE0E3A150B040E040E1F744
:1016000000C00000CE0185519C4F0E9469078701F0
:10161000D8016D917D918D01CE0101960E947E09C8
:1016200060E372E0CE0101960E947E090C151D0553
:1016300079F76AE272E0CE0101960E947E098E017E
:101640000A5B1B4FF801619171918F01CE010196E8
:101650000E947E0960E372E0CE0101960E947E093D
:101660000A151B0579F76AE272E0CE0101960E9425
:101670007E096AE272E0CE0101960E947E096EE167
:1016800070E0CE018A569B4F0E94130AFFEF23EDB4
:1016900030E3F15020403040E1F700C00000CE01BF
:1016A00085519C4F0E9469078701D8016D917D91FA
:1016B0008D01CE0101960E947E0960E372E0CE01A9
:1016C00001960E947E090C151D0579F76AE272E009
:1016D000CE0101960E947E098E010A5B1B4FF80124
:1016E000619171918F01CE0101960E947E0960E3A4
:1016F00072E0CE0101960E947E090A151B0579F75A
:101700006AE272E0CE0101960E947E096AE272E00E
:10171000CE0101960E947E0962E072E0CE01019640
:101720000E947E0960E070E0CE018A569B4F0E94C5
:10173000130A5FCF20FD09C0FC0123FD05C022FF75
:1017400002C07383628351834083089544FD10C0B7
:1017500046FD10C0DB01FC01AA0FBB1FEE1FFF1FDF
:101760001094D1F76A0F7B1F8E1F9F1F31E003C0BB
:1017700033E001C034E0660F771F881F991F315096
:10178000D1F7620F711D811D911D08950F931F9355
:10179000CF93DF938C01C8010E945C15EC0197FD8B
:1017A00008C00E943315892BB1F7B801CE010E9401
:1017B000CC15CE01DF91CF911F910F9108958F929B
:1017C0009F92AF92CF92DF92EF92FF920F931F936F
:1017D000CF93DF93EC01A62E4A01022F0E945C15E5
:1017E000AC0155274B32510521F04D32510551F4D2
:1017F0000068AA9411F480E067C0CE010E945C15D5
:1018000097FDF9CF102F1D7F302F307301F58033F6
:10181000F1F4FF24FA94FA0C09F442C0CE010E94BC
:101820005C1597FD3DC0382F3F7D383551F412646B
:10183000AA94AA94A9F1CE010E945C1597FF07C053
:101840002FC006FF02C0126001C01261AF2CC12C74
:10185000D12C760120ED280F283080F014FF04C031
:10186000BE010E94CC1519C02A3040F016FFF8CFF7
:101870002F7D3FEE320F363098F72750412FC701AA
:10188000B6010E94A60B6B017C011260AA9459F06C
:10189000CE010E945C1597FFDDCF11FD04C0ABCFD8
:1018A000C12CD12C760117FF08C0F094E094D0949D
:1018B000C094C11CD11CE11CF11C212FB701A60151
:1018C000C4010E949A0B81E0DF91CF911F910F918B
:1018D000FF90EF90DF90CF90AF909F908F90089502
:1018E0004F925F927F928F929F92AF92BF92CF92D0
:1018F000DF92EF92FF920F931F93CF93DF931F928C
:10190000CDB7DEB78C012B017A01FC01178216825C
:10191000A12CF801D380F201D3FC8591D3FE8191F3
:10192000382F2F01882309F4EFC090E039830E94FB
:1019300033153981892B21F0C8010E94C60BE9CFEC
:10194000353241F4F201D3FC3591D3FE31912F01B0
:10195000353269F4C80139830E945C15398197FDDD
:10196000D1C03817B1F2B8010E94CC15CDC03A32BF
:1019700041F4D3FC3591D3FE31912F01BB24B394B4
:1019800001C0B12C712C20ED230F2A3090F4FB2DD7
:10199000F260BF2E672D70E080E090E040E20E9490
:1019A000A60B762EF201D3FC3591D3FE31912F0197
:1019B000EACFB1FE03C0711003C0A6C077247A94A9
:1019C000383619F03C3661F014C0F201D3FC359181
:1019D000D3FE31912F01383661F4FB2DF860BF2E14
:1019E0008B2D8460B82EF201D3FC3591D3FE31915A
:1019F0002F01332309F488C0632F70E084EE90E058
:101A000039830E943B153981892B09F47DC0B0FCD4
:101A100007C0F701C080D180C70102967C0102C0D7
:101A2000C12CD12C3E3651F4F8014681578160E03B
:101A300070E02B2DC6010E949A0B6BCF3336A1F4B8
:101A4000B1FC02C077247394C8010E945C1597FD15
:101A500059C0C114D10429F0F6018083C601019652
:101A60006C017A9489F74AC0C80139830E94C60B79
:101A7000398197FD47C03F3669F128F4343631F19A
:101A8000393679F12BC0333769F03537F9F026C094
:101A9000C114D10429F0F6018082C60101966C01BF
:101AA0007A9471F0C8010E945C154C0197FD08C042
:101AB0000E943315892B61F3B801C4010E94CC1533
:101AC000C114D104D9F0F601108218C0FB2DF062C8
:101AD000BF2E07C08B2D8061B82E03C09B2D906454
:101AE000B92E2B2DA601672DC8010E94DF0B811195
:101AF00005C0F8018381807329F406C0B0FC09CFCA
:101B0000A39407CFAA2019F08A2D90E002C08FEF8E
:101B10009FEF0F90DF91CF911F910F91FF90EF906A
:101B2000DF90CF90BF90AF909F908F907F905F900D
:101B30004F9008955058BB27AA270ED00DC1FED054
:101B400030F003D120F031F49F3F11F41EF4F3C0C4
:101B50000EF4E095E7FBE9C0E92F0FD180F3BA1747
:101B6000620773078407950718F071F49EF527C183
:101B70000EF4E0950B2EBA2FA02D0B01B9019001A8
:101B80000C01CA01A0011124FF27591B99F0593FEC
:101B900050F4503E68F11A16F040A22F232F342F34
:101BA0004427585FF3CF469537952795A795F04082
:101BB0005395C9F77EF41F16BA0B620B730B840B97
:101BC000BAF09150A1F0FF0FBB1F661F771F881F4F
:101BD000C2F70EC0BA0F621F731F841F48F48795A7
:101BE00077956795B795F7959E3F08F0B3CF939596
:101BF000880F08F09927EE0F97958795089571D073
:101C000008F481E0089504D06894B111D9C0089512
:101C1000BCD088F09F5790F0B92F9927B751A0F00A
:101C2000D1F0660F771F881F991F1AF0BA95C9F770
:101C300012C0B13081F0C3D0B1E00895C0C0672FA9
:101C4000782F8827B85F39F0B93FCCF38695779520
:101C50006795B395D9F73EF4909580957095619509
:101C60007F4F8F4F9F4F0895E89409C097FB3EF434
:101C700090958095709561957F4F8F4F9F4F9923D9
:101C8000A9F0F92F96E9BB279395F6958795779557
:101C90006795B795F111F8CFFAF4BB0F11F460FF17
:101CA0001BC06F5F7F4F8F4F9F4F16C0882311F06F
:101CB00096E911C0772321F09EE8872F762F05C083
:101CC000662371F096E8862F70E060E02AF09A951E
:101CD000660F771F881FDAF7880F9695879597F913
:101CE0000895990F0008550FAA0BE0E8FEEF1616AD
:101CF0001706E807F907C0F012161306E407F50700
:101D000098F0621B730B840B950B39F40A2661F073
:101D1000232B242B252B21F408950A2609F4A14016
:101D2000A6958FEF811D811D089597F99F6780E823
:101D300070E060E008959FEF80EC089500240A941D
:101D40001616170618060906089500240A94121696
:101D50001306140605060895092E0394000C11F4C9
:101D6000882352F0BB0F40F4BF2B11F460FF04C076
:101D70006F5F7F4F8F4F9F4F089557FD9058440FCF
:101D8000551F59F05F3F71F04795880F97FB991FDA
:101D900061F09F3F79F08795089512161306140697
:101DA000551FF2CF4695F1DF08C016161706180624
:101DB000991FF1CF86957105610508940895E894FF
:101DC000BB2766277727CB0197F908958ADF08F4A8
:101DD0008FEF08950BD0C0CFB1DF28F0B6DF18F039
:101DE000952309F0A2CFA7CF1124EACFC6DFA0F335
:101DF000959FD1F3950F50E0551F629FF001729FA0
:101E0000BB27F00DB11D639FAA27F00DB11DAA1FBE
:101E1000649F6627B00DA11D661F829F2227B00D0B
:101E2000A11D621F739FB00DA11D621F839FA00D96
:101E3000611D221F749F3327A00D611D231F849FE6
:101E4000600D211D822F762F6A2F11249F5750403D
:101E50008AF0E1F088234AF0EE0FFF1FBB1F661FD8
:101E6000771F881F91505040A9F79E3F510570F091
:101E70005CCFA6CF5F3FECF3983EDCF38695779579
:101E80006795B795F795E7959F5FC1F7FE2B880F8C
:101E9000911D9695879597F908952F923F924F92AD
:101EA0005F926F927F928F929F92AF92BF92CF92EA
:101EB000DF92EF92FF920F931F93CF93DF93CDB7F3
:101EC000DEB763970FB6F894DEBF0FBECDBF7C01BF
:101ED0001B016A01FC0117821682838181FF66C3A0
:101EE000BE016F5F7F4F4B01F7019381F10193FDBD
:101EF000859193FF81911F01882309F453C3853293
:101F000039F493FD859193FF81911F01853239F456
:101F1000B70190E00E949A1556016501E5CF10E0E7
:101F2000512C20E02032A0F48B3269F030F4803262
:101F300059F0833269F420612CC08D3239F080333E
:101F400039F4216026C02260246023C0286021C0AB
:101F500027FD27C030ED380F3A3078F426FF06C051
:101F6000FAE01F9F300D1124132F13C06AE0569E14
:101F7000300D1124532E20620CC08E3221F426FD28
:101F800011C3206406C08C3611F4206802C0883664
:101F900041F4F10193FD859193FF81911F0181111E
:101FA000C1CF9BEB980F933018F42061805E06C080
:101FB0009BE9980F933008F0AAC12F7E26FF16E008
:101FC0002F73722E853621F4F22FF0647F2E08C015
:101FD000863621F4622F6068762E02C011111150EE
:101FE00077FE07C01C3348F444244394410E27E095
:101FF0000BC0183030F4212F06C027E04CE3442EEC
:1020000003C027E017E0412C560174E0A70EB11C75
:10201000F6016081718182819381042DA4010E9467
:102020005B146C01098100FF02C003FF06C071FC54
:1020300007C072FC08C0612C08C03DE2632E05C0D9
:102040002BE2622E02C090E2692E802F8C7099F1F3
:10205000662011F084E001C083E0851510F0512C5A
:102060000BC0581A73FC08C0B70180E290E00E94D0
:102070009A155A94C9F7F3CF662029F0B701862D37
:1020800090E00E949A1503FD03C003EF10E002C028
:102090000FEE10E0F72DF0717F2EF8018491882368
:1020A00009F476C271108052B70190E00E949A152F
:1020B0000F5F1F4FF2CF77FE0FC04C0C04FF04C020
:1020C0008A81813309F44A94141474F5F8E0F41504
:1020D00078F588E0482E2CC076FC2AC0812F90E04D
:1020E0008C159D059CF06CEFC6166FEFD60674F04C
:1020F000772D7068772E0AC0E2E0F0E0EC0FFD1F4C
:10210000E10FF11D8081803319F411501111F4CFCA
:1021100077FE0EC044244394410E812F90E0C816F0
:10212000D9062CF41C1904C04424439401C010E0C7
:1021300077FE07C01C141D043CF496012F5F3F4F2F
:1021400005C025E030E002C021E030E0662011F05B
:102150002F5F3F4F112331F0412F50E04F5F5F4F12
:10216000240F351F452D50E02417350714F4521A5B
:1021700001C0512C872D897049F4552039F0B701E1
:1021800080E290E00E949A155A94F7CF662029F0D9
:10219000B701862D90E00E949A1573FC09C0552066
:1021A00039F0B70180E390E00E949A155A94F7CF76
:1021B00077FE5FC09C2D8D2DD7FE02C090E080E0A1
:1021C000692E782E40E050E0C601841991099D8760
:1021D0008C87960126193709280D391D812F90E02B
:1021E000EE27FF27E81BF90BFF87EE87FFEF6F163F
:1021F0007F0669F4B7018EE290E02B8B3A8B488B17
:10220000598B0E949A15598948893A892B89C61495
:10221000D70454F06C857D85661577052CF4F9019B
:10222000E40FF51F818101C080E371E0671A710836
:102230004F5F5F4FEE85FF856E167F066CF0B7012E
:1022400090E02B8B3A8B488B598B0E949A152B89E7
:102250003A8948895989CACF6C147D0439F49A8126
:10226000963318F4953311F404FF81E3B70190E03D
:102270004BC08A81813309F00F7EB70190E00E9444
:102280009A15111105C074FE18C085E490E017C0BE
:10229000B7018EE290E00E949A1582E06624639472
:1022A000680EF401E80FF11D8081B70190E00E94F3
:1022B0009A15115041F3862DF1CF85E690E0B701D4
:1022C0000E949A15D7FC05C0C114D10439F404FF4B
:1022D00005C0D194C194D1088DE201C08BE2B70151
:1022E00090E00E949A1580E36AE0C616D1042CF0B3
:1022F0008F5FFAE0CF1AD108F7CFB70190E00E94C4
:102300009A15B701C601C0960E949A1541C183363D
:1023100031F0833779F0833509F058C021C0560178
:1023200072E0A70EB11CF6018081898301E010E004
:10233000640114C05601F2E0AF0EB11CF601C0807A
:10234000D18026FF03C0612F70E002C06FEF7FEFE6
:10235000C6012B8B0E9451158C012B892F7715C03C
:102360005601F2E0AF0EB11CF601C080D18026FF0D
:1023700003C0612F70E002C06FEF7FEFC6012B8BAF
:102380000E9446158C012B892068722E23FD1AC0ED
:10239000852D90E008171907A8F4B70180E290E0B6
:1023A0000E949A155A94F4CFF60177FC859177FE36
:1023B00081916F01B70190E00E949A1551105A94D3
:1023C000015011090115110579F7E2C0843611F0A9
:1023D000893651F5560127FF09C0F4E0AF0EB11C54
:1023E000F60160817181828193810AC0F2E0AF0EB3
:1023F000B11CF60160817181882777FD8095982F47
:10240000022F0F7697FF08C0909580957095619583
:102410007F4F8F4F9F4F00682AE030E0A4010E9459
:10242000E515C82EC8183EC0022F853721F40F7E4F
:102430002AE030E01DC0097F8F3691F018F488350E
:1024400059F0B0C0803719F0883711F0ABC0006187
:1024500004FF09C0046007C024FF08C0066006C06E
:1024600028E030E005C020E130E002C020E132E0A9
:10247000560107FF09C0F4E0AF0EB11CF601608100
:1024800071818281938108C0F2E0AF0EB11CF60128
:102490006081718180E090E0A4010E94E515C82E62
:1024A000C8180F7706FF0BC0202F2E7FC11650F4DF
:1024B00004FF0AC002FD08C0202F2E7E05C0DC2CC0
:1024C000202F03C0DC2C01C0D12E24FF0DC0FE0143
:1024D000EC0DF11D8081803311F4297E09C022FFAB
:1024E00006C0D394D39404C0822F867809F0D39485
:1024F00023FD13C020FF06C01C2DD51418F4150DA4
:102500001D19D52CD51468F4B70180E290E02B8B0F
:102510000E949A15D3942B89F5CFD51410F45D1829
:1025200001C0512C24FF12C0B70180E390E02B8B37
:102530000E949A152B8922FF17C021FF03C088E54E
:1025400090E002C088E790E0B7010CC0822F867847
:1025500059F021FD02C080E201C08BE227FD8DE22F
:10256000B70190E00E949A15C11638F4B70180E3D4
:1025700090E00E949A151150F7CFCA94F401EC0D27
:10258000F11D8081B70190E00E949A15C110F5CF2E
:10259000552009F4C2CCB70180E290E00E949A1560
:1025A0005A94F6CFF7018681978102C08FEF9FEF93
:1025B00063960FB6F894DEBF0FBECDBFDF91CF910B
:1025C0001F910F91FF90EF90DF90CF90BF90AF9051
:1025D0009F908F907F906F905F904F903F902F9043
:1025E0000895A1E21A2EAA1BBB1BFD010DC0AA1F54
:1025F000BB1FEE1FFF1FA217B307E407F50720F06C
:10260000A21BB30BE40BF50B661F771F881F991FE6
:102610001A9469F760957095809590959B01AC012F
:10262000BD01CF010895EF920F931F93CF93DF93D6
:10263000E80147FF02C034E101C034E0E42FFF2786
:10264000E7FDF095F7FF03C0F195E195F109E32E61
:10265000022F2E2FAE010E944316CE01DF91CF91A3
:102660001F910F91EF900895CF93DF9382309105E2
:1026700010F482E090E0E0911303F091140320E065
:1026800030E0A0E0B0E0309739F140815181481747
:102690005907B8F04817590771F482819381109750
:1026A00029F013969C938E9312972CC09093140349
:1026B0008093130327C02115310531F042175307CA
:1026C00018F0A901DB0101C0EF019A01BD01DF0192
:1026D0000280F381E02DD7CF21153105F9F0281BB9
:1026E000390B2430310580F48A819B816115710595
:1026F00021F0FB019383828304C0909314038093A1
:102700001303FE01329644C0FE01E20FF31F8193D2
:10271000919322503109398328833AC020911103C3
:1027200030911203232B41F420917E0230917F02DD
:10273000309312032093110320917C0230917D028B
:102740002115310541F42DB73EB7409180025091DB
:102750008102241B350BE0911103F0911203E21763
:10276000F307A0F42E1B3F0B2817390778F0AC01B4
:102770004E5F5F4F2417350748F04E0F5F1F509391
:102780001203409311038193919302C0E0E0F0E0C3
:10279000CF01DF91CF910895CF93DF93009709F494
:1027A00087C0FC01329713821282C0911303D0912B
:1027B0001403209781F420813181280F391F8091E3
:1027C0001103909112038217930779F5F093120386
:1027D000E09311036DC0DE0120E030E0AE17BF07CB
:1027E00050F412964D915C9113979D01411551053E
:1027F00009F1DA01F3CFB383A28340815181840FC1
:10280000951F8A179B0771F48D919C911197840FE6
:10281000951F02969183808312968D919C911397B8
:10282000938382832115310529F4F0931403E093F7
:1028300013033EC0D9011396FC93EE9312974D916A
:102840005D91A40FB51FEA17FB0779F48081918190
:10285000840F951F0296D90111969C938E938281C5
:10286000938113969C938E931297E0E0F0E08A8117
:102870009B81009719F0FE01EC01F9CFCE01029681
:1028800028813981820F931F209111033091120307
:102890002817390769F4309729F41092140310921D
:1028A000130302C013821282D0931203C093110348
:1028B000DF91CF910895283008F027E03327DA011F
:1028C000990F311D87FD916000966105710539F4FE
:1028D00032602E5F3D9330E32A95E1F708959F3FE4
:1028E00030F080387105610509F03C5F3C5F3D9335
:1028F000913008F08068911DDF93CF931F930F9361
:10290000FF92EF92192F987F9695E92F96959695BD
:10291000E90FFF27EF5AFE4F99273327EE24FF24B4
:10292000A701E70105900894079428F4360FE71EE5
:10293000F81E491F511D660F771F881F991F0694A7
:10294000A1F70590079428F4E70EF81E491F561FBB
:10295000C11D770F881F991F661F0694A1F7059068
:10296000079428F4F80E491F561FC71FD11D880F62
:10297000991F661F771F0694A1F70590079420F40E
:10298000490F561FC71FD81F990F661F771F881F33
:102990000694A9F784911095177041F0D695C795C4
:1029A00057954795F794E7941A95C1F7E7EFF0E04C
:1029B00068941590159135916591959105907FE2F8
:1029C0007395E118F10A430B560BC90BD009C0F7F8
:1029D000E10CF11E431F561FC91FD01D7EF470333A
:1029E00011F48A95E6CFE894015030F0080F0AF40C
:1029F0000027021708F4202F2395022F7A3328F09E
:102A000079E37D932A95E9F710C07D932A9589F69D
:102A1000069497956795379517951794E118F10ADD
:102A2000430B560BC90BD00998F023957E917395F3
:102A30007A3308F070E37C932013B8F77E917061CD
:102A40007D9330F0839571E37D9370E32A95E1F7F0
:102A50001124EF90FF900F911F91CF91DF91992753
:102A600087FD9095089591118CC2803219F089509C
:102A70008550D0F70895FC010590061621F000203E
:102A8000D9F7C00108953197CF010895FC01059051
:102A9000615070400110D8F7809590958E0F9F1F60
:102AA0000895FC016150704001900110D8F78095A5
:102AB00090958E0F9F1F0895CF93DF93EC012B818C
:102AC00020FF33C026FF0AC02F7B2B838E819F817E
:102AD00001969F838E838A8190E029C022FF0FC0D8
:102AE000E881F9818081992787FD9095009719F4F5
:102AF00020622B831AC03196F983E8830EC0EA85E1
:102B0000FB85099597FF09C02B81019611F480E19F
:102B100001C080E2822B8B8308C02E813F812F5F12
:102B20003F4F3F832E83992702C08FEF9FEFDF91A6
:102B3000CF9108950F931F93CF93DF93182F092FF1
:102B4000EB018B8181FD03C08FEF9FEF20C082FFDF
:102B500010C04E815F812C813D81421753077CF468
:102B6000E881F9819F012F5F3F4F398328831083CC
:102B700006C0E885F985812F0995892B29F72E81D3
:102B80003F812F5F3F4F3F832E83812F902FDF9117
:102B9000CF911F910F910895FB01238120FF12C057
:102BA00026FD10C08F3F3FEF930761F082832F7D9A
:102BB000206423832681378121503109378326837E
:102BC000992708958FEF9FEF0895FA01AA272830DB
:102BD00051F1203181F1E8946F936E7F6E5F7F4FEA
:102BE0008F4F9F4FAF4FB1E03ED0B4E03CD0670F66
:102BF000781F891F9A1FA11D680F791F8A1F911DB9
:102C0000A11D6A0F711D811D911DA11D20D009F408
:102C100068943F912AE0269F11243019305D31934A
:102C2000DEF6CF010895462F4770405D4193B3E033
:102C30000FD0C9F7F6CF462F4F70405D4A3318F0DA
:102C4000495D31FD4052419302D0A9F7EACFB4E08B
:102C5000A6959795879577956795BA95C9F7009743
:102C60006105710508959B01AC010A2E06945795E4
:102C7000479537952795BA95C9F7620F731F841F3B
:102C8000951FA01D08956F927F929F92AF92BF9261
:102C9000CF92DF92EF92FF920F931F93CF93DF9328
:102CA000CDB7DEB729970FB6F894DEBF0FBECDBF04
:102CB0006A01B22E102F0C3320F4FF24F394F00E8F
:102CC00002C04CE3F42E0F2D27E0AE014F5F5F4FA3
:102CD0000E945B147981272F2970213031F0E1FCAB
:102CE00006C0E0FC06C060E005C06DE203C06BE218
:102CF00001C060E2AE2DA07173FF36C0662311F0F3
:102D000084E001C083E08B1510F4B81A01C0B12C27
:102D1000A1110BC0F6018B2D90E2882319F091933D
:102D20008150FBCFCB0CD11CB12C662331F0F601C6
:102D3000608396012F5F3F4F6901C6010396E2FE53
:102D400005C02EE4F601208331E404C02EE6F6012E
:102D5000208331E631832283FC012B2D30E22223B4
:102D6000F1F131932150FBCF72FF40C0662311F087
:102D700084E001C083E08B1510F4B81A01C0B12CB7
:102D8000A1110BC0F6018B2D90E2882319F09193CD
:102D90008150FBCFCB0CD11CB12C662331F0F60156
:102DA000608396012F5F3F4F6901C6010396E2FEE3
:102DB00007C029E4F60120832EE4218326E406C01F
:102DC00029E6F60120832EE6218326E62283FC01F4
:102DD0002B2D30E2222319F031932150FBCFFC013F
:102DE000EB0DF11D10828EEF9FEFB7C0B1E06111C6
:102DF00001C0B0E04B2F50E01816190624F49C01D6
:102E00002F5F3F4F02C021E030E0240F351F112318
:102E100029F0412F50E04F5F5F4F02C040E050E08B
:102E2000420F531F2B2D30E04217530714F4B41AEE
:102E300001C0B12C2E2D287159F4F6012B2D30E252
:102E4000222319F031932150FBCFCB0CD11CB12C94
:102E5000BB2331F0F601608396012F5F3F4F69017C
:102E6000A1110BC0F6012B2D30E3222319F0319371
:102E70002150FBCFCB0CD11CB12CF80E0A81372F7F
:102E80003071A32E74FF03C0013309F4FA941F14A8
:102E90002CF42F2D293018F028E001C021E0682FF4
:102EA000392F97FF02C060E030E0462F532F612C8E
:102EB000712C3EE2932EBC01621B71099B01DC0167
:102EC000A41BB50BE1E0F0E0EC0FFD1FAE0FBF1F40
:102ED000E12EF12CF194E194F1084F3FFFEF5F07F1
:102EE00031F4F6019082B6016F5F7F4F6B0184175A
:102EF00095074CF02417350734F4BD01660D771D96
:102F0000FB01118101C010E341505109FFEF6F1A1D
:102F10007F0AB6016F5F7F4F4E155F0524F0F60103
:102F200010836B01DACF4817590739F4063320F4C0
:102F3000053319F4A11001C011E3F6011083FB0160
:102F40008B2D90E2882319F091938150FBCFFB01E8
:102F5000EB0DF11D108280E090E029960FB6F894F9
:102F6000DEBF0FBECDBFDF91CF911F910F91FF90BC
:102F7000EF90DF90CF90BF90AF909F907F906F9039
:0C2F80000895992788270895F894FFCF42
:102F8C0018D0646F776E210A000000007570210A5A
:102F9C00000000000000636865636B210A000000FC
:102FAC00546F646F206F6B210A000A003A280000EE
:102FBC0009004C6579656E646F2E2E2E2E2E0A003C
:102FCC007A3A2000793A2000783A2000436F6D70ED
:102FDC006173732043616C0A0000436F6D70617301
:102FEC00730A000000000000416363656C65726148
:102FFC0063696F6E0A004779726F0A00000015034F
:02300C002000A2
:00000001FF
