:100000000C94F9000C940B010C940B010C940B0153
:100010000C940B010C940B010C940B010C940B0130
:100020000C940B010C940B010C940B010C940B0120
:100030000C940B010C940B010C940B010C940B0110
:100040000C940B010C940B010C940B010C940B0100
:100050000C940B010C940B010C940B010C940B01F0
:100060000C940B010C940B010C940B010C940B01E0
:100070000C940B010C940B010C940B010C940B01D0
:100080000C940B010C940B010C940B010C940B01C0
:100090000C940B010C940B010C940B010C940B01B0
:1000A0000C940B010C940B010C940B010C940B01A0
:1000B0000C940B010C940B010C940B010C940B0190
:1000C0000C940B010C940B010C940B010C940B0180
:1000D0000C940B010C940B010C940B010C940B0170
:1000E0000C940B016364696E6F7073757858006EC1
:1000F000616E00696E660000407A10F35A00A072CB
:100100004E18090010A5D4E80000E8764817000052
:10011000E40B54020000CA9A3B000000E1F5050020
:100120000080969800000040420F000000A0860169
:10013000000000102700000000E803000000006439
:1001400000000000000A00000000000100000000A4
:10015000002C76D888DC674F0823DFC1DFAE59E179
:10016000B1B796E5E3E453C63AE651997696E8E6E8
:10017000C28426EB898C9B62ED407C6FFCEFBC9CBB
:100180009F40F2BAA56FA5F490055A2AF75C936BCD
:100190006CF9676DC11BFCE0E40D47FEF520E6B588
:1001A00000D0ED902E0300943577050080841E0862
:1001B0000000204E0A000000C80C333333330F9880
:1001C0006E12831141EF8D2114893BE65516CFFE47
:1001D000E6DB18D1844B381BF77C1D901DA4BBE4D3
:1001E00024203284725E228100C9F124ECA1E53D15
:1001F000270011241FBECFEFD1E2DEBFCDBF22E02A
:10020000A0E0B2E001C01D92A830B207E1F70E9461
:10021000C8010C94090A0C9400009B01215031097B
:1002200040E050E060E472E48FE090E00E94C0079C
:10023000832F99278093C5002093C400E1ECF0E060
:10024000808188618083E2ECF0E080818660808339
:1002500008959091C00095FFFCCF8093C60008954B
:10026000CF93DF93EB018991882319F00E94290134
:10027000FACFDF91CF9108958091C00087FFFCCF26
:100280008091C6000895AF92BF92DF92EF92FF92E5
:100290000F931F93CF93DF931F92CDB7DEB77C01EF
:1002A0008C010E5F1F4FA12CB12CD02E912F998362
:1002B0000E943C0199818D3059F0F3E6AF16B104EC
:1002C00039F02FEFA21AB20AF80181938F01EFCF14
:1002D000F501EE0DFF1D12828D2D0F90DF91CF9154
:1002E0001F910F91FF90EF90DF90BF90AF90089516
:1002F0008091C00087FF03C08091C600F9CF0895A8
:10030000E0EAF0E080818C7F8083E1EAF0E08081A8
:10031000827E80838081826080831092A50010920B
:10032000A40008953F9A0E9847980C948001CF93AB
:10033000DF93EC01479A80E58A95F1F74798069B91
:10034000FECF1092A5001092A4000699FECF8091D6
:10035000A4009091A50099838883A0E0B0E08A83EF
:100360009B83AC83BD836A817B818C819D8124E7E3
:1003700030E040E050E00E94C0072E833F83488772
:1003800059876E817F8188859985DF91CF91089506
:10039000CF93DF93CDB7DEB7C85FD3400FB6F894E5
:1003A000DEBF0FBECDBF88EE93E09A838983FE0146
:1003B0003396DF019C011D9221503040E1F7CE01C0
:1003C00085519C4F0E9492018AE090E0C950DC4F19
:1003D00099838883C75FD340CE0185519C4F0E948B
:1003E0009701DC01CB014AE000E010E0B8010E9477
:1003F000E408B801CE0101960E943001BE016950A7
:100400007C4FCE0101960E9430013FEF87EA91E6D2
:10041000315080409040E1F700C00000DDCF20FD6A
:1004200009C0FC0123FD05C022FF02C07383628363
:1004300051834083089544FD10C046FD10C0DB0188
:10044000FC01AA0FBB1FEE1FFF1F1094D1F76A0F0C
:100450007B1F8E1F9F1F31E003C033E001C034E0DB
:10046000660F771F881F991F3150D1F7620F711DDA
:10047000811D911D08950F931F93CF93DF938C01DE
:10048000C8010E940909EC0197FD08C00E94BA0842
:10049000892BB1F7B801CE010E947F09CE01DF910F
:1004A000CF911F910F9108958F929F92AF92BF921B
:1004B000CF92DF92EF92FF920F931F93CF93DF9330
:1004C0001F92CDB7DEB78C01C62E7A0129830E9418
:1004D0000909AC01552729814B32510521F04D32D4
:1004E000510569F42068CA94C11002C080E076C04A
:1004F000C80129830E940909298197FDF7CF322F6E
:100500003D7FD32E322F307349F5803339F5BB242C
:10051000BA94BC0C09F44EC0C80129830E94090991
:10052000298197FD47C0382F3F7D383569F48D2DDF
:100530008264D82ECA94CA94CC20E1F1C8010E94EA
:10054000090997FF0BC036C026FF04C02D2D22607D
:10055000D22E03C03D2D3261D32ECB2C812C912C79
:10056000540120ED280F283080F0D4FE04C0B801DB
:100570000E947F091CC02A3040F0D6FEF8CF2F7DA4
:100580003FEE320F363098F727504D2DC501B4019C
:100590000E941B024B015C018D2D8260D82ECA94F3
:1005A000CC2059F0C8010E94090997FFDACFD1FC8D
:1005B00004C09CCF812C912C5401D7FE08C0B0946C
:1005C000A09490948094811C911CA11CB11C2D2D91
:1005D000B501A401C7010E940F0281E00F90DF91D5
:1005E000CF911F910F91FF90EF90DF90CF90BF9030
:1005F000AF909F908F9008954F925F926F927F92ED
:100600008F929F92AF92BF92CF92DF92EF92FF9222
:100610000F931F93CF93DF931F92CDB7DEB77C016B
:100620002B015A01FC0117821682812CF70173807D
:10063000F20173FC859173FE8191382F2F0188237D
:1006400009F4E2C090E039830E94BA083981892B0D
:1006500021F0C7010E943B02E9CF353241F4F2019B
:1006600073FC359173FE31912F01353269F4C70166
:1006700039830E940909398197FDC4C03817B1F246
:10068000B7010E947F09C0C03A3239F473FC35913A
:1006900073FE31912F0111E001C010E0620160E0B2
:1006A00020ED230F2A3070F4126070E080E090E0BB
:1006B00040E20E941B02F60173FC359173FE3191FA
:1006C0006F01EECF962E032F260111FF03C061119B
:1006D00003C09AC099249A94383619F03C3651F0E8
:1006E00010C0F60173FC059173FE01912F010836CD
:1006F00041F418601460F20173FC059173FE0191DE
:100700002F01002309F480C0602F70E084EE90E098
:100710000E94C308892B09F477C010FD07C0F501BA
:10072000C080D180C50102965C0102C0C12CD12CD1
:100730000E3651F4F7014681578160E070E0212FB9
:10074000C6010E940F0272CF0336A9F411FD02C048
:1007500099249394C7010E94090997FD53C0C114BD
:10076000D10429F0F6018083C60101966C019A94A8
:100770009110F0CF43C0C7010E943B0297FD42C0D9
:100780000F3661F128F4043639F1093651F128C0E9
:10079000033771F0053701F123C0C114D10429F0EA
:1007A000F6016082C60101966C019A94992071F05D
:1007B000C7010E9409093C0197FD08C00E94BA08C0
:1007C000892B59F3B701C3010E947F09C114D104D9
:1007D000A9F0F601108212C0106203C0106101C0BE
:1007E0001064212FA601692DC7010E9454028111B6
:1007F00005C0F7018381807329F406C010FD16CF70
:10080000839414CF882019F0882D90E002C08FEFD8
:100810009FEF0F90DF91CF911F910F91FF90EF907D
:10082000DF90CF90BF90AF909F908F907F906F9010
:100830005F904F9008952F923F924F925F926F92E8
:100840007F928F929F92AF92BF92CF92DF92EF9260
:10085000FF920F931F93CF93DF93CDB7DEB76397CC
:100860000FB6F894DEBF0FBECDBF6C014B012A015D
:10087000FC0117821682838181FF43C3AE014F5F63
:100880005F4F3A01F6019381F40193FD859193FF47
:1008900081914F01882309F430C3853239F493FDE7
:1008A000859193FF81914F01853239F4B60190E033
:1008B0000E94470952012501E5CF10E0F12C20E00C
:1008C0002032A0F48B3269F030F4803259F0833258
:1008D00069F420612CC08D3239F0803339F4216005
:1008E00026C02260246023C0286021C027FD27C0C5
:1008F00030ED380F3A3078F426FF06C0FAE01F9F3B
:10090000300D1124132F13C04AE0F49E300D112432
:10091000F32E20620CC08E3221F426FDEEC220643C
:1009200006C08C3611F4206802C0883641F4F40108
:1009300093FD859193FF81914F018111C1CF9BEB75
:10094000980F933018F42061805E06C09BE9980FE1
:10095000933008F071C12F7E26FF16E02F73322EE0
:10096000853619F42064322E08C0863621F4F22F21
:10097000F0683F2E02C01111115037FE07C01C3322
:1009800050F4EE24E394E10E27E00BC0183038F069
:1009900027E017E005C027E04CE3E42E02C0212F3A
:1009A000E12C520144E0A40EB11CF201608171817E
:1009B000828193810E2DA3010E94E2072C010981FF
:1009C00000FF02C003FF07C031FC08C032FE09C0AF
:1009D00030E2232E07C02DE2222E04C09BE2292EF6
:1009E00001C0212C802F8C7019F0211068C2A8C280
:1009F00037FE0FC0E40C04FF04C08A81813309F480
:100A0000EA941E1474F5F8E0FE1578F588E0E82EF7
:100A10002CC036FC2AC0812F90E0841595059CF0EF
:100A20002CEF42162FEF520674F0432D4068342EFF
:100A30000AC0E2E0F0E0EC0FFD1FE10FF11D808144
:100A4000803319F411501111F4CF37FE0EC0EE248B
:100A5000E394E10E812F90E0481659062CF4141906
:100A600004C0EE24E39401C010E037FE06C0141465
:100A7000150434F4C201019605C085E090E002C07F
:100A800081E090E021100196112331F0212F30E018
:100A90002F5F3F4F820F931F2F2D30E08217930758
:100AA00014F4F81A01C0F12C832D897049F4FF2049
:100AB00039F0B60180E290E00E944709FA94F7CF3E
:100AC000222029F0B601822D90E00E94470933FCD4
:100AD00009C0FF2039F0B60180E390E00E94470989
:100AE000FA94F7CF37FE5AC0942D852D57FE02C0D9
:100AF00090E080E0292E382E20E030E0A2014E194F
:100B000051095D874C87A201421953095F874E87BF
:100B1000612F70E044275527461B570B598B488B94
:100B20005FEF2516350649F4B6018EE290E02A8B78
:100B30003B8B0E9447093B892A89421453046CF07D
:100B40004C855D854215530544F4EE85FF85E20F23
:100B5000F31FE60DF71D818101C080E351E0251AE6
:100B600031082F5F3F4F48895989241635064CF0CC
:100B7000B60190E02A8B3B8B0E9447092A893B896A
:100B8000CFCF2414350439F49A81963318F4953371
:100B900011F404FF81E3B60190E04BC08A818133F8
:100BA00009F00F7EB60190E00E944709111105C0BF
:100BB00034FC18C085E690E017C0B6018EE290E0E4
:100BC0000E94470982E0EE24E394E80EF301E80F67
:100BD000F11D8081B60190E00E94470911508E2DD1
:100BE00091F7E6CF85E490E0B6010E94470957FCF3
:100BF00005C04114510439F404FF05C051944194D7
:100C000051088DE201C08BE2B60190E00E944709D5
:100C100080E39AE0491651042CF08F5F5AE0451AA0
:100C20005108F7CFB60190E00E944709B601C20112
:100C3000C0960E94470957C1833631F0833779F057
:100C4000833509F058C021C05201E2E0AE0EB11C5C
:100C5000F2018081898301E010E0230114C0520178
:100C6000F2E0AF0EB11CF2014080518026FF03C0BC
:100C7000612F70E002C06FEF7FEFC2012A8B0E94EC
:100C8000D9088C012A892F7715C05201F2E0AF0EE6
:100C9000B11CF2014080518026FF03C0612F70E03B
:100CA00002C06FEF7FEFC2012A8B0E94CE088C0139
:100CB0002A892068322E23FD1AC08F2D90E0081754
:100CC0001907A8F4B60180E290E00E944709FA945F
:100CD000F4CFF20137FC859137FE81912F01B601E7
:100CE00090E00E944709F110FA9401501109011592
:100CF000110579F7F8C0843611F0893659F552019B
:100D000027FF09C0F4E0AF0EB11CF20160817181D0
:100D1000828193810AC0F2E0AF0EB11CF2016081C2
:100D20007181072E000C880B990B2F76322E97FFBE
:100D300009C090958095709561957F4F8F4F9F4F1B
:100D40002068322E2AE030E0A3010E949809E82EA4
:100D5000E6183FC0022F853721F40F7E2AE030E0ED
:100D60001DC0097F8F3691F018F4883559F0C5C041
:100D7000803719F0883711F0C0C0006104FF09C046
:100D8000046007C024FF08C0066006C028E030E009
:100D900005C020E130E002C020E132E0520107FF4F
:100DA00009C0F4E0AF0EB11CF20160817181828153
:100DB000938108C0F2E0AF0EB11CF2016081718135
:100DC00080E090E0A3010E949809E82EE6180F77D2
:100DD000302E36FE0BC0332D3E7FE11650F434FE2C
:100DE0000AC032FC08C0332D3E7E05C00E2D332DC7
:100DF00003C00E2D01C0012F34FF0CC0FE01EE0D0B
:100E0000F11D8081803311F4397E08C032FF05C0A6
:100E10000E5F04C0832F867809F00F5F33FD13C087
:100E200030FF06C01E2D0F1518F41F0D101B0F2DBF
:100E30000F1568F4B60180E290E03B8B0E944709F1
:100E40000F5F3B89F5CF0F1510F4F01A01C0F12C9C
:100E500034FF12C0B60180E390E03B8B0E9447094B
:100E60003B8932FF17C031FD03C088E790E002C024
:100E700088E590E0B6010CC0832F867859F031FFE9
:100E800002C08BE201C080E237FD8DE2B60190E046
:100E90000E944709E11638F4B60180E390E00E9411
:100EA00047091150F7CFEA94F301EE0DF11D80814F
:100EB000B60190E00E944709E110F5CF14C0F4E0BC
:100EC000FF1558F584E0F81A33FE1EC0211026C025
:100ED00003FF2AC00FEE10E0F32DF0713F2EF80152
:100EE0008491811124C0FF2009F4E5CCB60180E291
:100EF00090E00E944709FA94F6CFF6018681978127
:100F000026C08FEF9FEF23C0B60180E290E00E94E1
:100F10004709FA94F110F8CFD9CFF12CB601822D00
:100F200090E00E944709D4CF03EF10E0D5CF3110F5
:100F30008052B60190E00E9447090F5F1F4FCFCF4C
:100F400023E02F1510F483E0BECFF12CC1CF6396C0
:100F50000FB6F894DEBF0FBECDBFDF91CF911F91CA
:100F60000F91FF90EF90DF90CF90BF90AF909F9048
:100F70008F907F906F905F904F903F902F9008954B
:100F8000A1E21A2EAA1BBB1BFD010DC0AA1FBB1F8D
:100F9000EE1FFF1FA217B307E407F50720F0A21BFF
:100FA000B30BE40BF50B661F771F881F991F1A946C
:100FB00069F760957095809590959B01AC01BD0196
:100FC000CF010895283008F027E03327DA01990F80
:100FD000311D87FD916000966105710539F432601D
:100FE0002E5F3D9330E32A95E1F708959F3F30F05F
:100FF00080387105610509F03C5F3C5F3D9391309D
:1010000008F08068911DDF93CF931F930F93FF9299
:10101000EF92192F987F9695E92F96959695E90F5F
:10102000FF27EF5AFE4F99273327EE24FF24A7010D
:10103000E70105900894079428F4360FE71EF81E80
:10104000491F511D660F771F881F991F0694A1F72E
:101050000590079428F4E70EF81E491F561FC11D7E
:10106000770F881F991F661F0694A1F705900794B4
:1010700028F4F80E491F561FC71FD11D880F991F4E
:10108000661F771F0694A1F70590079420F4490F77
:10109000561FC71FD81F990F661F771F881F0694FA
:1010A000A9F784911095177041F0D695C79557957B
:1010B0004795F794E7941A95C1F7E7EFF0E0689445
:1010C0001590159135916591959105907FE27395F5
:1010D000E118F10A430B560BC90BD009C0F7E10C1C
:1010E000F11E431F561FC91FD01D7EF4703311F42B
:1010F0008A95E6CFE894015030F0080F0AF40027F3
:10110000021708F4202F2395022F7A3328F079E371
:101110007D932A95E9F710C07D932A9589F6069468
:1011200097956795379517951794E118F10A430B32
:10113000560BC90BD00998F023957E9173957A339D
:1011400008F070E37C932013B8F77E9170617D9373
:1011500030F0839571E37D9370E32A95E1F71124D4
:10116000EF90FF900F911F91CF91DF91992787FD0D
:101170009095089591110C94F609803219F08950D8
:101180008550C8F70895FC010590061621F000204F
:10119000D9F7C00108953197CF010895FC0105905A
:1011A000615070400110D8F7809590958E0F9F1F69
:1011B0000895FC016150704001900110D8F78095AE
:1011C00090958E0F9F1F0895BB274A3031F49923C5
:1011D00022F4BDE2909581959F4F0C94F008BB27B7
:1011E000FB015527AA27880F991FAA1FA41710F0E3
:1011F000A41B83955051B9F7A05DAA3308F0A95DEF
:10120000A193009779F7B111B1931192CB010C948E
:10121000F909CF93DF93EC012B8120FF33C026FF28
:101220000AC02F7B2B838E819F8101969F838E83A3
:101230008A8190E029C022FF0FC0E881F981808176
:10124000082E000C990B009719F420622B831AC00A
:101250003196F983E8830EC0EA85FB85099597FFEF
:1012600009C02B81019611F080E201C080E1822B40
:101270008B8308C02E813F812F5F3F4F3F832E839A
:10128000992702C08FEF9FEFDF91CF9108950F93C1
:101290001F93CF93DF93FB01238121FD03C08FEFC9
:1012A0009FEF28C022FF16C04681578124813581D7
:1012B0004217530744F4A081B1819D012F5F3F4F36
:1012C000318320838C93268137812F5F3F4F378373
:1012D000268310C0EB01092F182F0084F185E02D23
:1012E0000995892BE1F68E819F8101969F838E83DC
:1012F000812F902FDF91CF911F910F910895FB01C6
:10130000238120FF12C026FD10C08F3F3FEF9307BF
:1013100061F082832F7D20642383268137812150D1
:10132000310937832683992708958FEF9FEF08951A
:10133000FA01AA27283051F1203181F1E8946F9306
:101340006E7F6E5F7F4F8F4F9F4FAF4FB1E03ED0AC
:10135000B4E03CD0670F781F891F9A1FA11D680F4A
:10136000791F8A1F911DA11D6A0F711D811D911D7D
:10137000A11D20D009F468943F912AE0269F1124F2
:101380003019305D3193DEF6CF010895462F477056
:10139000405D4193B3E00FD0C9F7F6CF462F4F70B1
:1013A000405D4A3318F0495D31FD4052419302D00F
:1013B000A9F7EACFB4E0A6959795879577956795B5
:1013C000BA95C9F700976105710508959B01AC01B5
:1013D0000A2E06945795479537952795BA95C9F7DC
:1013E000620F731F841F951FA01D089599278827DA
:1013F0000895DC01FC01672F71917723E1F73297A3
:1014000004C07C916D9370836291AE17BF07C8F3DF
:061410000895F894FFCFDF
:00000001FF
