:100000000C94F9000C940B010C940B010C940B0153
:100010000C940B010C940B010C940B010C940B0130
:100020000C940B010C940B010C940B010C940B0120
:100030000C940B010C940B010C940B010C940B0110
:100040000C940B010C940B010C940B010C940B0100
:100050000C940B010C940B010C940B010C940B01F0
:100060000C940B010C940B010C940B010C940B01E0
:100070000C940B010C940B010C940B010C940B01D0
:100080000C940B010C940B010C940B010C940B01C0
:100090000C940B010C940B010C940B010C940B01B0
:1000A0000C940B010C940B010C940B010C940B01A0
:1000B0000C940B010C940B010C940B010C940B0190
:1000C0000C940B010C940B010C940B010C940B0180
:1000D0000C940B010C940B010C940B010C940B0170
:1000E0000C940B016364696E6F7073757858006EC1
:1000F000616E00696E660000407A10F35A00A072CB
:100100004E18090010A5D4E80000E8764817000052
:10011000E40B54020000CA9A3B000000E1F5050020
:100120000080969800000040420F000000A0860169
:10013000000000102700000000E803000000006439
:1001400000000000000A00000000000100000000A4
:10015000002C76D888DC674F0823DFC1DFAE59E179
:10016000B1B796E5E3E453C63AE651997696E8E6E8
:10017000C28426EB898C9B62ED407C6FFCEFBC9CBB
:100180009F40F2BAA56FA5F490055A2AF75C936BCD
:100190006CF9676DC11BFCE0E40D47FEF520E6B588
:1001A00000D0ED902E0300943577050080841E0862
:1001B0000000204E0A000000C80C333333330F9880
:1001C0006E12831141EF8D2114893BE65516CFFE47
:1001D000E6DB18D1844B381BF77C1D901DA4BBE4D3
:1001E00024203284725E228100C9F124ECA1E53D15
:1001F000270011241FBECFEFD1E2DEBFCDBF22E02A
:10020000A0E0B2E001C01D92AA30B207E1F70E945F
:10021000B0010C94F5090C940000615071099B0128
:1002200040E050E060E472E48FE090E00E94B307A9
:10023000832F99278093C5002093C400E1ECF0E060
:10024000808188618083E2ECF0E080818660808339
:1002500008959091C00095FFFCCF8093C60008954B
:10026000CF93DF93EB018991882319F00E94290134
:10027000FACFDF91CF9108958091C00087FFFCCF26
:100280008091C60008950F931F93CF93DF938C0145
:10029000C0E0D0E00E943C018D3051F4C00FD11F6E
:1002A0001A82C8010296DF91CF911F910F91089594
:1002B000C336D10599F32196F801EC0FFD1F818318
:1002C000E9CF8091C00087FF03C08091C600F9CFBD
:1002D0000895E0EAF0E080818C7F8083E1EAF0E03D
:1002E0008081827E80838081826080831092A500DD
:1002F0001092A40008953F9A0E9847980C946901B3
:10030000479A80E58A95F1F747980895CF93DF9350
:10031000EC010E948001069BFECF8091A400909189
:10032000A50090930902809308020699FECF2091C0
:10033000A4003091A500281B390BC90164E770E0C7
:100340000E949F07AB0160E070E04A835B836C838F
:100350007D831092A5001092A400DF91CF910895A3
:10036000CF93DF93CDB7DEB7C25FD3400FB6F8941B
:10037000DEBF0FBECDBF88EE93E09A838983FE0176
:100380003396DF019C011D9221503040E1F7CE01F0
:1003900085519C4F0E947B018AE090E0CF50DC4F5A
:1003A00099838883C15FD340CE0185519C4F0E94C1
:1003B00086014AE000E010E0B801C351DC4F8881BB
:1003C0009981CD5ED3400E94D608B801CE01019636
:1003D0000E943001BE016F507C4FCE0101960E94F9
:1003E00030013FEF83ED90E3315080409040E1F7E2
:1003F00000C00000D9CF20FD09C0FC0123FD05C0CD
:1004000022FF02C07383628351834083089544FDB9
:1004100010C046FD10C0DB01FC01AA0FBB1FEE1F80
:10042000FF1F1094D1F76A0F7B1F8E1F9F1F31E0B3
:1004300003C033E001C034E0660F771F881F991FA7
:100440003150D1F7620F711D811D911D08950F93D9
:100450001F93CF93DF938C01C8010E94FB08EC012E
:1004600097FD08C00E94AD08892BB1F7B801CE01F5
:100470000E946B09CE01DF91CF911F910F910895DA
:100480008F929F92AF92CF92DF92EF92FF920F9353
:100490001F93CF93DF93EC01A62E4A01022F0E94F7
:1004A000FB08AC0155274B32510521F04D32510567
:1004B00051F40068AA9411F480E067C0CE010E9454
:1004C000FB0897FDF9CF102F1D7F302F307301F5FA
:1004D0008033F1F4FF24FA94FA0C09F442C0CE01FF
:1004E0000E94FB0897FD3DC0382F3F7D383551F401
:1004F0001264AA94AA94A9F1CE010E94FB0897FF66
:1005000007C02FC006FF02C0126001C01261AF2CED
:10051000C12CD12C760120ED280F283080F014FF5B
:1005200004C0BE010E946B0919C02A3040F016FFBA
:10053000F8CF2F7D3FEE320F363098F72750412FFE
:10054000C701B6010E9407026B017C011260AA94E8
:1005500059F0CE010E94FB0897FFDDCF11FD04C0CA
:10056000ABCFC12CD12C760117FF08C0F094E094DA
:10057000D094C094C11CD11CE11CF11C212FB701E7
:10058000A601C4010E94FB0181E0DF91CF911F9180
:100590000F91FF90EF90DF90CF90AF909F908F9052
:1005A00008954F925F927F928F929F92AF92BF92E7
:1005B000CF92DF92EF92FF920F931F93CF93DF932F
:1005C0001F92CDB7DEB78C012B017A01FC01178297
:1005D0001682A12CF801D380F201D3FC8591D3FEC1
:1005E0008191382F2F01882309F4EFC090E03983DF
:1005F0000E94AD083981892B21F0C8010E94270291
:10060000E9CF353241F4F201D3FC3591D3FE31917B
:100610002F01353269F4C80139830E94FB08398102
:1006200097FDD1C03817B1F2B8010E946B09CDC057
:100630003A3241F4D3FC3591D3FE31912F01BB24E2
:10064000B39401C0B12C712C20ED230F2A3090F40B
:10065000FB2DF260BF2E672D70E080E090E040E25D
:100660000E940702762EF201D3FC3591D3FE319120
:100670002F01EACFB1FE03C0711003C0A6C07724DA
:100680007A94383619F03C3661F014C0F201D3FC8C
:100690003591D3FE31912F01383661F4FB2DF8608E
:1006A000BF2E8B2D8460B82EF201D3FC3591D3FE82
:1006B00031912F01332309F488C0632F70E084EE59
:1006C00090E039830E94B5083981892B09F47DC0F7
:1006D000B0FC07C0F701C080D180C70102967C0141
:1006E00002C0C12CD12C3E3651F4F801468157810D
:1006F00060E070E02B2DC6010E94FB016BCF33360A
:10070000A1F4B1FC02C077247394C8010E94FB08D5
:1007100097FD59C0C114D10429F0F6018083C601A8
:1007200001966C017A9489F74AC0C80139830E9406
:100730002702398197FD47C03F3669F128F43436E6
:1007400031F1393679F12BC0333769F03537F9F0AB
:1007500026C0C114D10429F0F6018082C601019699
:100760006C017A9471F0C8010E94FB084C0197FD5E
:1007700008C00E94AD08892B61F3B801C4010E9432
:100780006B09C114D104D9F0F601108218C0FB2DF9
:10079000F062BF2E07C08B2D8061B82E03C09B2D49
:1007A0009064B92E2B2DA601672DC8010E9440022E
:1007B000811105C0F8018381807329F406C0B0FC63
:1007C00009CFA39407CFAA2019F08A2D90E002C088
:1007D0008FEF9FEF0F90DF91CF911F910F91FF90BF
:1007E000EF90DF90CF90BF90AF909F908F907F90D1
:1007F0005F904F9008952F923F924F925F926F9229
:100800007F928F929F92AF92BF92CF92DF92EF92A0
:10081000FF920F931F93CF93DF93CDB7DEB763970C
:100820000FB6F894DEBF0FBECDBF7C011B016A017D
:10083000FC0117821682838181FF66C3BE016F5F50
:100840007F4F4B01F7019381F10193FD859193FF58
:1008500081911F01882309F453C3853239F493FD34
:10086000859193FF81911F01853239F4B70190E0A2
:100870000E94390956016501E5CF10E0512C20E0B6
:100880002032A0F48B3269F030F4803259F0833298
:1008900069F420612CC08D3239F0803339F4216045
:1008A00026C02260246023C0286021C027FD27C005
:1008B00030ED380F3A3078F426FF06C0FAE01F9F7B
:1008C000300D1124132F13C06AE0569E300D1124F1
:1008D000532E20620CC08E3221F426FD11C32064F9
:1008E00006C08C3611F4206802C0883641F4F1014C
:1008F00093FD859193FF81911F018111C1CF9BEBE6
:10090000980F933018F42061805E06C09BE9980F21
:10091000933008F0AAC12F7E26FF16E02F73722EA7
:10092000853621F4F22FF0647F2E08C0863621F43C
:10093000622F6068762E02C01111115077FE07C039
:100940001C3348F444244394410E27E00BC0183074
:1009500030F4212F06C027E04CE3442E03C027E0EB
:1009600017E0412C560174E0A70EB11CF60160811E
:10097000718182819381042DA4010E94D5076C01AD
:10098000098100FF02C003FF06C071FC07C072FCB2
:1009900008C0612C08C03DE2632E05C02BE2622E28
:1009A00002C090E2692E802F8C7099F1662011F0C0
:1009B00084E001C083E0851510F0512C0BC0581A5B
:1009C00073FC08C0B70180E290E00E9439095A9494
:1009D000C9F7F3CF662029F0B701862D90E00E9479
:1009E000390903FD03C003EF10E002C00FEE10E071
:1009F000F72DF0717F2EF8018491882309F476C2D7
:100A000071108052B70190E00E9439090F5F1F4FAB
:100A1000F2CF77FE0FC04C0C04FF04C08A818133F3
:100A200009F44A94141474F5F8E0F41578F588E0A4
:100A3000482E2CC076FC2AC0812F90E08C159D0595
:100A40009CF06CEFC6166FEFD60674F0772D7068C9
:100A5000772E0AC0E2E0F0E0EC0FFD1FE10FF11D80
:100A60008081803319F411501111F4CF77FE0EC03C
:100A700044244394410E812F90E0C816D9062CF4EB
:100A80001C1904C04424439401C010E077FE07C041
:100A90001C141D043CF496012F5F3F4F05C025E058
:100AA00030E002C021E030E0662011F02F5F3F4FC0
:100AB000112331F0412F50E04F5F5F4F240F351F5E
:100AC000452D50E02417350714F4521A01C0512C5B
:100AD000872D897049F4552039F0B70180E290E004
:100AE0000E9439095A94F7CF662029F0B701862D64
:100AF00090E00E94390973FC09C0552039F0B70114
:100B000080E390E00E9439095A94F7CF77FE5FC0E6
:100B10009C2D8D2DD7FE02C090E080E0692E782EAE
:100B200040E050E0C601841991099D878C879601A9
:100B300026193709280D391D812F90E0EE27FF2750
:100B4000E81BF90BFF87EE87FFEF6F167F0669F44E
:100B5000B7018EE290E02B8B3A8B488B598B0E9429
:100B60003909598948893A892B89C614D70454F020
:100B70006C857D85661577052CF4F901E40FF51F6A
:100B8000818101C080E371E0671A71084F5F5F4F98
:100B9000EE85FF856E167F066CF0B70190E02B8B1B
:100BA0003A8B488B598B0E9439092B893A8948899D
:100BB0005989CACF6C147D0439F49A81963318F49C
:100BC000953311F404FF81E3B70190E04BC08A81B3
:100BD000813309F00F7EB70190E00E9439091111AD
:100BE00005C074FE18C085E490E017C0B7018EE21E
:100BF00090E00E94390982E066246394680EF40153
:100C0000E80FF11D8081B70190E00E943909115071
:100C100041F3862DF1CF85E690E0B7010E943909B6
:100C2000D7FC05C0C114D10439F404FF05C0D19428
:100C3000C194D1088DE201C08BE2B70190E00E941F
:100C4000390980E36AE0C616D1042CF08F5FFAE020
:100C5000CF1AD108F7CFB70190E00E943909B70148
:100C6000C601C0960E94390941C1833631F08337ED
:100C700079F0833509F058C021C0560172E0A70E03
:100C8000B11CF6018081898301E010E0640114C089
:100C90005601F2E0AF0EB11CF601C080D18026FFF4
:100CA00003C0612F70E002C06FEF7FEFC6012B8B96
:100CB0000E94CB088C012B892F7715C05601F2E0DA
:100CC000AF0EB11CF601C080D18026FF03C0612F9A
:100CD00070E002C06FEF7FEFC6012B8B0E94C0084F
:100CE0008C012B892068722E23FD1AC0852D90E07F
:100CF00008171907A8F4B70180E290E00E943909AB
:100D00005A94F4CFF60177FC859177FE81916F01BB
:100D1000B70190E00E94390951105A94015011090D
:100D20000115110579F7E2C0843611F0893651F5C5
:100D3000560127FF09C0F4E0AF0EB11CF601608137
:100D40007181828193810AC0F2E0AF0EB11CF6017D
:100D500060817181882777FD8095982F022F0F760B
:100D600097FF08C090958095709561957F4F8F4F44
:100D70009F4F00682AE030E0A4010E948409C82E39
:100D8000C8183EC0022F853721F40F7E2AE030E0DC
:100D90001DC0097F8F3691F018F4883559F0B0C026
:100DA000803719F0883711F0ABC0006104FF09C02B
:100DB000046007C024FF08C0066006C028E030E0D9
:100DC00005C020E130E002C020E132E0560107FF1B
:100DD00009C0F4E0AF0EB11CF6016081718182811F
:100DE000938108C0F2E0AF0EB11CF6016081718101
:100DF00080E090E0A4010E948409C82EC8180F77F3
:100E000006FF0BC0202F2E7FC11650F404FF0AC02E
:100E100002FD08C0202F2E7E05C0DC2C202F03C031
:100E2000DC2C01C0D12E24FF0DC0FE01EC0DF11D04
:100E30008081803311F4297E09C022FF06C0D3943B
:100E4000D39404C0822F867809F0D39423FD13C075
:100E500020FF06C01C2DD51418F4150D1D19D52C16
:100E6000D51468F4B70180E290E02B8B0E94390919
:100E7000D3942B89F5CFD51410F45D1801C0512CF3
:100E800024FF12C0B70180E390E02B8B0E94390948
:100E90002B8922FF17C021FF03C088E590E002C024
:100EA00088E790E0B7010CC0822F867859F021FDC9
:100EB00002C080E201C08BE227FD8DE2B70190E025
:100EC0000E943909C11638F4B70180E390E00E940E
:100ED00039091150F7CFCA94F401EC0DF11D80814E
:100EE000B70190E00E943909C110F5CF552009F4EF
:100EF000C2CCB70180E290E00E9439095A94F6CF43
:100F0000F7018681978102C08FEF9FEF63960FB63E
:100F1000F894DEBF0FBECDBFDF91CF911F910F912F
:100F2000FF90EF90DF90CF90BF90AF909F908F9009
:100F30007F906F905F904F903F902F900895AA1BE5
:100F4000BB1B51E107C0AA1FBB1FA617B70710F0B4
:100F5000A61BB70B881F991F5A95A9F780959095E6
:100F6000BC01CD010895A1E21A2EAA1BBB1BFD01F5
:100F70000DC0AA1FBB1FEE1FFF1FA217B307E40778
:100F8000F50720F0A21BB30BE40BF50B661F771FD0
:100F9000881F991F1A9469F76095709580959095B0
:100FA0009B01AC01BD01CF010895283008F027E076
:100FB0003327DA01990F311D87FD91600096610595
:100FC000710539F432602E5F3D9330E32A95E1F7E5
:100FD00008959F3F30F080387105610509F03C5F4E
:100FE0003C5F3D93913008F08068911DDF93CF9373
:100FF0001F930F93FF92EF92192F987F9695E92FE9
:1010000096959695E90FFF27EF5AFE4F99273327BC
:10101000EE24FF24A701E70105900894079428F423
:10102000360FE71EF81E491F511D660F771F881FD8
:10103000991F0694A1F70590079428F4E70EF81E6F
:10104000491F561FC11D770F881F991F661F0694E1
:10105000A1F70590079428F4F80E491F561FC71FE3
:10106000D11D880F991F661F771F0694A1F7059061
:10107000079420F4490F561FC71FD81F990F661FEA
:10108000771F881F0694A9F784911095177041F077
:10109000D695C79557954795F794E7941A95C1F754
:1010A000E7EFF0E068941590159135916591959171
:1010B00005907FE27395E118F10A430B560BC90BBB
:1010C000D009C0F7E10CF11E431F561FC91FD01DE8
:1010D0007EF4703311F48A95E6CFE894015030F035
:1010E000080F0AF40027021708F4202F2395022F77
:1010F0007A3328F079E37D932A95E9F710C07D9340
:101100002A9589F6069497956795379517951794BC
:10111000E118F10A430B560BC90BD00998F023953F
:101120007E9173957A3308F070E37C932013B8F7BF
:101130007E9170617D9330F0839571E37D9370E3D0
:101140002A95E1F71124EF90FF900F911F91CF9115
:10115000DF91992787FD90950895911133C18032D1
:1011600019F089508550D0F70895FC0105900616B6
:1011700021F00020D9F7C00108953197CF010895DB
:10118000FC010590615070400110D8F78095909552
:101190008E0F9F1F0895FC01615070400190011057
:1011A000D8F7809590958E0F9F1F0895BB274A30E2
:1011B00031F4992322F4BDE2909581959F4F0C94D0
:1011C000E208BB27FB015527AA27880F991FAA1FF2
:1011D000A41710F0A41B83955051B9F7A05DAA3352
:1011E00008F0A95DA193009779F7B111B19311921D
:1011F000CB010C94E509CF93DF93EC012B8120FF09
:1012000033C026FF0AC02F7B2B838E819F810196DE
:101210009F838E838A8190E029C022FF0FC0E881DE
:10122000F9818081992787FD9095009719F42062B4
:101230002B831AC03196F983E8830EC0EA85FB85BB
:10124000099597FF09C02B81019611F480E101C037
:1012500080E2822B8B8308C02E813F812F5F3F4F1E
:101260003F832E83992702C08FEF9FEFDF91CF91AD
:1012700008950F931F93CF93DF93182F092FEB013E
:101280008B8181FD03C08FEF9FEF20C082FF10C0D4
:101290004E815F812C813D81421753077CF4E881A8
:1012A000F9819F012F5F3F4F39832883108306C048
:1012B000E885F985812F0995892B29F72E813F81B2
:1012C0002F5F3F4F3F832E83812F902FDF91CF9150
:1012D0001F910F910895FB01238120FF12C026FD6D
:1012E00010C08F3F3FEF930761F082832F7D206412
:1012F000238326813781215031093783268399271B
:1013000008958FEF9FEF0895FA01AA27283051F131
:10131000203181F1E8946F936E7F6E5F7F4F8F4F26
:101320009F4FAF4FB1E03ED0B4E03CD0670F781F85
:10133000891F9A1FA11D680F791F8A1F911DA11D6A
:101340006A0F711D811D911DA11D20D009F46894A3
:101350003F912AE0269F11243019305D3193DEF64B
:10136000CF010895462F4770405D4193B3E00FD001
:10137000C9F7F6CF462F4F70405D4A3318F0495DEC
:1013800031FD4052419302D0A9F7EACFB4E0A695CF
:101390009795879577956795BA95C9F700976105F1
:1013A000710508959B01AC010A2E06945795479547
:1013B00037952795BA95C9F7620F731F841F951F3C
:1013C000A01D0895992788270895DC01FC01672F47
:1013D00071917723E1F7329704C07C916D9370830C
:0E13E0006291AE17BF07C8F30895F894FFCFCF
:00000001FF
