:100000000C9416010C9435010C9435010C943501B7
:100010000C9435010C9435010C9435010C94350188
:100020000C9435010C9435010C9435010C94350178
:100030000C9435010C9435010C9435010C94350168
:100040000C9435010C9435010C9435010C94350158
:100050000C9435010C9435010C9435010C94350148
:100060000C9435010C9435010C9435010C94350138
:100070000C9435010C9435010C9435010C94350128
:100080000C9435010C9435010C9435010C94090342
:100090000C9435010C9435010C9435010C94350108
:1000A0000C9435010C9435010C9435010C943501F8
:1000B0000C9435010C9435010C9435010C943501E8
:1000C0000C9435010C9435010C9435010C943501D8
:1000D0000C9435010C9435010C9435010C943501C8
:1000E0000C9435016364696E6F7073757858006E97
:1000F000616E00696E660000407A10F35A00A072CB
:100100004E18090010A5D4E80000E8764817000052
:10011000E40B54020000CA9A3B000000E1F5050020
:100120000080969800000040420F000000A0860169
:10013000000000102700000000E803000000006439
:1001400000000000000A00000000000100000000A4
:10015000002C76D888DC674F0823DFC1DFAE59E179
:10016000B1B796E5E3E453C63AE651997696E8E6E8
:10017000C28426EB898C9B62ED407C6FFCEFBC9CBB
:100180009F40F2BAA56FA5F490055A2AF75C936BCD
:100190006CF9676DC11BFCE0E40D47FEF520E6B588
:1001A00000D0ED902E0300943577050080841E0862
:1001B0000000204E0A000000C80C333333330F9880
:1001C0006E12831141EF8D2114893BE65516CFFE47
:1001D000E6DB18D1844B381BF77C1D901DA4BBE4D3
:1001E00024203284725E228100C9F124ECA1E53D15
:1001F000274E414E494E495459494E46CDCCCC3DEF
:100200000AD7233C17B7D13877CC2B329595E62403
:100210001FB14F0A000020410000C84200401C46A8
:1002200020BCBE4CCA1B0E5AAEC59D7411241FBE05
:10023000CFEFD1E2DEBFCDBF13E0A0E0B2E0EEE150
:10024000F4E200E00BBF02C007900D92A637B107A1
:10025000D9F72BE0A6E7B3E001C01D92A83CB20796
:10026000E1F70E9493040C940D120C940000F89492
:10027000A89584B7877F84BFE0E6F0E0808188613D
:1002800080831082789408951092C50080E1809355
:10029000C400E1ECF0E0808188618083E2ECF0E072
:1002A00080818660808308959091C00095FFFCCF87
:1002B0008093C60008958091C00087FFFCCF809195
:1002C000C60008958091C00087FF03C08091C600DA
:1002D000F9CF0895CF93DF93EC018991882319F02A
:1002E0000E945401FACF8DE00E9454018AE00E94DE
:1002F000540181E090E0DF91CF9108950F931F9317
:10030000CF93DF930CEC17E0C0E0D0E00E945B01DC
:100310008D3041F0C336D10529F02196F801819343
:100320008F01F4CFC453D84F18828CEC97E0DF9143
:10033000CF911F910F9108951092CD0088E0809386
:10034000CC00E9ECF0E0808188618083EAECF0E0A9
:1003500080818660808308959091C80095FFFCCFCE
:100360008093CE0008958091C80087FFFCCF8091D4
:10037000CE0008958091C80087FD03C08091CE0013
:10038000F9CF0895CF93DF93EC018991882319F079
:100390000E94AC01FACF8DE00E94AC018AE00E947D
:1003A000AC0181E090E0DF91CF910895CF92DF9290
:1003B000EF92FF920F931F93CF93DF9380E8E82E85
:1003C00083E0F82E9FE7C92E93E0D92E0CE713E0C7
:1003D000C0E0D0E00E94B301F70181937F01F601F4
:1003E00091916F019F3411F48B34B1F0F801219198
:1003F0008F01253461F42081223549F4F7013397C8
:100400002081223521F49F3411F4823529F0219680
:10041000C83EF3E0DF07F1F6C058DC4F198280E8F0
:1004200093E0DF91CF911F910F91FF90EF90DF90BC
:10043000CF9008950F931F93CF93DF9310E0C0E008
:10044000D0E000E00E94B301833211F4113211F0C8
:100450000023F1F0FE01E058FC4F8083DF0111978B
:100460009C91933211F48132C9F0DF0114972C91E1
:10047000253461F411962C91223541F43297208174
:10048000223521F49F3411F4823541F0219601E0A8
:10049000C83E93E0D90714F4182FD4CFC058DC4FCE
:1004A000198280E893E0DF91CF911F910F91089519
:1004B000E1E2F1E080818660808310922501109254
:1004C00024010895CF92DF92EF92FF92CF93DF93B2
:1004D00080919100856080939100C0903C02D09003
:1004E0003D02E0903E02F0903F022FE335E346E804
:1004F00050E4C701B6010E9445070E94AD07EB0119
:1005000070937F0360937E0380E090E00E94D907A0
:100510002FE335E346E850E40E9467089B01AC01F5
:10052000C701B6010E94E00620E034E244E75BE444
:100530000E94670820E030E040E85AE30E94670824
:100540009B01AC0160E07FEF8FE797E40E94E0063B
:10055000CD2B29F420E030E040E85FE303C020E049
:1005600030E0A9010E9467080E94AD0770939500D2
:100570006093940080917100816080937100789401
:1005800080917E0390917F03019790937F038093E6
:100590007E03DF91CF91FF90EF90DF90CF90089591
:1005A000CF93DF93CDB7DEB764970FB6F894DEBF75
:1005B0000FBECDBFBC01CE0101960E94A10D66E425
:1005C00072E0CE0101960E948D0D68E472E080E831
:1005D00093E00E94890D009761F0BE016F5F7F4F2D
:1005E0000E94980D892B29F068E472E080E090E089
:1005F000F0CF68E472E080E090E00E94890D64969C
:100600000FB6F894DEBF0FBECDBFDF91CF910C9433
:100610008F0C1F920F920FB60F9211240BB60F92F0
:10062000CF92DF92EF92FF920F931F932F933F93FE
:100630004F935F936F937F938F939F93AF93BF93EA
:10064000EF93FF93C0903C02D0903D02E0903E02B9
:10065000F0903F022FE335E346E850E4C701B601CE
:100660000E9445070E94AD0780E090E00E94D907F4
:100670002FE335E346E850E40E9467089B01AC0194
:10068000C701B6010E94E00620E034E244E75BE4E3
:100690000E94670820E030E040E85AE30E946708C3
:1006A0009B01AC0160E07FEF8FE797E40E94E006DA
:1006B00020917E0330917F03232B29F420E030E04A
:1006C00040E85FE303C020E030E0A9010E94670832
:1006D0000E94AD07709395006093940080917E0313
:1006E00090917F0397FF90C08AE492E00E94C2013C
:1006F0000E94BA01609124017091250180E090E090
:100700000E94D90720913C0230913D0240913E0267
:1007100050913F020E94450760937A0370937B03D8
:1007200080937C0390937D03109225011092240105
:1007300006E713E023E046E00E946E0C8091770309
:1007400080933502809178038093360280917903FB
:100750008093370280917A03809338021092390295
:1007600087E593E00E946A0180E092E00E946A01BE
:1007700087E593E00E946A018DE592E00E94C20144
:1007800080E00E94D6010E946A0180E092E00E940F
:10079000C20180E00E94D6010E946A01809142025B
:1007A00090914302A0914402B091450280933C0293
:1007B00090933D02A0933E02B0933F028DE692E0FB
:1007C0000E94C20180E00E94D6010E946A018BE76C
:1007D00092E00E94C20180E00E94D6010E946A015C
:1007E0002FE335E346E850E460913C0270913D020E
:1007F00080913E0290913F020E9445070E94AD0702
:1008000070937F0360937E0380917E0390917F03BA
:10081000019790937F0380937E03FF91EF91BF91A7
:10082000AF919F918F917F916F915F914F913F9188
:100830002F911F910F91FF90EF90DF90CF900F902D
:100840000BBE0F900FBE0F901F9018950E9437019E
:100850000E9458020E9462020E9444010E949C0170
:1008600081EA92E00E94C2012FEF87EA91E62150CF
:1008700080409040E1F700C0000088EA92E00E94CA
:100880006A0181EB92E00E94C2012FEF85EA9EE0AF
:10089000215080409040E1F700C000008DEB92E0D5
:1008A0000E946A0187EC92E00E94C2012FEF85EA64
:1008B0009EE0215080409040E1F700C0000083EDB1
:1008C00092E00E946A018DED92E00E94C2012FEF3A
:1008D00083E294EF215080409040E1F700C0000097
:1008E00080E00E94D6010E946A018BE792E00E949C
:1008F000C2012FEF89E698E1215080409040E1F756
:1009000000C000008CEF92E00E94C2012FEF89E648
:1009100098E1215080409040E1F700C0000082E261
:1009200093E00C946A010E94260488E293E00E94FE
:10093000C2010E94BA012FEF81EE94E02150804065
:100940009040E1F700C0000088E393E00E94C201FC
:1009500080E00E941A020E946A0180E593E00E94F2
:100960006A0180E893E00E946A0180E593E00E94BA
:100970006A0182E693E00E94D00260934202709383
:100980004302809344029093450287E693E00E94DD
:10099000C2012FEF83ED90E3215080409040E1F7BA
:1009A00000C000008CEF92E00E94C2012FEF89E6A8
:1009B00098E1215080409040E1F700C00000B5CFA1
:1009C00020FD09C0FC0123FD05C022FF02C0738386
:1009D000628351834083089544FD10C046FD10C0DA
:1009E000DB01FC01AA0FBB1FEE1FFF1F1094D1F704
:1009F0006A0F7B1F8E1F9F1F31E003C033E001C0D1
:100A000034E0660F771F881F991F3150D1F7620FAE
:100A1000711D811D911D08950F931F93CF93DF9337
:100A20008C01C8010E94DA0DEC0197FD08C00E94FC
:100A30006B0D892BB1F7B801CE010E944A0ECE0191
:100A4000DF91CF911F910F9108958F929F92AF9256
:100A5000CF92DF92EF92FF920F931F93CF93DF938A
:100A6000EC01A62E4A01022F0E94DA0DAC01552797
:100A70004B32510521F04D32510551F40068AA94D2
:100A800011F480E067C0CE010E94DA0D97FDF9CF26
:100A9000102F1D7F302F307301F58033F1F4FF24C8
:100AA000FA94FA0C09F442C0CE010E94DA0D97FDC7
:100AB0003DC0382F3F7D383551F41264AA94AA9472
:100AC000A9F1CE010E94DA0D97FF07C02FC006FFE3
:100AD00002C0126001C01261AF2CC12CD12C760172
:100AE00020ED280F283080F014FF04C0BE010E94C2
:100AF0004A0E19C02A3040F016FFF8CF2F7D3FEE86
:100B0000320F363098F72750412FC701B6010E94A7
:100B1000EC046B017C011260AA9459F0CE010E9492
:100B2000DA0D97FFDDCF11FD04C0ABCFC12CD12C66
:100B3000760117FF08C0F094E094D094C094C11CD3
:100B4000D11CE11CF11C212FB701A601C4010E9498
:100B5000E00481E0DF91CF911F910F91FF90EF9022
:100B6000DF90CF90AF909F908F9008954F925F92BB
:100B70007F928F929F92AF92BF92CF92DF92EF922D
:100B8000FF920F931F93CF93DF931F92CDB7DEB7E2
:100B90008C012B017A01FC0117821682A12CF8012D
:100BA000D380F201D3FC8591D3FE8191382F2F01A0
:100BB000882309F4EFC090E039830E946B0D3981DE
:100BC000892B21F0C8010E940C05E9CF353241F490
:100BD000F201D3FC3591D3FE31912F01353269F406
:100BE000C80139830E94DA0D398197FDD1C03817C9
:100BF000B1F2B8010E944A0ECDC03A3241F4D3FCA2
:100C00003591D3FE31912F01BB24B39401C0B12C97
:100C1000712C20ED230F2A3090F4FB2DF260BF2EB3
:100C2000672D70E080E090E040E20E94EC04762EB8
:100C3000F201D3FC3591D3FE31912F01EACFB1FE01
:100C400003C0711003C0A6C077247A94383619F017
:100C50003C3661F014C0F201D3FC3591D3FE3191E2
:100C60002F01383661F4FB2DF860BF2E8B2D846088
:100C7000B82EF201D3FC3591D3FE31912F013323ED
:100C800009F488C0632F70E084EE90E039830E94FD
:100C9000730D3981892B09F47DC0B0FC07C0F701C1
:100CA000C080D180C70102967C0102C0C12CD12C2A
:100CB0003E3651F4F8014681578160E070E02B2DFB
:100CC000C6010E94E0046BCF3336A1F4B1FC02C030
:100CD00077247394C8010E94DA0D97FD59C0C1149E
:100CE000D10429F0F6018083C60101966C017A9443
:100CF00089F74AC0C80139830E940C05398197FDE4
:100D000047C03F3669F128F4343631F1393679F18C
:100D10002BC0333769F03537F9F026C0C114D10440
:100D200029F0F6018082C60101966C017A9471F077
:100D3000C8010E94DA0D4C0197FD08C00E946B0D9E
:100D4000892B61F3B801C4010E944A0EC114D10479
:100D5000D9F0F601108218C0FB2DF062BF2E07C03B
:100D60008B2D8061B82E03C09B2D9064B92E2B2D46
:100D7000A601672DC8010E942505811105C0F80153
:100D80008381807329F406C0B0FC09CFA39407CFF8
:100D9000AA2019F08A2D90E002C08FEF9FEF0F90EC
:100DA000DF91CF911F910F91FF90EF90DF90CF9047
:100DB000BF90AF909F908F907F905F904F900895DD
:100DC0005058BB27AA270ED048C139D130F03ED1A8
:100DD00020F031F49F3F11F41EF42EC10EF4E09583
:100DE000E7FB24C1E92F4AD180F3BA1762077307E2
:100DF0008407950718F071F49EF562C10EF4E09532
:100E00000B2EBA2FA02D0B01B90190010C01CA01C4
:100E1000A0011124FF27591B99F0593F50F4503E6F
:100E200068F11A16F040A22F232F342F4427585F61
:100E3000F3CF469537952795A795F0405395C9F779
:100E40007EF41F16BA0B620B730B840BBAF0915031
:100E5000A1F0FF0FBB1F661F771F881FC2F70EC0D0
:100E6000BA0F621F731F841F48F4879577956795A3
:100E7000B795F7959E3F08F0B3CF9395880F08F08C
:100E80009927EE0F9795879508950CD0E6C0DED090
:100E900040F0D5D030F021F45F3F19F0C7C05111B8
:100EA00010C1CAC0EBD098F39923C9F35523B1F30D
:100EB000951B550BBB27AA2762177307840738F0C9
:100EC0009F5F5F4F220F331F441FAA1FA9F333D028
:100ED0000E2E3AF0E0E830D091505040E695001CDC
:100EE000CAF729D0FE2F27D0660F771F881FBB1F98
:100EF000261737074807AB07B0E809F0BB0B802D72
:100F0000BF01FF2793585F4F2AF09E3F510568F0BD
:100F10008DC0D7C05F3FECF3983EDCF386957795A4
:100F20006795B795F7959F5FC9F7880F911D9695BF
:100F3000879597F90895E1E0660F771F881FBB1F1B
:100F4000621773078407BA0720F0621B730B840BC8
:100F5000BA0BEE1F88F7E095089598D088F09F5758
:100F600090F0B92F9927B751A0F0D1F0660F771FF5
:100F7000881F991F1AF0BA95C9F712C0B13081F0D5
:100F80009FD0B1E008959CC0672F782F8827B85F65
:100F900039F0B93FCCF3869577956795B395D9F736
:100FA0003EF490958095709561957F4F8F4F9F4F40
:100FB0000895E89409C097FB3EF49095809570954C
:100FC00061957F4F8F4F9F4F9923A9F0F92F96E995
:100FD000BB279395F695879577956795B795F1110A
:100FE000F8CFFAF4BB0F11F460FF1BC06F5F7F4FA7
:100FF0008F4F9F4F16C0882311F096E911C07723B9
:1010000021F09EE8872F762F05C0662371F096E8C1
:10101000862F70E060E02AF09A95660F771F881F90
:10102000DAF7880F9695879597F9089597F99F674E
:1010300080E870E060E008959FEF80EC0895002460
:101040000A941616170618060906089500240A942D
:1010500012161306140605060895092E0394000CB3
:1010600011F4882352F0BB0F40F4BF2B11F460FF42
:1010700004C06F5F7F4F8F4F9F4F089557FD90586B
:10108000440F551F59F05F3F71F04795880F97FB4C
:10109000991F61F09F3F79F0879508951216130606
:1010A0001406551FF2CF4695F1DF08C01616170635
:1010B0001806991FF1CF869571056105089408956A
:1010C000E894BB2766277727CB0197F908950BD0C3
:1010D000C4CFB5DF28F0BADF18F0952309F0A6CF0A
:1010E000ABCF1124EECFCADFA0F3959FD1F3950FBC
:1010F00050E0551F629FF001729FBB27F00DB11D9C
:10110000639FAA27F00DB11DAA1F649F6627B00D2B
:10111000A11D661F829F2227B00DA11D621F739F14
:10112000B00DA11D621F839FA00D611D221F749F22
:101130003327A00D611D231F849F600D211D822F69
:10114000762F6A2F11249F5750408AF0E1F08823B0
:101150004AF0EE0FFF1FBB1F661F771F881F9150BD
:101160005040A9F79E3F510570F060CFAACF5F3F76
:10117000ECF3983EDCF3869577956795B795F795F0
:10118000E7959F5FC1F7FE2B880F911D9695879578
:1011900097F908952F923F924F925F926F927F92AC
:1011A0008F929F92AF92BF92CF92DF92EF92FF9277
:1011B0000F931F93CF93DF93CDB7DEB763970FB62F
:1011C000F894DEBF0FBECDBF7C011B016A01FC019C
:1011D00017821682838181FF66C3BE016F5F7F4FD6
:1011E0004B01F7019381F10193FD859193FF81916B
:1011F0001F01882309F453C3853239F493FD859187
:1012000093FF81911F01853239F4B70190E00E946C
:10121000180E56016501E5CF10E0512C20E0203278
:10122000A0F48B3269F030F4803259F0833269F4E3
:1012300020612CC08D3239F0803339F4216026C012
:101240002260246023C0286021C027FD27C030ED24
:10125000380F3A3078F426FF06C0FAE01F9F300DB1
:101260001124132F13C06AE0569E300D1124532E03
:1012700020620CC08E3221F426FD11C3206406C00A
:101280008C3611F4206802C0883641F4F10193FDD8
:10129000859193FF81911F018111C1CF9BEB980F25
:1012A000933018F42061805E06C09BE9980F93305C
:1012B00008F0AAC12F7E26FF16E02F73722E853606
:1012C00021F4F22FF0647F2E08C0863621F4622FBD
:1012D0006068762E02C01111115077FE07C01C33D2
:1012E00048F444244394410E27E00BC0183030F4F6
:1012F000212F06C027E04CE3442E03C027E017E06F
:10130000412C560174E0A70EB11CF6016081718179
:1013100082819381042DA4010E94930C6C010981A8
:1013200000FF02C003FF06C071FC07C072FC08C0CA
:10133000612C08C03DE2632E05C02BE2622E02C084
:1013400090E2692E802F8C7099F1662011F084E074
:1013500001C083E0851510F0512C0BC0581A73FCA6
:1013600008C0B70180E290E00E94180E5A94C9F7B5
:10137000F3CF662029F0B701862D90E00E94180E69
:1013800003FD03C003EF10E002C00FEE10E0F72DE5
:10139000F0717F2EF8018491882309F476C27110D0
:1013A0008052B70190E00E94180E0F5F1F4FF2CFDE
:1013B00077FE0FC04C0C04FF04C08A81813309F40E
:1013C0004A94141474F5F8E0F41578F588E0482E82
:1013D0002CC076FC2AC0812F90E08C159D059CF0D6
:1013E0006CEFC6166FEFD60674F0772D7068772E07
:1013F0000AC0E2E0F0E0EC0FFD1FE10FF11D80817B
:10140000803319F411501111F4CF77FE0EC044242B
:101410004394410E812F90E0C816D9062CF41C1974
:1014200004C04424439401C010E077FE07C01C149C
:101430001D043CF496012F5F3F4F05C025E030E0CE
:1014400002C021E030E0662011F02F5F3F4F1123F2
:1014500031F0412F50E04F5F5F4F240F351F452D76
:1014600050E02417350714F4521A01C0512C872D6F
:10147000897049F4552039F0B70180E290E00E946C
:10148000180E5A94F7CF662029F0B701862D90E008
:101490000E94180E73FC09C0552039F0B70180E393
:1014A00090E00E94180E5A94F7CF77FE5FC09C2DF3
:1014B0008D2DD7FE02C090E080E0692E782E40E0AE
:1014C00050E0C601841991099D878C8796012619E1
:1014D0003709280D391D812F90E0EE27FF27E81BE3
:1014E000F90BFF87EE87FFEF6F167F0669F4B701F0
:1014F0008EE290E02B8B3A8B488B598B0E94180E12
:10150000598948893A892B89C614D70454F06C85C7
:101510007D85661577052CF4F901E40FF51F8181AF
:1015200001C080E371E0671A71084F5F5F4FEE857D
:10153000FF856E167F066CF0B70190E02B8B3A8B1F
:10154000488B598B0E94180E2B893A8948895989F2
:10155000CACF6C147D0439F49A81963318F495330C
:1015600011F404FF81E3B70190E04BC08A8181331D
:1015700009F00F7EB70190E00E94180E111105C00E
:1015800074FE18C085E490E017C0B7018EE290E0C9
:101590000E94180E82E066246394680EF401E80F3E
:1015A000F11D8081B70190E00E94180E115041F3A7
:1015B000862DF1CF85E690E0B7010E94180ED7FC8A
:1015C00005C0C114D10439F404FF05C0D194C194FD
:1015D000D1088DE201C08BE2B70190E00E94180EA5
:1015E00080E36AE0C616D1042CF08F5FFAE0CF1AD0
:1015F000D108F7CFB70190E00E94180EB701C601DD
:10160000C0960E94180E41C1833631F0833779F0BD
:10161000833509F058C021C0560172E0A70EB11CF5
:10162000F6018081898301E010E0640114C0560155
:10163000F2E0AF0EB11CF601C080D18026FF03C0DE
:10164000612F70E002C06FEF7FEFC6012B8B0E940D
:10165000A80D8C012B892F7715C05601F2E0AF0E33
:10166000B11CF601C080D18026FF03C0612F70E05D
:1016700002C06FEF7FEFC6012B8B0E947E0D8C01A5
:101680002B892068722E23FD1AC0852D90E0081743
:101690001907A8F4B70180E290E00E94180E5A944E
:1016A000F4CFF60177FC859177FE81916F01B70148
:1016B00090E00E94180E51105A9401501109011522
:1016C000110579F7E2C0843611F0893651F55601DB
:1016D00027FF09C0F4E0AF0EB11CF60160817181F3
:1016E000828193810AC0F2E0AF0EB11CF6016081E5
:1016F0007181882777FD8095982F022F0F7697FFAD
:1017000008C090958095709561957F4F8F4F9F4F42
:1017100000682AE030E0A4010E94630EC82EC818B9
:101720003EC0022F853721F40F7E2AE030E01DC035
:10173000097F8F3691F018F4883559F0B0C08037A2
:1017400019F0883711F0ABC0006104FF09C00460D4
:1017500007C024FF08C0066006C028E030E005C0CE
:1017600020E130E002C020E132E0560107FF09C06D
:10177000F4E0AF0EB11CF60160817181828193812A
:1017800008C0F2E0AF0EB11CF6016081718180E00B
:1017900090E0A4010E94630EC82EC8180F7706FFC0
:1017A0000BC0202F2E7FC11650F404FF0AC002FD8B
:1017B00008C0202F2E7E05C0DC2C202F03C0DC2C7F
:1017C00001C0D12E24FF0DC0FE01EC0DF11D808162
:1017D000803311F4297E09C022FF06C0D394D3942C
:1017E00004C0822F867809F0D39423FD13C020FF14
:1017F00006C01C2DD51418F4150D1D19D52CD514A3
:1018000068F4B70180E290E02B8B0E94180ED3940D
:101810002B89F5CFD51410F45D1801C0512C24FF8D
:1018200012C0B70180E390E02B8B0E94180E2B8929
:1018300022FF17C021FF03C088E590E002C088E7BF
:1018400090E0B7010CC0822F867859F021FD02C0CC
:1018500080E201C08BE227FD8DE2B70190E00E949B
:10186000180EC11638F4B70180E390E00E94180EFC
:101870001150F7CFCA94F401EC0DF11D8081B7012E
:1018800090E00E94180EC110F5CF552009F4C2CC8B
:10189000B70180E290E00E94180E5A94F6CFF7014B
:1018A0008681978102C08FEF9FEF63960FB6F89401
:1018B000DEBF0FBECDBFDF91CF911F910F91FF9083
:1018C000EF90DF90CF90BF90AF909F908F907F90E0
:1018D0006F905F904F903F902F900895EF920F93ED
:1018E0001F93CF93DF93E80147FF02C034E101C0AB
:1018F00034E0E42FFF27E7FDF095F7FF03C0F195F3
:10190000E195F109E32E022F2E2FAE010E94C10EA8
:10191000CE01DF91CF911F910F91EF90089566272F
:1019200077270C943F10283008F027E03327DA019E
:10193000990F311D87FD916000966105710539F49D
:1019400032602E5F3D9330E32A95E1F708959F3F83
:1019500030F080387105610509F03C5F3C5F3D93D4
:10196000913008F08068911DDF93CF931F930F9300
:10197000FF92EF92192F987F9695E92F969596955D
:10198000E90FFF27EF5AFE4F99273327EE24FF2454
:10199000A701E70105900894079428F4360FE71E85
:1019A000F81E491F511D660F771F881F991F069447
:1019B000A1F70590079428F4E70EF81E491F561F5B
:1019C000C11D770F881F991F661F0694A1F7059008
:1019D000079428F4F80E491F561FC71FD11D880F02
:1019E000991F661F771F0694A1F70590079420F4AE
:1019F000490F561FC71FD81F990F661F771F881FD3
:101A00000694A9F784911095177041F0D695C79563
:101A100057954795F794E7941A95C1F7E7EFF0E0EB
:101A200068941590159135916591959105907FE297
:101A30007395E118F10A430B560BC90BD009C0F797
:101A4000E10CF11E431F561FC91FD01D7EF47033D9
:101A500011F48A95E6CFE894015030F0080F0AF4AB
:101A60000027021708F4202F2395022F7A3328F03D
:101A700079E37D932A95E9F710C07D932A9589F63D
:101A8000069497956795379517951794E118F10A7D
:101A9000430B560BC90BD00998F023957E91739593
:101AA0007A3308F070E37C932013B8F77E9170616D
:101AB0007D9330F0839571E37D9370E32A95E1F790
:101AC0001124EF90FF900F911F91CF91DF919927F3
:101AD00087FD90950895911143C4803219F0895083
:101AE0008550D0F70895FC010590061621F00020DE
:101AF000D9F7C00108953197CF010895FC010590F1
:101B0000615070400110D8F7809590958E0F9F1FFF
:101B1000089544EC5BE00C94B30DFB01DC010D90E7
:101B20000020E9F7119701900D920020E1F7089548
:101B3000FB01DC018D91019080190110D9F3990B03
:101B40000895FB01DC0101900D920020E1F708955A
:101B5000FC016150704001900110D8F7809590957C
:101B60008E0F9F1F0895FA01A191B081009719F47B
:101B70001097E1F0CD01DC01CD010D90002011F4B2
:101B8000C00113C0FB012191222319F02015D9F7C0
:101B9000F3CFFB012191201519F41E92119606C076
:101BA0002223C1F70D900020A1F7D001FA01A193E3
:101BB000B0830895CF93DF93EC012B8120FF33C0D6
:101BC00026FF0AC02F7B2B838E819F8101969F83E6
:101BD0008E838A8190E029C022FF0FC0E881F981BD
:101BE0008081992787FD9095009719F420622B83B7
:101BF0001AC03196F983E8830EC0EA85FB85099502
:101C000097FF09C02B81019611F480E101C080E2A9
:101C1000822B8B8308C02E813F812F5F3F4F3F83F4
:101C20002E83992702C08FEF9FEFDF91CF91089508
:101C30000F931F93CF93DF93182F092FEB018B8105
:101C400081FD03C08FEF9FEF20C082FF10C04E8147
:101C50005F812C813D81421753077CF4E881F98133
:101C60009F012F5F3F4F39832883108306C0E8858B
:101C7000F985812F0995892B29F72E813F812F5FC7
:101C80003F4F3F832E83812F902FDF91CF911F9164
:101C90000F910895FB01238120FF12C026FD10C083
:101CA0008F3F3FEF930761F082832F7D2064238372
:101CB000268137812150310937832683992708955A
:101CC0008FEF9FEF0895FA01AA27283051F12031B4
:101CD00081F1E8946F936E7F6E5F7F4F8F4F9F4FC0
:101CE000AF4FB1E03ED0B4E03CD0670F781F891F02
:101CF0009A1FA11D680F791F8A1F911DA11D6A0FD0
:101D0000711D811D911DA11D20D009F468943F9182
:101D10002AE0269F11243019305D3193DEF6CF0181
:101D20000895462F4770405D4193B3E00FD0C9F747
:101D3000F6CF462F4F70405D4A3318F0495D31FDB4
:101D40004052419302D0A9F7EACFB4E0A695979507
:101D5000879577956795BA95C9F7009761057105DD
:101D600008959B01AC010A2E069457954795379527
:101D70002795BA95C9F7620F731F841F951FA01D81
:101D800008956F927F929F92AF92BF92CF92DF920F
:101D9000EF92FF920F931F93CF93DF93CDB7DEB7F0
:101DA00029970FB6F894DEBF0FBECDBF6A01B22EE1
:101DB000102F0C3320F4FF24F394F00E02C04CE3F8
:101DC000F42E0F2D27E0AE014F5F5F4F0E94930C62
:101DD0007981272F2970213031F0E1FC06C0E0FC29
:101DE00006C060E005C06DE203C06BE201C060E2C6
:101DF000AE2DA07173FF36C0662311F084E001C0E0
:101E000083E08B1510F4B81A01C0B12CA1110BC0DE
:101E1000F6018B2D90E2882319F091938150FBCF2E
:101E2000CB0CD11CB12C662331F0F60160839601F6
:101E30002F5F3F4F6901C6010396E2FE05C02EE405
:101E4000F601208331E404C02EE6F601208331E65A
:101E500031832283FC012B2D30E22223F1F13193D7
:101E60002150FBCF72FF40C0662311F084E001C017
:101E700083E08B1510F4B81A01C0B12CA1110BC06E
:101E8000F6018B2D90E2882319F091938150FBCFBE
:101E9000CB0CD11CB12C662331F0F6016083960186
:101EA0002F5F3F4F6901C6010396E2FE07C029E498
:101EB000F60120832EE4218326E406C029E6F601FC
:101EC00020832EE6218326E62283FC012B2D30E29F
:101ED000222319F031932150FBCFFC01EB0DF11DB2
:101EE00010828EEF9FEFB7C0B1E0611101C0B0E08A
:101EF0004B2F50E01816190624F49C012F5F3F4F1A
:101F000002C021E030E0240F351F112329F0412FBA
:101F100050E04F5F5F4F02C040E050E0420F531F60
:101F20002B2D30E04217530714F4B41A01C0B12C22
:101F30002E2D287159F4F6012B2D30E2222319F0B1
:101F400031932150FBCFCB0CD11CB12CBB2331F0F2
:101F5000F601608396012F5F3F4F6901A1110BC00D
:101F6000F6012B2D30E3222319F031932150FBCFC2
:101F7000CB0CD11CB12CF80E0A81372F3071A32E57
:101F800074FF03C0013309F4FA941F142CF42F2DAD
:101F9000293018F028E001C021E0682F392F97FF81
:101FA00002C060E030E0462F532F612C712C3EE2DE
:101FB000932EBC01621B71099B01DC01A41BB50BB4
:101FC000E1E0F0E0EC0FFD1FAE0FBF1FE12EF12CA2
:101FD000F194E194F1084F3FFFEF5F0731F4F60110
:101FE0009082B6016F5F7F4F6B01841795074CF0AD
:101FF0002417350734F4BD01660D771DFB011181EF
:1020000001C010E341505109FFEF6F1A7F0AB6017A
:102010006F5F7F4F4E155F0524F0F60110836B0153
:10202000DACF4817590739F4063320F4053319F489
:10203000A11001C011E3F6011083FB018B2D90E28A
:10204000882319F091938150FBCFFB01EB0DF11D1B
:10205000108280E090E029960FB6F894DEBF0FBEA4
:10206000CDBFDF91CF911F910F91FF90EF90DF9047
:10207000CF90BF90AF909F907F906F9008958F9278
:102080009F92AF92BF92CF92DF92EF92FF920F9307
:102090001F93CF93DF938B016115710521F0DB0155
:1020A0008C9311969C93EC015E01BFEFAB1ABB0AB7
:1020B0007501C8808C2D90E00E946B0D892B11F06A
:1020C000E501F2CFEDE2CE1208C07E01F2E0EF0EA4
:1020D000F11CC980DD24D39409C02BE2C21205C0D3
:1020E0007E0142E0E40EF11CC980D12CE70121976A
:1020F00043E050E069EF71E0CE010E94B311892BFB
:10210000C1F4239645E050E064EF71E0CE010E94F7
:10211000B311892B09F425960115110519F0D80181
:10212000CD93DC93D11006C160E070E080E89FE7BA
:102130000AC143E050E061EF71E0CE010E94B311AB
:10214000892B59F40115110509F4F9C0B2E0EB0E21
:10215000F11CF801F182E082F2C0F70160E070E06A
:10216000CB01C0E0D0E07F01A0EDAA2EAC0C29E0AD
:102170002A1530F14D2D4260B42E2D2D2870D2FE3F
:1021800004C0211125C0219623C021112197A5E06B
:10219000B0E09B01AC010E94F311660F771F881F0E
:1021A000991F6A0D711D811D911D6839A9E97A0772
:1021B0008A07A9E19A0760F0BD2DB660BB2E08C062
:1021C0002EEFA2120AC0D3FC50C04D2D4860B42E91
:1021D0003196D701CC90DB2CC6CF2C2D2F7D25340A
:1021E00009F043C0A081AD3241F4BD2DB061DB2EBA
:1021F0007F0122E0E20EF11C0CC07F01AB3231F016
:102200004FEFE41AF40A21E030E006C0A2E0EA0E43
:10221000F11CA18122E030E0A053AA3018F0E21AAC
:10222000F30A23C0F70120E030E02038BCE03B0790
:102230005CF4A901440F551F440F551F240F351F8F
:10224000220F331F2A0F311DAF014F5F5F4F7A01FD
:10225000A081A053AA3010F4FA01E7CFD4FE03C046
:10226000319521953109C20FD31FD1FE09C0011547
:10227000110531F0E1E0EE1AF108D801ED92FC927F
:102280000E94D9072D2D2370233019F04B015C01DA
:1022900006C04B015C01B7FAB094B7F8B09420E0E7
:1022A00030E0A901C501B4010E94CB11882309F4D3
:1022B0003EC0D7FF06C0D195C195D10900E112E01B
:1022C00002C008E212E06801B8E1CB1AD10890E23E
:1022D000E92EF12CCE15DF0574F0F801259135912A
:1022E00045915491C501B4010E9467084B015C01FE
:1022F000CE19DF09EFCF04501109F594E7940C15BE
:102300001D0541F78A2D880F8B2D881F8F3F49F0BF
:1023100020E030E0A901C501B4010E94CB11811178
:1023200006C082E290E09093C70B8093C60BC50174
:10233000B40109C060E070E080E89FEF04C060E095
:1023400070E080EC9FE7DF91CF911F910F91FF909C
:10235000EF90DF90CF90BF90AF909F908F900895B7
:10236000992788270895FB01DC014150504088F0EF
:102370008D9181341CF08B350CF4805E6591613455
:102380001CF06B350CF4605E861B611171F3990BC8
:102390000895881BFCCF03D008F481E00895990FBD
:1023A0000008550FAA0BE0E8FEEF16161706E8071F
:1023B000F907C0F012161306E407F50798F0621B40
:1023C000730B840B950B39F40A2661F0232B242B15
:1023D000252B21F408950A2609F4A140A6958FEF34
:1023E000811D811D08950E94FE11A59F900DB49F2F
:1023F000900DA49F800D911D11240895A29FB001FE
:10240000B39FC001A39F700D811D1124911DB29F28
:0E241000700D811D1124911D0895F894FFCFC9
:10241E00474554202F6F72736F73612F73746F72F1
:10242E00652E7068703F776F72643D4C65744D65B4
:10243E00496E21266669656C643D66726571267605
:10244E00616C75653D000000000000010000A041B8
:10245E00FFFF0000A0413A002000B7B7B7B7B7B7EB
:10246E00B7B7B7B7B7B7B7B7B7B7B7B70041542B0A
:10247E0043495053454E443D342C35390041542B7D
:10248E00434950434C4F53453D340041542B43492F
:10249E005053544152543D342C22544350222C223A
:1024AE003230302E312E31362E323438222C383016
:1024BE000041542B525354005245534554204F4B18
:1024CE000041542B4349504D55583D31004349501E
:1024DE004D5558204F4B0041542B43574D4F4445BB
:1024EE003D310043574D4F4445204F4B0041542B37
:1024FE0043574A41503D2261746C61736777222CB9
:10250E002253694C6162614C6953220041542B4342
:10251E00495053544152543D332C22544350222C93
:10252E00223230302E312E31362E323438222C38A3
:10253E00300072656164790041542B434950534514
:10254E004E443D332C323500474554202F6F727365
:10255E006F73612F676574646174612E70687000AB
:10256E002D2D2D2D2D2D2D2D2D2D2D2D2D2D2D2D8D
:10257E002D00676174650041542B434950434C4F05
:06258E0053453D3300003F
:00000001FF
